{
  "contractName": "AmusementArcadeToken",
  "abi": [
    {
      "inputs": [],
      "stateMutability": "nonpayable",
      "type": "constructor"
    },
    {
      "anonymous": false,
      "inputs": [
        {
          "indexed": true,
          "internalType": "address",
          "name": "owner",
          "type": "address"
        },
        {
          "indexed": true,
          "internalType": "address",
          "name": "spender",
          "type": "address"
        },
        {
          "indexed": false,
          "internalType": "uint256",
          "name": "value",
          "type": "uint256"
        }
      ],
      "name": "Approval",
      "type": "event"
    },
    {
      "anonymous": false,
      "inputs": [
        {
          "indexed": true,
          "internalType": "address",
          "name": "previousOwner",
          "type": "address"
        },
        {
          "indexed": true,
          "internalType": "address",
          "name": "newOwner",
          "type": "address"
        }
      ],
      "name": "OwnershipTransferred",
      "type": "event"
    },
    {
      "anonymous": false,
      "inputs": [
        {
          "indexed": true,
          "internalType": "address",
          "name": "from",
          "type": "address"
        },
        {
          "indexed": true,
          "internalType": "address",
          "name": "to",
          "type": "address"
        },
        {
          "indexed": false,
          "internalType": "uint256",
          "name": "value",
          "type": "uint256"
        }
      ],
      "name": "Transfer",
      "type": "event"
    },
    {
      "inputs": [],
      "name": "_decimals",
      "outputs": [
        {
          "internalType": "uint8",
          "name": "",
          "type": "uint8"
        }
      ],
      "stateMutability": "view",
      "type": "function",
      "constant": true
    },
    {
      "inputs": [],
      "name": "_name",
      "outputs": [
        {
          "internalType": "string",
          "name": "",
          "type": "string"
        }
      ],
      "stateMutability": "view",
      "type": "function",
      "constant": true
    },
    {
      "inputs": [],
      "name": "_symbol",
      "outputs": [
        {
          "internalType": "string",
          "name": "",
          "type": "string"
        }
      ],
      "stateMutability": "view",
      "type": "function",
      "constant": true
    },
    {
      "inputs": [],
      "name": "owner",
      "outputs": [
        {
          "internalType": "address",
          "name": "",
          "type": "address"
        }
      ],
      "stateMutability": "view",
      "type": "function",
      "constant": true
    },
    {
      "inputs": [],
      "name": "renounceOwnership",
      "outputs": [],
      "stateMutability": "nonpayable",
      "type": "function"
    },
    {
      "inputs": [
        {
          "internalType": "address",
          "name": "newOwner",
          "type": "address"
        }
      ],
      "name": "transferOwnership",
      "outputs": [],
      "stateMutability": "nonpayable",
      "type": "function"
    },
    {
      "inputs": [],
      "name": "getmsgsender",
      "outputs": [
        {
          "internalType": "address",
          "name": "",
          "type": "address"
        }
      ],
      "stateMutability": "view",
      "type": "function",
      "constant": true
    },
    {
      "inputs": [],
      "name": "getOwner",
      "outputs": [
        {
          "internalType": "address",
          "name": "",
          "type": "address"
        }
      ],
      "stateMutability": "view",
      "type": "function",
      "constant": true
    },
    {
      "inputs": [],
      "name": "decimals",
      "outputs": [
        {
          "internalType": "uint8",
          "name": "",
          "type": "uint8"
        }
      ],
      "stateMutability": "view",
      "type": "function",
      "constant": true
    },
    {
      "inputs": [],
      "name": "symbol",
      "outputs": [
        {
          "internalType": "string",
          "name": "",
          "type": "string"
        }
      ],
      "stateMutability": "view",
      "type": "function",
      "constant": true
    },
    {
      "inputs": [],
      "name": "name",
      "outputs": [
        {
          "internalType": "string",
          "name": "",
          "type": "string"
        }
      ],
      "stateMutability": "view",
      "type": "function",
      "constant": true
    },
    {
      "inputs": [],
      "name": "totalSupply",
      "outputs": [
        {
          "internalType": "uint256",
          "name": "",
          "type": "uint256"
        }
      ],
      "stateMutability": "view",
      "type": "function",
      "constant": true
    },
    {
      "inputs": [
        {
          "internalType": "address",
          "name": "account",
          "type": "address"
        }
      ],
      "name": "balanceOf",
      "outputs": [
        {
          "internalType": "uint256",
          "name": "",
          "type": "uint256"
        }
      ],
      "stateMutability": "view",
      "type": "function",
      "constant": true
    },
    {
      "inputs": [
        {
          "internalType": "address",
          "name": "recipient",
          "type": "address"
        },
        {
          "internalType": "uint256",
          "name": "amount",
          "type": "uint256"
        }
      ],
      "name": "transfer",
      "outputs": [
        {
          "internalType": "bool",
          "name": "",
          "type": "bool"
        }
      ],
      "stateMutability": "nonpayable",
      "type": "function"
    },
    {
      "inputs": [
        {
          "internalType": "address",
          "name": "owner",
          "type": "address"
        },
        {
          "internalType": "address",
          "name": "spender",
          "type": "address"
        }
      ],
      "name": "allowance",
      "outputs": [
        {
          "internalType": "uint256",
          "name": "",
          "type": "uint256"
        }
      ],
      "stateMutability": "view",
      "type": "function",
      "constant": true
    },
    {
      "inputs": [
        {
          "internalType": "address",
          "name": "spender",
          "type": "address"
        },
        {
          "internalType": "uint256",
          "name": "amount",
          "type": "uint256"
        }
      ],
      "name": "approve",
      "outputs": [
        {
          "internalType": "bool",
          "name": "",
          "type": "bool"
        }
      ],
      "stateMutability": "nonpayable",
      "type": "function"
    },
    {
      "inputs": [
        {
          "internalType": "address",
          "name": "sender",
          "type": "address"
        },
        {
          "internalType": "address",
          "name": "recipient",
          "type": "address"
        },
        {
          "internalType": "uint256",
          "name": "amount",
          "type": "uint256"
        }
      ],
      "name": "transferFrom",
      "outputs": [
        {
          "internalType": "bool",
          "name": "",
          "type": "bool"
        }
      ],
      "stateMutability": "nonpayable",
      "type": "function"
    },
    {
      "inputs": [
        {
          "internalType": "address",
          "name": "spender",
          "type": "address"
        },
        {
          "internalType": "uint256",
          "name": "addedValue",
          "type": "uint256"
        }
      ],
      "name": "increaseAllowance",
      "outputs": [
        {
          "internalType": "bool",
          "name": "",
          "type": "bool"
        }
      ],
      "stateMutability": "nonpayable",
      "type": "function"
    },
    {
      "inputs": [
        {
          "internalType": "address",
          "name": "spender",
          "type": "address"
        },
        {
          "internalType": "uint256",
          "name": "subtractedValue",
          "type": "uint256"
        }
      ],
      "name": "decreaseAllowance",
      "outputs": [
        {
          "internalType": "bool",
          "name": "",
          "type": "bool"
        }
      ],
      "stateMutability": "nonpayable",
      "type": "function"
    }
  ],
  "bytecode": "0x60806040523480156200001157600080fd5b506200003262000026620001d560201b60201c565b620001dd60201b60201c565b6040518060400160405280601681526020017f416d7573656d656e742041726361646520546f6b656e00000000000000000000815250600690805190602001906200007f929190620002a1565b506040518060400160405280600381526020017f414154000000000000000000000000000000000000000000000000000000000081525060059080519060200190620000cd929190620002a1565b506012600460006101000a81548160ff021916908360ff160217905550600460009054906101000a900460ff16600a620001089190620003da565b6305f5e10062000119919062000517565b600381905550600354600160003373ffffffffffffffffffffffffffffffffffffffff1673ffffffffffffffffffffffffffffffffffffffff168152602001908152602001600020819055503373ffffffffffffffffffffffffffffffffffffffff16600073ffffffffffffffffffffffffffffffffffffffff167fddf252ad1be2c89b69c2b068fc378daa952ba7f163c4a11628f55a4df523b3ef600354604051620001c7919062000362565b60405180910390a362000630565b600033905090565b60008060009054906101000a900473ffffffffffffffffffffffffffffffffffffffff169050816000806101000a81548173ffffffffffffffffffffffffffffffffffffffff021916908373ffffffffffffffffffffffffffffffffffffffff1602179055508173ffffffffffffffffffffffffffffffffffffffff168173ffffffffffffffffffffffffffffffffffffffff167f8be0079c531659141344cd1fd0a4f28419497f9722a3daafe3b4186f6b6457e060405160405180910390a35050565b828054620002af906200058f565b90600052602060002090601f016020900481019282620002d357600085556200031f565b82601f10620002ee57805160ff19168380011785556200031f565b828001600101855582156200031f579182015b828111156200031e57825182559160200191906001019062000301565b5b5090506200032e919062000332565b5090565b5b808211156200034d57600081600090555060010162000333565b5090565b6200035c8162000578565b82525050565b600060208201905062000379600083018462000351565b92915050565b6000808291508390505b6001851115620003d157808604811115620003a957620003a8620005c5565b5b6001851615620003b95780820291505b8081029050620003c98562000623565b945062000389565b94509492505050565b6000620003e78262000578565b9150620003f48362000582565b9250620004237fffffffffffffffffffffffffffffffffffffffffffffffffffffffffffffffff84846200042b565b905092915050565b6000826200043d576001905062000510565b816200044d576000905062000510565b81600181146200046657600281146200047157620004a7565b600191505062000510565b60ff841115620004865762000485620005c5565b5b8360020a915084821115620004a0576200049f620005c5565b5b5062000510565b5060208310610133831016604e8410600b8410161715620004e15782820a905083811115620004db57620004da620005c5565b5b62000510565b620004f084848460016200037f565b925090508184048111156200050a5762000509620005c5565b5b81810290505b9392505050565b6000620005248262000578565b9150620005318362000578565b9250817fffffffffffffffffffffffffffffffffffffffffffffffffffffffffffffffff04831182151516156200056d576200056c620005c5565b5b828202905092915050565b6000819050919050565b600060ff82169050919050565b60006002820490506001821680620005a857607f821691505b60208210811415620005bf57620005be620005f4565b5b50919050565b7f4e487b7100000000000000000000000000000000000000000000000000000000600052601160045260246000fd5b7f4e487b7100000000000000000000000000000000000000000000000000000000600052602260045260246000fd5b60008160011c9050919050565b6118cd80620006406000396000f3fe608060405234801561001057600080fd5b50600436106101215760003560e01c8063715018a6116100ad578063a9059cbb11610071578063a9059cbb14610310578063b09f126614610340578063d28d88521461035e578063dd62ed3e1461037c578063f2fde38b146103ac57610121565b8063715018a61461027c578063893d20e8146102865780638da5cb5b146102a457806395d89b41146102c2578063a457c2d7146102e057610121565b8063313ce567116100f4578063313ce567146101c257806332424aa3146101e05780633727c0b6146101fe578063395093511461021c57806370a082311461024c57610121565b806306fdde0314610126578063095ea7b31461014457806318160ddd1461017457806323b872dd14610192575b600080fd5b61012e6103c8565b60405161013b919061138f565b60405180910390f35b61015e600480360381019061015991906111d6565b61045a565b60405161016b9190611374565b60405180910390f35b61017c610478565b6040516101899190611471565b60405180910390f35b6101ac60048036038101906101a79190611187565b610482565b6040516101b99190611374565b60405180910390f35b6101ca61055b565b6040516101d7919061148c565b60405180910390f35b6101e8610572565b6040516101f5919061148c565b60405180910390f35b610206610585565b6040516102139190611359565b60405180910390f35b610236600480360381019061023191906111d6565b610594565b6040516102439190611374565b60405180910390f35b61026660048036038101906102619190611122565b610647565b6040516102739190611471565b60405180910390f35b610284610690565b005b61028e610718565b60405161029b9190611359565b60405180910390f35b6102ac610727565b6040516102b99190611359565b60405180910390f35b6102ca610750565b6040516102d7919061138f565b60405180910390f35b6102fa60048036038101906102f591906111d6565b6107e2565b6040516103079190611374565b60405180910390f35b61032a600480360381019061032591906111d6565b6108af565b6040516103379190611374565b60405180910390f35b6103486108cd565b604051610355919061138f565b60405180910390f35b61036661095b565b604051610373919061138f565b60405180910390f35b6103966004803603810190610391919061114b565b6109e9565b6040516103a39190611471565b60405180910390f35b6103c660048036038101906103c19190611122565b610a70565b005b6060600680546103d7906115a1565b80601f0160208091040260200160405190810160405280929190818152602001828054610403906115a1565b80156104505780601f1061042557610100808354040283529160200191610450565b820191906000526020600020905b81548152906001019060200180831161043357829003601f168201915b5050505050905090565b600061046e610467610b68565b8484610b70565b6001905092915050565b6000600354905090565b600061048f848484610d3b565b6105508461049b610b68565b61054b8560405180606001604052806028815260200161182560289139600260008b73ffffffffffffffffffffffffffffffffffffffff1673ffffffffffffffffffffffffffffffffffffffff1681526020019081526020016000206000610501610b68565b73ffffffffffffffffffffffffffffffffffffffff1673ffffffffffffffffffffffffffffffffffffffff16815260200190815260200160002054610fc99092919063ffffffff16565b610b70565b600190509392505050565b6000600460009054906101000a900460ff16905090565b600460009054906101000a900460ff1681565b600061058f610b68565b905090565b600061063d6105a1610b68565b8461063885600260006105b2610b68565b73ffffffffffffffffffffffffffffffffffffffff1673ffffffffffffffffffffffffffffffffffffffff16815260200190815260200160002060008973ffffffffffffffffffffffffffffffffffffffff1673ffffffffffffffffffffffffffffffffffffffff1681526020019081526020016000205461101e90919063ffffffff16565b610b70565b6001905092915050565b6000600160008373ffffffffffffffffffffffffffffffffffffffff1673ffffffffffffffffffffffffffffffffffffffff168152602001908152602001600020549050919050565b610698610b68565b73ffffffffffffffffffffffffffffffffffffffff166106b6610727565b73ffffffffffffffffffffffffffffffffffffffff161461070c576040517f08c379a000000000000000000000000000000000000000000000000000000000815260040161070390611411565b60405180910390fd5b6107166000611034565b565b6000610722610727565b905090565b60008060009054906101000a900473ffffffffffffffffffffffffffffffffffffffff16905090565b60606005805461075f906115a1565b80601f016020809104026020016040519081016040528092919081815260200182805461078b906115a1565b80156107d85780601f106107ad576101008083540402835291602001916107d8565b820191906000526020600020905b8154815290600101906020018083116107bb57829003601f168201915b5050505050905090565b60006108a56107ef610b68565b846108a0856040518060600160405280602581526020016118736025913960026000610819610b68565b73ffffffffffffffffffffffffffffffffffffffff1673ffffffffffffffffffffffffffffffffffffffff16815260200190815260200160002060008a73ffffffffffffffffffffffffffffffffffffffff1673ffffffffffffffffffffffffffffffffffffffff16815260200190815260200160002054610fc99092919063ffffffff16565b610b70565b6001905092915050565b60006108c36108bc610b68565b8484610d3b565b6001905092915050565b600580546108da906115a1565b80601f0160208091040260200160405190810160405280929190818152602001828054610906906115a1565b80156109535780601f1061092857610100808354040283529160200191610953565b820191906000526020600020905b81548152906001019060200180831161093657829003601f168201915b505050505081565b60068054610968906115a1565b80601f0160208091040260200160405190810160405280929190818152602001828054610994906115a1565b80156109e15780601f106109b6576101008083540402835291602001916109e1565b820191906000526020600020905b8154815290600101906020018083116109c457829003601f168201915b505050505081565b6000600260008473ffffffffffffffffffffffffffffffffffffffff1673ffffffffffffffffffffffffffffffffffffffff16815260200190815260200160002060008373ffffffffffffffffffffffffffffffffffffffff1673ffffffffffffffffffffffffffffffffffffffff16815260200190815260200160002054905092915050565b610a78610b68565b73ffffffffffffffffffffffffffffffffffffffff16610a96610727565b73ffffffffffffffffffffffffffffffffffffffff1614610aec576040517f08c379a0000000000000000000000000000000000000000000000000000000008152600401610ae390611411565b60405180910390fd5b600073ffffffffffffffffffffffffffffffffffffffff168173ffffffffffffffffffffffffffffffffffffffff161415610b5c576040517f08c379a0000000000000000000000000000000000000000000000000000000008152600401610b53906113f1565b60405180910390fd5b610b6581611034565b50565b600033905090565b600073ffffffffffffffffffffffffffffffffffffffff168373ffffffffffffffffffffffffffffffffffffffff161415610be0576040517f08c379a0000000000000000000000000000000000000000000000000000000008152600401610bd7906113d1565b60405180910390fd5b600073ffffffffffffffffffffffffffffffffffffffff168273ffffffffffffffffffffffffffffffffffffffff161415610c50576040517f08c379a0000000000000000000000000000000000000000000000000000000008152600401610c4790611451565b60405180910390fd5b80600260008573ffffffffffffffffffffffffffffffffffffffff1673ffffffffffffffffffffffffffffffffffffffff16815260200190815260200160002060008473ffffffffffffffffffffffffffffffffffffffff1673ffffffffffffffffffffffffffffffffffffffff168152602001908152602001600020819055508173ffffffffffffffffffffffffffffffffffffffff168373ffffffffffffffffffffffffffffffffffffffff167f8c5be1e5ebec7d5bd14f71427d1e84f3dd0314c0f7b2291e5b200ac8c7c3b92583604051610d2e9190611471565b60405180910390a3505050565b600073ffffffffffffffffffffffffffffffffffffffff168373ffffffffffffffffffffffffffffffffffffffff161415610dab576040517f08c379a0000000000000000000000000000000000000000000000000000000008152600401610da2906113b1565b60405180910390fd5b600073ffffffffffffffffffffffffffffffffffffffff168273ffffffffffffffffffffffffffffffffffffffff161415610e1b576040517f08c379a0000000000000000000000000000000000000000000000000000000008152600401610e1290611431565b60405180910390fd5b610e878160405180606001604052806026815260200161184d60269139600160008773ffffffffffffffffffffffffffffffffffffffff1673ffffffffffffffffffffffffffffffffffffffff16815260200190815260200160002054610fc99092919063ffffffff16565b600160008573ffffffffffffffffffffffffffffffffffffffff1673ffffffffffffffffffffffffffffffffffffffff16815260200190815260200160002081905550610f1c81600160008573ffffffffffffffffffffffffffffffffffffffff1673ffffffffffffffffffffffffffffffffffffffff1681526020019081526020016000205461101e90919063ffffffff16565b600160008473ffffffffffffffffffffffffffffffffffffffff1673ffffffffffffffffffffffffffffffffffffffff168152602001908152602001600020819055508173ffffffffffffffffffffffffffffffffffffffff168373ffffffffffffffffffffffffffffffffffffffff167fddf252ad1be2c89b69c2b068fc378daa952ba7f163c4a11628f55a4df523b3ef83604051610fbc9190611471565b60405180910390a3505050565b6000838311158290611011576040517f08c379a0000000000000000000000000000000000000000000000000000000008152600401611008919061138f565b60405180910390fd5b5082840390509392505050565b6000818361102c91906114c3565b905092915050565b60008060009054906101000a900473ffffffffffffffffffffffffffffffffffffffff169050816000806101000a81548173ffffffffffffffffffffffffffffffffffffffff021916908373ffffffffffffffffffffffffffffffffffffffff1602179055508173ffffffffffffffffffffffffffffffffffffffff168173ffffffffffffffffffffffffffffffffffffffff167f8be0079c531659141344cd1fd0a4f28419497f9722a3daafe3b4186f6b6457e060405160405180910390a35050565b600081359050611107816117f6565b92915050565b60008135905061111c8161180d565b92915050565b60006020828403121561113457600080fd5b6000611142848285016110f8565b91505092915050565b6000806040838503121561115e57600080fd5b600061116c858286016110f8565b925050602061117d858286016110f8565b9150509250929050565b60008060006060848603121561119c57600080fd5b60006111aa868287016110f8565b93505060206111bb868287016110f8565b92505060406111cc8682870161110d565b9150509250925092565b600080604083850312156111e957600080fd5b60006111f7858286016110f8565b92505060206112088582860161110d565b9150509250929050565b61121b81611519565b82525050565b61122a8161152b565b82525050565b600061123b826114a7565b61124581856114b2565b935061125581856020860161156e565b61125e81611631565b840191505092915050565b60006112766025836114b2565b915061128182611642565b604082019050919050565b60006112996024836114b2565b91506112a482611691565b604082019050919050565b60006112bc6026836114b2565b91506112c7826116e0565b604082019050919050565b60006112df6020836114b2565b91506112ea8261172f565b602082019050919050565b60006113026023836114b2565b915061130d82611758565b604082019050919050565b60006113256022836114b2565b9150611330826117a7565b604082019050919050565b61134481611557565b82525050565b61135381611561565b82525050565b600060208201905061136e6000830184611212565b92915050565b60006020820190506113896000830184611221565b92915050565b600060208201905081810360008301526113a98184611230565b905092915050565b600060208201905081810360008301526113ca81611269565b9050919050565b600060208201905081810360008301526113ea8161128c565b9050919050565b6000602082019050818103600083015261140a816112af565b9050919050565b6000602082019050818103600083015261142a816112d2565b9050919050565b6000602082019050818103600083015261144a816112f5565b9050919050565b6000602082019050818103600083015261146a81611318565b9050919050565b6000602082019050611486600083018461133b565b92915050565b60006020820190506114a1600083018461134a565b92915050565b600081519050919050565b600082825260208201905092915050565b60006114ce82611557565b91506114d983611557565b9250827fffffffffffffffffffffffffffffffffffffffffffffffffffffffffffffffff0382111561150e5761150d6115d3565b5b828201905092915050565b600061152482611537565b9050919050565b60008115159050919050565b600073ffffffffffffffffffffffffffffffffffffffff82169050919050565b6000819050919050565b600060ff82169050919050565b60005b8381101561158c578082015181840152602081019050611571565b8381111561159b576000848401525b50505050565b600060028204905060018216806115b957607f821691505b602082108114156115cd576115cc611602565b5b50919050565b7f4e487b7100000000000000000000000000000000000000000000000000000000600052601160045260246000fd5b7f4e487b7100000000000000000000000000000000000000000000000000000000600052602260045260246000fd5b6000601f19601f8301169050919050565b7f42455032303a207472616e736665722066726f6d20746865207a65726f20616460008201527f6472657373000000000000000000000000000000000000000000000000000000602082015250565b7f42455032303a20617070726f76652066726f6d20746865207a65726f2061646460008201527f7265737300000000000000000000000000000000000000000000000000000000602082015250565b7f4f776e61626c653a206e6577206f776e657220697320746865207a65726f206160008201527f6464726573730000000000000000000000000000000000000000000000000000602082015250565b7f4f776e61626c653a2063616c6c6572206973206e6f7420746865206f776e6572600082015250565b7f42455032303a207472616e7366657220746f20746865207a65726f206164647260008201527f6573730000000000000000000000000000000000000000000000000000000000602082015250565b7f42455032303a20617070726f766520746f20746865207a65726f20616464726560008201527f7373000000000000000000000000000000000000000000000000000000000000602082015250565b6117ff81611519565b811461180a57600080fd5b50565b61181681611557565b811461182157600080fd5b5056fe42455032303a207472616e7366657220616d6f756e74206578636565647320616c6c6f77616e636542455032303a207472616e7366657220616d6f756e7420657863656564732062616c616e636542455032303a2064656372656173656420616c6c6f77616e63652062656c6f77207a65726fa264697066735822122097091ae788a56dc82d431029a51c409f2c92abc4d8394c5902e1d7567e02ace464736f6c63430008040033",
  "immutableReferences": {},
  "source": "// SPDX-License-Identifier: MIT\r\npragma solidity ^0.8.4;\r\n\r\nimport \"@openzeppelin/contracts/access/Ownable.sol\";\r\nimport \"@openzeppelin/contracts/utils/Context.sol\";\r\nimport \"@openzeppelin/contracts/utils/math/SafeMath.sol\";\r\n\r\ninterface IBEP20 {\r\n    /**\r\n     * @dev Returns the amount of tokens in existence.\r\n     */\r\n    function totalSupply() external view returns (uint256);\r\n\r\n    /**\r\n     * @dev Returns the token decimals.\r\n     */\r\n    function decimals() external view returns (uint8);\r\n\r\n    /**\r\n     * @dev Returns the token symbol.\r\n     */\r\n    function symbol() external view returns (string memory);\r\n\r\n    /**\r\n     * @dev Returns the token name.\r\n     */\r\n    function name() external view returns (string memory);\r\n\r\n    /**\r\n     * @dev Returns the bep token owner.\r\n     */\r\n    function getOwner() external view returns (address);\r\n\r\n    /**\r\n     * @dev Returns the amount of tokens owned by `account`.\r\n     */\r\n    function balanceOf(address account) external view returns (uint256);\r\n\r\n    /**\r\n     * @dev Moves `amount` tokens from the caller's account to `recipient`.\r\n     *\r\n     * Returns a boolean value indicating whether the operation succeeded.\r\n     *\r\n     * Emits a {Transfer} event.\r\n     */\r\n    function transfer(address recipient, uint256 amount) external returns (bool);\r\n\r\n    /**\r\n     * @dev Returns the remaining number of tokens that `spender` will be\r\n     * allowed to spend on behalf of `owner` through {transferFrom}. This is\r\n     * zero by default.\r\n     *\r\n     * This value changes when {approve} or {transferFrom} are called.\r\n     */\r\n    function allowance(address _owner, address spender) external view returns (uint256);\r\n\r\n    /**\r\n     * @dev Sets `amount` as the allowance of `spender` over the caller's tokens.\r\n     *\r\n     * Returns a boolean value indicating whether the operation succeeded.\r\n     *\r\n     * IMPORTANT: Beware that changing an allowance with this method brings the risk\r\n     * that someone may use both the old and the new allowance by unfortunate\r\n     * transaction ordering. One possible solution to mitigate this race\r\n     * condition is to first reduce the spender's allowance to 0 and set the\r\n     * desired value afterwards:\r\n     * https://github.com/ethereum/EIPs/issues/20#issuecomment-263524729\r\n     *\r\n     * Emits an {Approval} event.\r\n     */\r\n    function approve(address spender, uint256 amount) external returns (bool);\r\n\r\n    /**\r\n     * @dev Moves `amount` tokens from `sender` to `recipient` using the\r\n     * allowance mechanism. `amount` is then deducted from the caller's\r\n     * allowance.\r\n     *\r\n     * Returns a boolean value indicating whether the operation succeeded.\r\n     *\r\n     * Emits a {Transfer} event.\r\n     */\r\n    function transferFrom(address sender, address recipient, uint256 amount) external returns (bool);\r\n\r\n    /**\r\n     * @dev Emitted when `value` tokens are moved from one account (`from`) to\r\n     * another (`to`).\r\n     *\r\n     * Note that `value` may be zero.\r\n     */\r\n    event Transfer(address indexed from, address indexed to, uint256 value);\r\n\r\n    /**\r\n     * @dev Emitted when the allowance of a `spender` for an `owner` is set by\r\n     * a call to {approve}. `value` is the new allowance.\r\n     */\r\n    event Approval(address indexed owner, address indexed spender, uint256 value);\r\n}\r\n\r\ncontract AmusementArcadeToken is Context, IBEP20, Ownable {\r\n  using SafeMath for uint256;\r\n\r\n  mapping (address => uint256) private _balances;\r\n\r\n  mapping (address => mapping (address => uint256)) private _allowances;\r\n\r\n  uint256 private _totalSupply;\r\n  uint8 public _decimals;\r\n  string public _symbol;\r\n  string public _name;\r\n\r\n  constructor() {\r\n    _name = \"Amusement Arcade Token\";\r\n    _symbol = \"AAT\";\r\n    _decimals = 18;\r\n    _totalSupply = 100000000*10**_decimals;\r\n    _balances[msg.sender] = _totalSupply;\r\n    emit Transfer(address(0), msg.sender, _totalSupply);\r\n  }\r\n\r\n  function getmsgsender() public view returns (address) {\r\n    return _msgSender();\r\n  }\r\n\r\n  /**\r\n   * @dev Returns the bep token owner.\r\n   */\r\n  function getOwner() public override view returns (address) {\r\n    return owner();\r\n  }\r\n\r\n  /**\r\n   * @dev Returns the token decimals.\r\n   */\r\n  function decimals() public override view returns (uint8) {\r\n    return _decimals;\r\n  }\r\n\r\n  /**\r\n   * @dev Returns the token symbol.\r\n   */\r\n  function symbol() public override view returns (string memory) {\r\n    return _symbol;\r\n  }\r\n\r\n  /**\r\n  * @dev Returns the token name.\r\n  */\r\n  function name() public override view returns (string memory) {\r\n    return _name;\r\n  }\r\n\r\n  /**\r\n   * @dev See {BEP20-totalSupply}.\r\n   */\r\n  function totalSupply() public override view returns (uint256) {\r\n    return _totalSupply;\r\n  }\r\n\r\n  /**\r\n   * @dev See {BEP20-balanceOf}.\r\n   */\r\n  function balanceOf(address account) public override view returns (uint256) {\r\n    return _balances[account];\r\n  }\r\n\r\n  /**\r\n   * @dev See {BEP20-transfer}.\r\n   *\r\n   * Requirements:\r\n   *\r\n   * - `recipient` cannot be the zero address.\r\n   * - the caller must have a balance of at least `amount`.\r\n   */\r\n  function transfer(address recipient, uint256 amount) public override returns (bool) {\r\n    _transfer(_msgSender(), recipient, amount);\r\n    return true;\r\n  }\r\n\r\n  /**\r\n   * @dev See {BEP20-allowance}.\r\n   */\r\n  function allowance(address owner, address spender) public override view returns (uint256) {\r\n    return _allowances[owner][spender];\r\n  }\r\n\r\n  /**\r\n   * @dev See {BEP20-approve}.\r\n   *\r\n   * Requirements:\r\n   *\r\n   * - `spender` cannot be the zero address.\r\n   */\r\n  function approve(address spender, uint256 amount) public override returns (bool) {\r\n    _approve(_msgSender(), spender, amount);\r\n    return true;\r\n  }\r\n\r\n  /**\r\n   * @dev See {BEP20-transferFrom}.\r\n   *\r\n   * Emits an {Approval} event indicating the updated allowance. This is not\r\n   * required by the EIP. See the note at the beginning of {BEP20};\r\n   *\r\n   * Requirements:\r\n   * - `sender` and `recipient` cannot be the zero address.\r\n   * - `sender` must have a balance of at least `amount`.\r\n   * - the caller must have allowance for `sender`'s tokens of at least\r\n   * `amount`.\r\n   */\r\n  function transferFrom(address sender, address recipient, uint256 amount) public override returns (bool) {\r\n    _transfer(sender, recipient, amount);\r\n    _approve(sender, _msgSender(), _allowances[sender][_msgSender()].sub(amount, \"BEP20: transfer amount exceeds allowance\"));\r\n    return true;\r\n  }\r\n\r\n  /**\r\n   * @dev Atomically increases the allowance granted to `spender` by the caller.\r\n   *\r\n   * This is an alternative to {approve} that can be used as a mitigation for\r\n   * problems described in {BEP20-approve}.\r\n   *\r\n   * Emits an {Approval} event indicating the updated allowance.\r\n   *\r\n   * Requirements:\r\n   *\r\n   * - `spender` cannot be the zero address.\r\n   */\r\n  function increaseAllowance(address spender, uint256 addedValue) public returns (bool) {\r\n    _approve(_msgSender(), spender, _allowances[_msgSender()][spender].add(addedValue));\r\n    return true;\r\n  }\r\n\r\n  /**\r\n   * @dev Atomically decreases the allowance granted to `spender` by the caller.\r\n   *\r\n   * This is an alternative to {approve} that can be used as a mitigation for\r\n   * problems described in {BEP20-approve}.\r\n   *\r\n   * Emits an {Approval} event indicating the updated allowance.\r\n   *\r\n   * Requirements:\r\n   *\r\n   * - `spender` cannot be the zero address.\r\n   * - `spender` must have allowance for the caller of at least\r\n   * `subtractedValue`.\r\n   */\r\n  function decreaseAllowance(address spender, uint256 subtractedValue) public returns (bool) {\r\n    _approve(_msgSender(), spender, _allowances[_msgSender()][spender].sub(subtractedValue, \"BEP20: decreased allowance below zero\"));\r\n    return true;\r\n  }\r\n\r\n  /**\r\n   * @dev Moves tokens `amount` from `sender` to `recipient`.\r\n   *\r\n   * This is internal function is equivalent to {transfer}, and can be used to\r\n   * e.g. implement automatic token fees, slashing mechanisms, etc.\r\n   *\r\n   * Emits a {Transfer} event.\r\n   *\r\n   * Requirements:\r\n   *\r\n   * - `sender` cannot be the zero address.\r\n   * - `recipient` cannot be the zero address.\r\n   * - `sender` must have a balance of at least `amount`.\r\n   */\r\n  function _transfer(address sender, address recipient, uint256 amount) internal {\r\n    require(sender != address(0), \"BEP20: transfer from the zero address\");\r\n    require(recipient != address(0), \"BEP20: transfer to the zero address\");\r\n\r\n    _balances[sender] = _balances[sender].sub(amount, \"BEP20: transfer amount exceeds balance\");\r\n    _balances[recipient] = _balances[recipient].add(amount);\r\n    emit Transfer(sender, recipient, amount);\r\n  }\r\n\r\n  /** @dev Creates `amount` tokens and assigns them to `account`, increasing\r\n   * the total supply.\r\n   *\r\n   * Emits a {Transfer} event with `from` set to the zero address.\r\n   *\r\n   * Requirements\r\n   *\r\n   * - `to` cannot be the zero address.\r\n   */\r\n  function _mint(address account, uint256 amount) internal {\r\n    require(account != address(0), \"BEP20: mint to the zero address\");\r\n\r\n    _totalSupply = _totalSupply.add(amount);\r\n    _balances[account] = _balances[account].add(amount);\r\n    emit Transfer(address(0), account, amount);\r\n  }\r\n\r\n  /**\r\n   * @dev Destroys `amount` tokens from `account`, reducing the\r\n   * total supply.\r\n   *\r\n   * Emits a {Transfer} event with `to` set to the zero address.\r\n   *\r\n   * Requirements\r\n   *\r\n   * - `account` cannot be the zero address.\r\n   * - `account` must have at least `amount` tokens.\r\n   */\r\n  function _burn(address account, uint256 amount) internal {\r\n    require(account != address(0), \"BEP20: burn from the zero address\");\r\n\r\n    _balances[account] = _balances[account].sub(amount, \"BEP20: burn amount exceeds balance\");\r\n    _totalSupply = _totalSupply.sub(amount);\r\n    emit Transfer(account, address(0), amount);\r\n  }\r\n\r\n  /**\r\n   * @dev Sets `amount` as the allowance of `spender` over the `owner`s tokens.\r\n   *\r\n   * This is internal function is equivalent to `approve`, and can be used to\r\n   * e.g. set automatic allowances for certain subsystems, etc.\r\n   *\r\n   * Emits an {Approval} event.\r\n   *\r\n   * Requirements:\r\n   *\r\n   * - `owner` cannot be the zero address.\r\n   * - `spender` cannot be the zero address.\r\n   */\r\n  function _approve(address owner, address spender, uint256 amount) internal {\r\n    require(owner != address(0), \"BEP20: approve from the zero address\");\r\n    require(spender != address(0), \"BEP20: approve to the zero address\");\r\n\r\n    _allowances[owner][spender] = amount;\r\n    emit Approval(owner, spender, amount);\r\n  }\r\n\r\n  /**\r\n   * @dev Destroys `amount` tokens from `account`.`amount` is then deducted\r\n   * from the caller's allowance.\r\n   *\r\n   * See {_burn} and {_approve}.\r\n   */\r\n  function _burnFrom(address account, uint256 amount) internal {\r\n    _burn(account, amount);\r\n    _approve(account, _msgSender(), _allowances[account][_msgSender()].sub(amount, \"BEP20: burn amount exceeds allowance\"));\r\n  }\r\n}",
  "sourcePath": "C:\\Users\\KGA_27\\Desktop\\play-to-earn\\contracts\\AmusementArcadeToken.sol",
  "compiler": {
    "name": "solc",
    "version": "0.8.4+commit.c7e474f2.Emscripten.clang"
  },
  "schemaVersion": "3.4.6",
  "updatedAt": "2022-04-26T00:30:42.642Z",
  "networkType": "ethereum",
  "devdoc": {
    "kind": "dev",
    "methods": {
      "allowance(address,address)": {
        "details": "See {BEP20-allowance}."
      },
      "approve(address,uint256)": {
        "details": "See {BEP20-approve}. Requirements: - `spender` cannot be the zero address."
      },
      "balanceOf(address)": {
        "details": "See {BEP20-balanceOf}."
      },
      "decimals()": {
        "details": "Returns the token decimals."
      },
      "decreaseAllowance(address,uint256)": {
        "details": "Atomically decreases the allowance granted to `spender` by the caller. This is an alternative to {approve} that can be used as a mitigation for problems described in {BEP20-approve}. Emits an {Approval} event indicating the updated allowance. Requirements: - `spender` cannot be the zero address. - `spender` must have allowance for the caller of at least `subtractedValue`."
      },
      "getOwner()": {
        "details": "Returns the bep token owner."
      },
      "increaseAllowance(address,uint256)": {
        "details": "Atomically increases the allowance granted to `spender` by the caller. This is an alternative to {approve} that can be used as a mitigation for problems described in {BEP20-approve}. Emits an {Approval} event indicating the updated allowance. Requirements: - `spender` cannot be the zero address."
      },
      "name()": {
        "details": "Returns the token name."
      },
      "owner()": {
        "details": "Returns the address of the current owner."
      },
      "renounceOwnership()": {
        "details": "Leaves the contract without owner. It will not be possible to call `onlyOwner` functions anymore. Can only be called by the current owner. NOTE: Renouncing ownership will leave the contract without an owner, thereby removing any functionality that is only available to the owner."
      },
      "symbol()": {
        "details": "Returns the token symbol."
      },
      "totalSupply()": {
        "details": "See {BEP20-totalSupply}."
      },
      "transfer(address,uint256)": {
        "details": "See {BEP20-transfer}. Requirements: - `recipient` cannot be the zero address. - the caller must have a balance of at least `amount`."
      },
      "transferFrom(address,address,uint256)": {
        "details": "See {BEP20-transferFrom}. Emits an {Approval} event indicating the updated allowance. This is not required by the EIP. See the note at the beginning of {BEP20}; Requirements: - `sender` and `recipient` cannot be the zero address. - `sender` must have a balance of at least `amount`. - the caller must have allowance for `sender`'s tokens of at least `amount`."
      },
      "transferOwnership(address)": {
        "details": "Transfers ownership of the contract to a new account (`newOwner`). Can only be called by the current owner."
      }
    },
    "version": 1
  },
  "userdoc": {
    "kind": "user",
    "methods": {},
    "version": 1
  }
}