{
  "contractName": "CreateNFT",
  "abi": [
    {
      "inputs": [],
      "stateMutability": "nonpayable",
      "type": "constructor"
    },
    {
      "anonymous": false,
      "inputs": [
        {
          "indexed": true,
          "internalType": "address",
          "name": "owner",
          "type": "address"
        },
        {
          "indexed": true,
          "internalType": "address",
          "name": "approved",
          "type": "address"
        },
        {
          "indexed": true,
          "internalType": "uint256",
          "name": "tokenId",
          "type": "uint256"
        }
      ],
      "name": "Approval",
      "type": "event"
    },
    {
      "anonymous": false,
      "inputs": [
        {
          "indexed": true,
          "internalType": "address",
          "name": "owner",
          "type": "address"
        },
        {
          "indexed": true,
          "internalType": "address",
          "name": "operator",
          "type": "address"
        },
        {
          "indexed": false,
          "internalType": "bool",
          "name": "approved",
          "type": "bool"
        }
      ],
      "name": "ApprovalForAll",
      "type": "event"
    },
    {
      "anonymous": false,
      "inputs": [
        {
          "indexed": true,
          "internalType": "uint256",
          "name": "tokenId",
          "type": "uint256"
        },
        {
          "indexed": false,
          "internalType": "address",
          "name": "owner",
          "type": "address"
        },
        {
          "indexed": false,
          "internalType": "uint256",
          "name": "price",
          "type": "uint256"
        },
        {
          "indexed": false,
          "internalType": "uint256",
          "name": "rare",
          "type": "uint256"
        },
        {
          "indexed": false,
          "internalType": "uint256",
          "name": "star",
          "type": "uint256"
        },
        {
          "indexed": false,
          "internalType": "bool",
          "name": "getDefault",
          "type": "bool"
        },
        {
          "indexed": false,
          "internalType": "bool",
          "name": "sell",
          "type": "bool"
        }
      ],
      "name": "NFTItemCreated",
      "type": "event"
    },
    {
      "anonymous": false,
      "inputs": [
        {
          "indexed": true,
          "internalType": "address",
          "name": "previousOwner",
          "type": "address"
        },
        {
          "indexed": true,
          "internalType": "address",
          "name": "newOwner",
          "type": "address"
        }
      ],
      "name": "OwnershipTransferred",
      "type": "event"
    },
    {
      "anonymous": false,
      "inputs": [
        {
          "indexed": true,
          "internalType": "address",
          "name": "from",
          "type": "address"
        },
        {
          "indexed": true,
          "internalType": "address",
          "name": "to",
          "type": "address"
        },
        {
          "indexed": true,
          "internalType": "uint256",
          "name": "tokenId",
          "type": "uint256"
        }
      ],
      "name": "Transfer",
      "type": "event"
    },
    {
      "inputs": [
        {
          "internalType": "address",
          "name": "to",
          "type": "address"
        },
        {
          "internalType": "uint256",
          "name": "tokenId",
          "type": "uint256"
        }
      ],
      "name": "approve",
      "outputs": [],
      "stateMutability": "nonpayable",
      "type": "function"
    },
    {
      "inputs": [
        {
          "internalType": "address",
          "name": "owner",
          "type": "address"
        }
      ],
      "name": "balanceOf",
      "outputs": [
        {
          "internalType": "uint256",
          "name": "",
          "type": "uint256"
        }
      ],
      "stateMutability": "view",
      "type": "function",
      "constant": true
    },
    {
      "inputs": [
        {
          "internalType": "uint256",
          "name": "tokenId",
          "type": "uint256"
        }
      ],
      "name": "getApproved",
      "outputs": [
        {
          "internalType": "address",
          "name": "",
          "type": "address"
        }
      ],
      "stateMutability": "view",
      "type": "function",
      "constant": true
    },
    {
      "inputs": [
        {
          "internalType": "uint256",
          "name": "",
          "type": "uint256"
        }
      ],
      "name": "idToNFTItem",
      "outputs": [
        {
          "internalType": "uint256",
          "name": "tokenId",
          "type": "uint256"
        },
        {
          "internalType": "address payable",
          "name": "owner",
          "type": "address"
        },
        {
          "internalType": "uint256",
          "name": "price",
          "type": "uint256"
        },
        {
          "internalType": "uint256",
          "name": "rare",
          "type": "uint256"
        },
        {
          "internalType": "uint256",
          "name": "star",
          "type": "uint256"
        },
        {
          "internalType": "bool",
          "name": "getDefault",
          "type": "bool"
        },
        {
          "internalType": "bool",
          "name": "sell",
          "type": "bool"
        }
      ],
      "stateMutability": "view",
      "type": "function",
      "constant": true
    },
    {
      "inputs": [
        {
          "internalType": "address",
          "name": "owner",
          "type": "address"
        },
        {
          "internalType": "address",
          "name": "operator",
          "type": "address"
        }
      ],
      "name": "isApprovedForAll",
      "outputs": [
        {
          "internalType": "bool",
          "name": "",
          "type": "bool"
        }
      ],
      "stateMutability": "view",
      "type": "function",
      "constant": true
    },
    {
      "inputs": [],
      "name": "name",
      "outputs": [
        {
          "internalType": "string",
          "name": "",
          "type": "string"
        }
      ],
      "stateMutability": "view",
      "type": "function",
      "constant": true
    },
    {
      "inputs": [],
      "name": "owner",
      "outputs": [
        {
          "internalType": "address",
          "name": "",
          "type": "address"
        }
      ],
      "stateMutability": "view",
      "type": "function",
      "constant": true
    },
    {
      "inputs": [
        {
          "internalType": "uint256",
          "name": "tokenId",
          "type": "uint256"
        }
      ],
      "name": "ownerOf",
      "outputs": [
        {
          "internalType": "address",
          "name": "",
          "type": "address"
        }
      ],
      "stateMutability": "view",
      "type": "function",
      "constant": true
    },
    {
      "inputs": [],
      "name": "renounceOwnership",
      "outputs": [],
      "stateMutability": "nonpayable",
      "type": "function"
    },
    {
      "inputs": [
        {
          "internalType": "address",
          "name": "from",
          "type": "address"
        },
        {
          "internalType": "address",
          "name": "to",
          "type": "address"
        },
        {
          "internalType": "uint256",
          "name": "tokenId",
          "type": "uint256"
        }
      ],
      "name": "safeTransferFrom",
      "outputs": [],
      "stateMutability": "nonpayable",
      "type": "function"
    },
    {
      "inputs": [
        {
          "internalType": "address",
          "name": "from",
          "type": "address"
        },
        {
          "internalType": "address",
          "name": "to",
          "type": "address"
        },
        {
          "internalType": "uint256",
          "name": "tokenId",
          "type": "uint256"
        },
        {
          "internalType": "bytes",
          "name": "_data",
          "type": "bytes"
        }
      ],
      "name": "safeTransferFrom",
      "outputs": [],
      "stateMutability": "nonpayable",
      "type": "function"
    },
    {
      "inputs": [
        {
          "internalType": "address",
          "name": "operator",
          "type": "address"
        },
        {
          "internalType": "bool",
          "name": "approved",
          "type": "bool"
        }
      ],
      "name": "setApprovalForAll",
      "outputs": [],
      "stateMutability": "nonpayable",
      "type": "function"
    },
    {
      "inputs": [
        {
          "internalType": "bytes4",
          "name": "interfaceId",
          "type": "bytes4"
        }
      ],
      "name": "supportsInterface",
      "outputs": [
        {
          "internalType": "bool",
          "name": "",
          "type": "bool"
        }
      ],
      "stateMutability": "view",
      "type": "function",
      "constant": true
    },
    {
      "inputs": [],
      "name": "symbol",
      "outputs": [
        {
          "internalType": "string",
          "name": "",
          "type": "string"
        }
      ],
      "stateMutability": "view",
      "type": "function",
      "constant": true
    },
    {
      "inputs": [
        {
          "internalType": "uint256",
          "name": "tokenId",
          "type": "uint256"
        }
      ],
      "name": "tokenURI",
      "outputs": [
        {
          "internalType": "string",
          "name": "",
          "type": "string"
        }
      ],
      "stateMutability": "view",
      "type": "function",
      "constant": true
    },
    {
      "inputs": [
        {
          "internalType": "address",
          "name": "from",
          "type": "address"
        },
        {
          "internalType": "address",
          "name": "to",
          "type": "address"
        },
        {
          "internalType": "uint256",
          "name": "tokenId",
          "type": "uint256"
        }
      ],
      "name": "transferFrom",
      "outputs": [],
      "stateMutability": "nonpayable",
      "type": "function"
    },
    {
      "inputs": [
        {
          "internalType": "address",
          "name": "newOwner",
          "type": "address"
        }
      ],
      "name": "transferOwnership",
      "outputs": [],
      "stateMutability": "nonpayable",
      "type": "function"
    },
    {
      "inputs": [
        {
          "internalType": "string",
          "name": "tokenURI",
          "type": "string"
        },
        {
          "internalType": "uint256",
          "name": "price",
          "type": "uint256"
        }
      ],
      "name": "CreateNFTinContract",
      "outputs": [],
      "stateMutability": "nonpayable",
      "type": "function"
    },
    {
      "inputs": [
        {
          "internalType": "uint256",
          "name": "_tokenId",
          "type": "uint256"
        },
        {
          "internalType": "address",
          "name": "_msgsender",
          "type": "address"
        }
      ],
      "name": "changeOption",
      "outputs": [
        {
          "internalType": "bool",
          "name": "",
          "type": "bool"
        }
      ],
      "stateMutability": "nonpayable",
      "type": "function"
    },
    {
      "inputs": [
        {
          "internalType": "uint256",
          "name": "tokenId",
          "type": "uint256"
        }
      ],
      "name": "getNFTItem",
      "outputs": [],
      "stateMutability": "payable",
      "type": "function",
      "payable": true
    },
    {
      "inputs": [
        {
          "internalType": "uint256",
          "name": "tokenId",
          "type": "uint256"
        },
        {
          "internalType": "uint256",
          "name": "price",
          "type": "uint256"
        }
      ],
      "name": "sellMyNFTItem",
      "outputs": [],
      "stateMutability": "nonpayable",
      "type": "function"
    },
    {
      "inputs": [],
      "name": "MyNFTlists",
      "outputs": [
        {
          "components": [
            {
              "internalType": "uint256",
              "name": "tokenId",
              "type": "uint256"
            },
            {
              "internalType": "address payable",
              "name": "owner",
              "type": "address"
            },
            {
              "internalType": "uint256",
              "name": "price",
              "type": "uint256"
            },
            {
              "internalType": "uint256",
              "name": "rare",
              "type": "uint256"
            },
            {
              "internalType": "uint256",
              "name": "star",
              "type": "uint256"
            },
            {
              "internalType": "bool",
              "name": "getDefault",
              "type": "bool"
            },
            {
              "internalType": "bool",
              "name": "sell",
              "type": "bool"
            }
          ],
          "internalType": "struct CreateNFT.NFTItem[]",
          "name": "",
          "type": "tuple[]"
        }
      ],
      "stateMutability": "view",
      "type": "function",
      "constant": true
    },
    {
      "inputs": [
        {
          "internalType": "uint256",
          "name": "_tokenId",
          "type": "uint256"
        }
      ],
      "name": "changeSellState",
      "outputs": [
        {
          "internalType": "bool",
          "name": "",
          "type": "bool"
        }
      ],
      "stateMutability": "nonpayable",
      "type": "function"
    },
    {
      "inputs": [],
      "name": "OwnerSelllists",
      "outputs": [
        {
          "components": [
            {
              "internalType": "uint256",
              "name": "tokenId",
              "type": "uint256"
            },
            {
              "internalType": "address payable",
              "name": "owner",
              "type": "address"
            },
            {
              "internalType": "uint256",
              "name": "price",
              "type": "uint256"
            },
            {
              "internalType": "uint256",
              "name": "rare",
              "type": "uint256"
            },
            {
              "internalType": "uint256",
              "name": "star",
              "type": "uint256"
            },
            {
              "internalType": "bool",
              "name": "getDefault",
              "type": "bool"
            },
            {
              "internalType": "bool",
              "name": "sell",
              "type": "bool"
            }
          ],
          "internalType": "struct CreateNFT.NFTItem[]",
          "name": "",
          "type": "tuple[]"
        }
      ],
      "stateMutability": "view",
      "type": "function",
      "constant": true
    },
    {
      "inputs": [],
      "name": "Selllists",
      "outputs": [
        {
          "components": [
            {
              "internalType": "uint256",
              "name": "tokenId",
              "type": "uint256"
            },
            {
              "internalType": "address payable",
              "name": "owner",
              "type": "address"
            },
            {
              "internalType": "uint256",
              "name": "price",
              "type": "uint256"
            },
            {
              "internalType": "uint256",
              "name": "rare",
              "type": "uint256"
            },
            {
              "internalType": "uint256",
              "name": "star",
              "type": "uint256"
            },
            {
              "internalType": "bool",
              "name": "getDefault",
              "type": "bool"
            },
            {
              "internalType": "bool",
              "name": "sell",
              "type": "bool"
            }
          ],
          "internalType": "struct CreateNFT.NFTItem[]",
          "name": "",
          "type": "tuple[]"
        }
      ],
      "stateMutability": "view",
      "type": "function",
      "constant": true
    },
    {
      "inputs": [],
      "name": "totalNFTs",
      "outputs": [
        {
          "internalType": "uint256",
          "name": "",
          "type": "uint256"
        }
      ],
      "stateMutability": "view",
      "type": "function",
      "constant": true
    }
  ],
  "bytecode": "0x60806040523480156200001157600080fd5b506040518060400160405280600981526020017f4372656174654e465400000000000000000000000000000000000000000000008152506040518060400160405280600381526020017f434e540000000000000000000000000000000000000000000000000000000000815250816000908051906020019062000096929190620001a6565b508060019080519060200190620000af929190620001a6565b505050620000d2620000c6620000d860201b60201c565b620000e060201b60201c565b620002bb565b600033905090565b6000600760009054906101000a900473ffffffffffffffffffffffffffffffffffffffff16905081600760006101000a81548173ffffffffffffffffffffffffffffffffffffffff021916908373ffffffffffffffffffffffffffffffffffffffff1602179055508173ffffffffffffffffffffffffffffffffffffffff168173ffffffffffffffffffffffffffffffffffffffff167f8be0079c531659141344cd1fd0a4f28419497f9722a3daafe3b4186f6b6457e060405160405180910390a35050565b828054620001b49062000256565b90600052602060002090601f016020900481019282620001d8576000855562000224565b82601f10620001f357805160ff191683800117855562000224565b8280016001018555821562000224579182015b828111156200022357825182559160200191906001019062000206565b5b50905062000233919062000237565b5090565b5b808211156200025257600081600090555060010162000238565b5090565b600060028204905060018216806200026f57607f821691505b602082108114156200028657620002856200028c565b5b50919050565b7f4e487b7100000000000000000000000000000000000000000000000000000000600052602260045260246000fd5b61490480620002cb6000396000f3fe6080604052600436106101815760003560e01c80636f64dc9d116100d1578063a22cb4651161008a578063e397833211610064578063e39783321461058b578063e6023baf146105b6578063e985e9c5146105f3578063f2fde38b1461063057610181565b8063a22cb465146104fc578063b88d4fde14610525578063c87b56dd1461054e57610181565b80636f64dc9d146103fe57806370a0823114610427578063715018a6146104645780637196f2231461047b5780638da5cb5b146104a657806395d89b41146104d157610181565b806323b872dd1161013e57806342842e0e1161011857806342842e0e1461033f5780636352211e146103685780636a3ceff9146103a55780636cdac85f146103c157610181565b806323b872dd146102aa5780632cf2de01146102d35780632f9d5c5e146102fc57610181565b806301ffc9a71461018657806306fdde03146101c3578063081812fc146101ee578063095ea7b31461022b5780630d0e96da1461025457806321cc7aee1461027f575b600080fd5b34801561019257600080fd5b506101ad60048036038101906101a89190613492565b610659565b6040516101ba9190613bf8565b60405180910390f35b3480156101cf57600080fd5b506101d861073b565b6040516101e59190613c13565b60405180910390f35b3480156101fa57600080fd5b5061021560048036038101906102109190613538565b6107cd565b6040516102229190613b0e565b60405180910390f35b34801561023757600080fd5b50610252600480360381019061024d9190613456565b610852565b005b34801561026057600080fd5b5061026961096a565b6040516102769190613e75565b60405180910390f35b34801561028b57600080fd5b5061029461097b565b6040516102a19190613bd6565b60405180910390f35b3480156102b657600080fd5b506102d160048036038101906102cc9190613350565b610c1a565b005b3480156102df57600080fd5b506102fa60048036038101906102f5919061359d565b610c7a565b005b34801561030857600080fd5b50610323600480360381019061031e9190613538565b610dec565b6040516103369796959493929190613e90565b60405180910390f35b34801561034b57600080fd5b5061036660048036038101906103619190613350565b610e68565b005b34801561037457600080fd5b5061038f600480360381019061038a9190613538565b610e88565b60405161039c9190613b0e565b60405180910390f35b6103bf60048036038101906103ba9190613538565b610f3a565b005b3480156103cd57600080fd5b506103e860048036038101906103e39190613538565b61114c565b6040516103f59190613bf8565b60405180910390f35b34801561040a57600080fd5b50610425600480360381019061042091906134e4565b611227565b005b34801561043357600080fd5b5061044e600480360381019061044991906132eb565b611389565b60405161045b9190613e75565b60405180910390f35b34801561047057600080fd5b50610479611441565b005b34801561048757600080fd5b506104906114c9565b60405161049d9190613bd6565b60405180910390f35b3480156104b257600080fd5b506104bb6117dc565b6040516104c89190613b0e565b60405180910390f35b3480156104dd57600080fd5b506104e6611806565b6040516104f39190613c13565b60405180910390f35b34801561050857600080fd5b50610523600480360381019061051e919061341a565b611898565b005b34801561053157600080fd5b5061054c6004803603810190610547919061339f565b6118ae565b005b34801561055a57600080fd5b5061057560048036038101906105709190613538565b611910565b6040516105829190613c13565b60405180910390f35b34801561059757600080fd5b506105a0611a62565b6040516105ad9190613bd6565b60405180910390f35b3480156105c257600080fd5b506105dd60048036038101906105d89190613561565b611d83565b6040516105ea9190613bf8565b60405180910390f35b3480156105ff57600080fd5b5061061a60048036038101906106159190613314565b611e51565b6040516106279190613bf8565b60405180910390f35b34801561063c57600080fd5b50610657600480360381019061065291906132eb565b611ee5565b005b60007f80ac58cd000000000000000000000000000000000000000000000000000000007bffffffffffffffffffffffffffffffffffffffffffffffffffffffff1916827bffffffffffffffffffffffffffffffffffffffffffffffffffffffff1916148061072457507f5b5e139f000000000000000000000000000000000000000000000000000000007bffffffffffffffffffffffffffffffffffffffffffffffffffffffff1916827bffffffffffffffffffffffffffffffffffffffffffffffffffffffff1916145b80610734575061073382611fdd565b5b9050919050565b60606000805461074a90614197565b80601f016020809104026020016040519081016040528092919081815260200182805461077690614197565b80156107c35780601f10610798576101008083540402835291602001916107c3565b820191906000526020600020905b8154815290600101906020018083116107a657829003601f168201915b5050505050905090565b60006107d882612047565b610817576040517f08c379a000000000000000000000000000000000000000000000000000000000815260040161080e90613dd5565b60405180910390fd5b6004600083815260200190815260200160002060009054906101000a900473ffffffffffffffffffffffffffffffffffffffff169050919050565b600061085d82610e88565b90508073ffffffffffffffffffffffffffffffffffffffff168373ffffffffffffffffffffffffffffffffffffffff1614156108ce576040517f08c379a00000000000000000000000000000000000000000000000000000000081526004016108c590613e35565b60405180910390fd5b8073ffffffffffffffffffffffffffffffffffffffff166108ed6120b3565b73ffffffffffffffffffffffffffffffffffffffff16148061091c575061091b816109166120b3565b611e51565b5b61095b576040517f08c379a000000000000000000000000000000000000000000000000000000000815260040161095290613d15565b60405180910390fd5b61096583836120bb565b505050565b60006109766008612174565b905090565b606060006109896008612174565b905060008060005b838110156109f85760011515600960006001846109ae9190614002565b815260200190815260200160002060050160019054906101000a900460ff16151514156109e5576001836109e29190614002565b92505b80806109f0906141fa565b915050610991565b5060008267ffffffffffffffff811115610a3b577f4e487b7100000000000000000000000000000000000000000000000000000000600052604160045260246000fd5b604051908082528060200260200182016040528015610a7457816020015b610a616130b8565b815260200190600190039081610a595790505b50905060005b84811015610c0f576001151560096000600184610a979190614002565b815260200190815260200160002060050160019054906101000a900460ff1615151415610bfc576000600182610acd9190614002565b90506000600960008381526020019081526020016000209050806040518060e0016040529081600082015481526020016001820160009054906101000a900473ffffffffffffffffffffffffffffffffffffffff1673ffffffffffffffffffffffffffffffffffffffff1673ffffffffffffffffffffffffffffffffffffffff1681526020016002820154815260200160038201548152602001600482015481526020016005820160009054906101000a900460ff161515151581526020016005820160019054906101000a900460ff161515151581525050848681518110610bdf577f4e487b7100000000000000000000000000000000000000000000000000000000600052603260045260246000fd5b6020026020010181905250600185610bf79190614002565b945050505b8080610c07906141fa565b915050610a7a565b508094505050505090565b610c2b610c256120b3565b82612182565b610c6a576040517f08c379a0000000000000000000000000000000000000000000000000000000008152600401610c6190613e55565b60405180910390fd5b610c75838383612260565b505050565b60011515610c8f610c896117dc565b33611e51565b15151480610ccf5750610ca06117dc565b73ffffffffffffffffffffffffffffffffffffffff163373ffffffffffffffffffffffffffffffffffffffff16145b610cd857600080fd5b3373ffffffffffffffffffffffffffffffffffffffff16610cf8836107cd565b73ffffffffffffffffffffffffffffffffffffffff1614610d1857600080fd5b600115156009600084815260200190815260200160002060050160009054906101000a900460ff1615151415610d4d57600080fd5b600015156009600084815260200190815260200160002060050160019054906101000a900460ff1615151415610dcc5780600960008481526020019081526020016000206002018190555060016009600084815260200190815260200160002060050160016101000a81548160ff021916908315150217905550610de8565b8060096000848152602001908152602001600020600201819055505b5050565b60096020528060005260406000206000915090508060000154908060010160009054906101000a900473ffffffffffffffffffffffffffffffffffffffff16908060020154908060030154908060040154908060050160009054906101000a900460ff16908060050160019054906101000a900460ff16905087565b610e83838383604051806020016040528060008152506118ae565b505050565b6000806002600084815260200190815260200160002060009054906101000a900473ffffffffffffffffffffffffffffffffffffffff169050600073ffffffffffffffffffffffffffffffffffffffff168173ffffffffffffffffffffffffffffffffffffffff161415610f31576040517f08c379a0000000000000000000000000000000000000000000000000000000008152600401610f2890613d55565b60405180910390fd5b80915050919050565b60011515610f4f610f496117dc565b33611e51565b151514610f5b57600080fd5b3373ffffffffffffffffffffffffffffffffffffffff16610f7b826107cd565b73ffffffffffffffffffffffffffffffffffffffff161415610f9c57600080fd5b600115156009600083815260200190815260200160002060050160009054906101000a900460ff1615151415610fd157600080fd5b60006009600083815260200190815260200160002060020154905060006009600084815260200190815260200160002060010160009054906101000a900473ffffffffffffffffffffffffffffffffffffffff16905081341461103357600080fd5b600115156009600085815260200190815260200160002060050160019054906101000a900460ff1615151461106757600080fd5b611072813385612260565b8073ffffffffffffffffffffffffffffffffffffffff166108fc349081150290604051600060405180830381858888f193505050501580156110b8573d6000803e3d6000fd5b506110c333846120bb565b336009600085815260200190815260200160002060010160006101000a81548173ffffffffffffffffffffffffffffffffffffffff021916908373ffffffffffffffffffffffffffffffffffffffff16021790555060006009600085815260200190815260200160002060050160016101000a81548160ff021916908315150217905550505050565b60003373ffffffffffffffffffffffffffffffffffffffff166009600084815260200190815260200160002060010160009054906101000a900473ffffffffffffffffffffffffffffffffffffffff1673ffffffffffffffffffffffffffffffffffffffff161480156111e65750600115156009600084815260200190815260200160002060050160019054906101000a900460ff161515145b6111ef57600080fd5b60006009600084815260200190815260200160002060050160016101000a81548160ff02191690831515021790555060019050919050565b61123160086124c7565b600061123d6008612174565b90503373ffffffffffffffffffffffffffffffffffffffff1661125e6117dc565b73ffffffffffffffffffffffffffffffffffffffff1614806112f057506001151561129061128a6117dc565b33611e51565b15151480156112ef575060011515600a60003373ffffffffffffffffffffffffffffffffffffffff1673ffffffffffffffffffffffffffffffffffffffff16815260200190815260200160002060009054906101000a900460ff161515145b5b1561130957611304818484600060016124dd565b611384565b61131c6113146117dc565b336001612659565b6001600a60003373ffffffffffffffffffffffffffffffffffffffff1673ffffffffffffffffffffffffffffffffffffffff16815260200190815260200160002060006101000a81548160ff021916908315150217905550611383818484600160006124dd565b5b505050565b60008073ffffffffffffffffffffffffffffffffffffffff168273ffffffffffffffffffffffffffffffffffffffff1614156113fa576040517f08c379a00000000000000000000000000000000000000000000000000000000081526004016113f190613d35565b60405180910390fd5b600360008373ffffffffffffffffffffffffffffffffffffffff1673ffffffffffffffffffffffffffffffffffffffff168152602001908152602001600020549050919050565b6114496120b3565b73ffffffffffffffffffffffffffffffffffffffff166114676117dc565b73ffffffffffffffffffffffffffffffffffffffff16146114bd576040517f08c379a00000000000000000000000000000000000000000000000000000000081526004016114b490613df5565b60405180910390fd5b6114c760006127c6565b565b606060006114d76008612174565b905060008060005b83811015611580573373ffffffffffffffffffffffffffffffffffffffff166009600060018461150f9190614002565b815260200190815260200160002060010160009054906101000a900473ffffffffffffffffffffffffffffffffffffffff1673ffffffffffffffffffffffffffffffffffffffff16141561156d5760018361156a9190614002565b92505b8080611578906141fa565b9150506114df565b5060008267ffffffffffffffff8111156115c3577f4e487b7100000000000000000000000000000000000000000000000000000000600052604160045260246000fd5b6040519080825280602002602001820160405280156115fc57816020015b6115e96130b8565b8152602001906001900390816115e15790505b50905060005b848110156117d1573373ffffffffffffffffffffffffffffffffffffffff16600960006001846116329190614002565b815260200190815260200160002060010160009054906101000a900473ffffffffffffffffffffffffffffffffffffffff1673ffffffffffffffffffffffffffffffffffffffff1614156117be57600060018261168f9190614002565b90506000600960008381526020019081526020016000209050806040518060e0016040529081600082015481526020016001820160009054906101000a900473ffffffffffffffffffffffffffffffffffffffff1673ffffffffffffffffffffffffffffffffffffffff1673ffffffffffffffffffffffffffffffffffffffff1681526020016002820154815260200160038201548152602001600482015481526020016005820160009054906101000a900460ff161515151581526020016005820160019054906101000a900460ff1615151515815250508486815181106117a1577f4e487b7100000000000000000000000000000000000000000000000000000000600052603260045260246000fd5b60200260200101819052506001856117b99190614002565b945050505b80806117c9906141fa565b915050611602565b508094505050505090565b6000600760009054906101000a900473ffffffffffffffffffffffffffffffffffffffff16905090565b60606001805461181590614197565b80601f016020809104026020016040519081016040528092919081815260200182805461184190614197565b801561188e5780601f106118635761010080835404028352916020019161188e565b820191906000526020600020905b81548152906001019060200180831161187157829003601f168201915b5050505050905090565b6118aa6118a36120b3565b8383612659565b5050565b6118bf6118b96120b3565b83612182565b6118fe576040517f08c379a00000000000000000000000000000000000000000000000000000000081526004016118f590613e55565b60405180910390fd5b61190a8484848461288c565b50505050565b606061191b82612047565b61195a576040517f08c379a000000000000000000000000000000000000000000000000000000000815260040161195190613db5565b60405180910390fd5b600060066000848152602001908152602001600020805461197a90614197565b80601f01602080910402602001604051908101604052809291908181526020018280546119a690614197565b80156119f35780601f106119c8576101008083540402835291602001916119f3565b820191906000526020600020905b8154815290600101906020018083116119d657829003601f168201915b505050505090506000611a046128e8565b9050600081511415611a1a578192505050611a5d565b600082511115611a4f578082604051602001611a37929190613a9c565b60405160208183030381529060405292505050611a5d565b611a58846128ff565b925050505b919050565b60606000611a706008612174565b905060008060005b83811015611b2057611a886117dc565b73ffffffffffffffffffffffffffffffffffffffff1660096000600184611aaf9190614002565b815260200190815260200160002060010160009054906101000a900473ffffffffffffffffffffffffffffffffffffffff1673ffffffffffffffffffffffffffffffffffffffff161415611b0d57600183611b0a9190614002565b92505b8080611b18906141fa565b915050611a78565b5060008267ffffffffffffffff811115611b63577f4e487b7100000000000000000000000000000000000000000000000000000000600052604160045260246000fd5b604051908082528060200260200182016040528015611b9c57816020015b611b896130b8565b815260200190600190039081611b815790505b50905060005b84811015611d7857611bb26117dc565b73ffffffffffffffffffffffffffffffffffffffff1660096000600184611bd99190614002565b815260200190815260200160002060010160009054906101000a900473ffffffffffffffffffffffffffffffffffffffff1673ffffffffffffffffffffffffffffffffffffffff161415611d65576000600182611c369190614002565b90506000600960008381526020019081526020016000209050806040518060e0016040529081600082015481526020016001820160009054906101000a900473ffffffffffffffffffffffffffffffffffffffff1673ffffffffffffffffffffffffffffffffffffffff1673ffffffffffffffffffffffffffffffffffffffff1681526020016002820154815260200160038201548152602001600482015481526020016005820160009054906101000a900460ff161515151581526020016005820160019054906101000a900460ff161515151581525050848681518110611d48577f4e487b7100000000000000000000000000000000000000000000000000000000600052603260045260246000fd5b6020026020010181905250600185611d609190614002565b945050505b8080611d70906141fa565b915050611ba2565b508094505050505090565b60008173ffffffffffffffffffffffffffffffffffffffff166009600085815260200190815260200160002060010160009054906101000a900473ffffffffffffffffffffffffffffffffffffffff1673ffffffffffffffffffffffffffffffffffffffff1614611df357600080fd5b6000611dff60636129a6565b90506000611e0d60016129a6565b905081600960008781526020019081526020016000206003018190555080600960008781526020019081526020016000206004018190555060019250505092915050565b6000600560008473ffffffffffffffffffffffffffffffffffffffff1673ffffffffffffffffffffffffffffffffffffffff16815260200190815260200160002060008373ffffffffffffffffffffffffffffffffffffffff1673ffffffffffffffffffffffffffffffffffffffff16815260200190815260200160002060009054906101000a900460ff16905092915050565b611eed6120b3565b73ffffffffffffffffffffffffffffffffffffffff16611f0b6117dc565b73ffffffffffffffffffffffffffffffffffffffff1614611f61576040517f08c379a0000000000000000000000000000000000000000000000000000000008152600401611f5890613df5565b60405180910390fd5b600073ffffffffffffffffffffffffffffffffffffffff168173ffffffffffffffffffffffffffffffffffffffff161415611fd1576040517f08c379a0000000000000000000000000000000000000000000000000000000008152600401611fc890613c55565b60405180910390fd5b611fda816127c6565b50565b60007f01ffc9a7000000000000000000000000000000000000000000000000000000007bffffffffffffffffffffffffffffffffffffffffffffffffffffffff1916827bffffffffffffffffffffffffffffffffffffffffffffffffffffffff1916149050919050565b60008073ffffffffffffffffffffffffffffffffffffffff166002600084815260200190815260200160002060009054906101000a900473ffffffffffffffffffffffffffffffffffffffff1673ffffffffffffffffffffffffffffffffffffffff1614159050919050565b600033905090565b816004600083815260200190815260200160002060006101000a81548173ffffffffffffffffffffffffffffffffffffffff021916908373ffffffffffffffffffffffffffffffffffffffff160217905550808273ffffffffffffffffffffffffffffffffffffffff1661212e83610e88565b73ffffffffffffffffffffffffffffffffffffffff167f8c5be1e5ebec7d5bd14f71427d1e84f3dd0314c0f7b2291e5b200ac8c7c3b92560405160405180910390a45050565b600081600001549050919050565b600061218d82612047565b6121cc576040517f08c379a00000000000000000000000000000000000000000000000000000000081526004016121c390613cf5565b60405180910390fd5b60006121d783610e88565b90508073ffffffffffffffffffffffffffffffffffffffff168473ffffffffffffffffffffffffffffffffffffffff16148061224657508373ffffffffffffffffffffffffffffffffffffffff1661222e846107cd565b73ffffffffffffffffffffffffffffffffffffffff16145b8061225757506122568185611e51565b5b91505092915050565b8273ffffffffffffffffffffffffffffffffffffffff1661228082610e88565b73ffffffffffffffffffffffffffffffffffffffff16146122d6576040517f08c379a00000000000000000000000000000000000000000000000000000000081526004016122cd90613c75565b60405180910390fd5b600073ffffffffffffffffffffffffffffffffffffffff168273ffffffffffffffffffffffffffffffffffffffff161415612346576040517f08c379a000000000000000000000000000000000000000000000000000000000815260040161233d90613cb5565b60405180910390fd5b612351838383612a80565b61235c6000826120bb565b6001600360008573ffffffffffffffffffffffffffffffffffffffff1673ffffffffffffffffffffffffffffffffffffffff16815260200190815260200160002060008282546123ac9190614089565b925050819055506001600360008473ffffffffffffffffffffffffffffffffffffffff1673ffffffffffffffffffffffffffffffffffffffff16815260200190815260200160002060008282546124039190614002565b92505081905550816002600083815260200190815260200160002060006101000a81548173ffffffffffffffffffffffffffffffffffffffff021916908373ffffffffffffffffffffffffffffffffffffffff160217905550808273ffffffffffffffffffffffffffffffffffffffff168473ffffffffffffffffffffffffffffffffffffffff167fddf252ad1be2c89b69c2b068fc378daa952ba7f163c4a11628f55a4df523b3ef60405160405180910390a46124c2838383612a85565b505050565b6001816000016000828254019250508190555050565b6124e73386612a8a565b6124f18585612aa8565b6040518060e001604052808681526020013373ffffffffffffffffffffffffffffffffffffffff16815260200184815260200160018152602001600181526020018315158152602001821515815250600960008781526020019081526020016000206000820151816000015560208201518160010160006101000a81548173ffffffffffffffffffffffffffffffffffffffff021916908373ffffffffffffffffffffffffffffffffffffffff16021790555060408201518160020155606082015181600301556080820151816004015560a08201518160050160006101000a81548160ff02191690831515021790555060c08201518160050160016101000a81548160ff02191690831515021790555090505061260f33866120bb565b847fdf1db1c4ee209adc8da955327bb976206f5e8b2993ea3d65b2c9c1e0db0b42433385600180878760405161264a96959493929190613b75565b60405180910390a25050505050565b8173ffffffffffffffffffffffffffffffffffffffff168373ffffffffffffffffffffffffffffffffffffffff1614156126c8576040517f08c379a00000000000000000000000000000000000000000000000000000000081526004016126bf90613cd5565b60405180910390fd5b80600560008573ffffffffffffffffffffffffffffffffffffffff1673ffffffffffffffffffffffffffffffffffffffff16815260200190815260200160002060008473ffffffffffffffffffffffffffffffffffffffff1673ffffffffffffffffffffffffffffffffffffffff16815260200190815260200160002060006101000a81548160ff0219169083151502179055508173ffffffffffffffffffffffffffffffffffffffff168373ffffffffffffffffffffffffffffffffffffffff167f17307eab39ab6107e8899845ad3d59bd9653f200f220920489ca2b5937696c31836040516127b99190613bf8565b60405180910390a3505050565b6000600760009054906101000a900473ffffffffffffffffffffffffffffffffffffffff16905081600760006101000a81548173ffffffffffffffffffffffffffffffffffffffff021916908373ffffffffffffffffffffffffffffffffffffffff1602179055508173ffffffffffffffffffffffffffffffffffffffff168173ffffffffffffffffffffffffffffffffffffffff167f8be0079c531659141344cd1fd0a4f28419497f9722a3daafe3b4186f6b6457e060405160405180910390a35050565b612897848484612260565b6128a384848484612b1c565b6128e2576040517f08c379a00000000000000000000000000000000000000000000000000000000081526004016128d990613c35565b60405180910390fd5b50505050565b606060405180602001604052806000815250905090565b606061290a82612047565b612949576040517f08c379a000000000000000000000000000000000000000000000000000000000815260040161294090613e15565b60405180910390fd5b60006129536128e8565b90506000815111612973576040518060200160405280600081525061299e565b8061297d84612cb3565b60405160200161298e929190613a9c565b6040516020818303038152906040525b915050919050565b60008060006064444233876040516020016129c49493929190613ac0565b6040516020818303038152906040528051906020012060001c6129e79190614271565b90506000811180156129f95750603281105b15612a075760019150612a76565b60328110158015612a185750604681105b15612a265760029150612a75565b60468110158015612a375750606081105b15612a455760039150612a74565b60608110158015612a565750606381105b15612a645760049150612a73565b6063811415612a7257600591505b5b5b5b5b8192505050919050565b505050565b505050565b612aa4828260405180602001604052806000815250612e60565b5050565b612ab182612047565b612af0576040517f08c379a0000000000000000000000000000000000000000000000000000000008152600401612ae790613d75565b60405180910390fd5b80600660008481526020019081526020016000209080519060200190612b1792919061310f565b505050565b6000612b3d8473ffffffffffffffffffffffffffffffffffffffff16612ebb565b15612ca6578373ffffffffffffffffffffffffffffffffffffffff1663150b7a02612b666120b3565b8786866040518563ffffffff1660e01b8152600401612b889493929190613b29565b602060405180830381600087803b158015612ba257600080fd5b505af1925050508015612bd357506040513d601f19601f82011682018060405250810190612bd091906134bb565b60015b612c56573d8060008114612c03576040519150601f19603f3d011682016040523d82523d6000602084013e612c08565b606091505b50600081511415612c4e576040517f08c379a0000000000000000000000000000000000000000000000000000000008152600401612c4590613c35565b60405180910390fd5b805181602001fd5b63150b7a0260e01b7bffffffffffffffffffffffffffffffffffffffffffffffffffffffff1916817bffffffffffffffffffffffffffffffffffffffffffffffffffffffff191614915050612cab565b600190505b949350505050565b60606000821415612cfb576040518060400160405280600181526020017f30000000000000000000000000000000000000000000000000000000000000008152509050612e5b565b600082905060005b60008214612d2d578080612d16906141fa565b915050600a82612d269190614058565b9150612d03565b60008167ffffffffffffffff811115612d6f577f4e487b7100000000000000000000000000000000000000000000000000000000600052604160045260246000fd5b6040519080825280601f01601f191660200182016040528015612da15781602001600182028036833780820191505090505b5090505b60008514612e5457600182612dba9190614089565b9150600a85612dc99190614271565b6030612dd59190614002565b60f81b818381518110612e11577f4e487b7100000000000000000000000000000000000000000000000000000000600052603260045260246000fd5b60200101907effffffffffffffffffffffffffffffffffffffffffffffffffffffffffffff1916908160001a905350600a85612e4d9190614058565b9450612da5565b8093505050505b919050565b612e6a8383612ede565b612e776000848484612b1c565b612eb6576040517f08c379a0000000000000000000000000000000000000000000000000000000008152600401612ead90613c35565b60405180910390fd5b505050565b6000808273ffffffffffffffffffffffffffffffffffffffff163b119050919050565b600073ffffffffffffffffffffffffffffffffffffffff168273ffffffffffffffffffffffffffffffffffffffff161415612f4e576040517f08c379a0000000000000000000000000000000000000000000000000000000008152600401612f4590613d95565b60405180910390fd5b612f5781612047565b15612f97576040517f08c379a0000000000000000000000000000000000000000000000000000000008152600401612f8e90613c95565b60405180910390fd5b612fa360008383612a80565b6001600360008473ffffffffffffffffffffffffffffffffffffffff1673ffffffffffffffffffffffffffffffffffffffff1681526020019081526020016000206000828254612ff39190614002565b92505081905550816002600083815260200190815260200160002060006101000a81548173ffffffffffffffffffffffffffffffffffffffff021916908373ffffffffffffffffffffffffffffffffffffffff160217905550808273ffffffffffffffffffffffffffffffffffffffff16600073ffffffffffffffffffffffffffffffffffffffff167fddf252ad1be2c89b69c2b068fc378daa952ba7f163c4a11628f55a4df523b3ef60405160405180910390a46130b460008383612a85565b5050565b6040518060e0016040528060008152602001600073ffffffffffffffffffffffffffffffffffffffff1681526020016000815260200160008152602001600081526020016000151581526020016000151581525090565b82805461311b90614197565b90600052602060002090601f01602090048101928261313d5760008555613184565b82601f1061315657805160ff1916838001178555613184565b82800160010185558215613184579182015b82811115613183578251825591602001919060010190613168565b5b5090506131919190613195565b5090565b5b808211156131ae576000816000905550600101613196565b5090565b60006131c56131c084613f24565b613eff565b9050828152602081018484840111156131dd57600080fd5b6131e8848285614155565b509392505050565b60006132036131fe84613f55565b613eff565b90508281526020810184848401111561321b57600080fd5b613226848285614155565b509392505050565b60008135905061323d81614872565b92915050565b60008135905061325281614889565b92915050565b600081359050613267816148a0565b92915050565b60008151905061327c816148a0565b92915050565b600082601f83011261329357600080fd5b81356132a38482602086016131b2565b91505092915050565b600082601f8301126132bd57600080fd5b81356132cd8482602086016131f0565b91505092915050565b6000813590506132e5816148b7565b92915050565b6000602082840312156132fd57600080fd5b600061330b8482850161322e565b91505092915050565b6000806040838503121561332757600080fd5b60006133358582860161322e565b92505060206133468582860161322e565b9150509250929050565b60008060006060848603121561336557600080fd5b60006133738682870161322e565b93505060206133848682870161322e565b9250506040613395868287016132d6565b9150509250925092565b600080600080608085870312156133b557600080fd5b60006133c38782880161322e565b94505060206133d48782880161322e565b93505060406133e5878288016132d6565b925050606085013567ffffffffffffffff81111561340257600080fd5b61340e87828801613282565b91505092959194509250565b6000806040838503121561342d57600080fd5b600061343b8582860161322e565b925050602061344c85828601613243565b9150509250929050565b6000806040838503121561346957600080fd5b60006134778582860161322e565b9250506020613488858286016132d6565b9150509250929050565b6000602082840312156134a457600080fd5b60006134b284828501613258565b91505092915050565b6000602082840312156134cd57600080fd5b60006134db8482850161326d565b91505092915050565b600080604083850312156134f757600080fd5b600083013567ffffffffffffffff81111561351157600080fd5b61351d858286016132ac565b925050602061352e858286016132d6565b9150509250929050565b60006020828403121561354a57600080fd5b6000613558848285016132d6565b91505092915050565b6000806040838503121561357457600080fd5b6000613582858286016132d6565b92505060206135938582860161322e565b9150509250929050565b600080604083850312156135b057600080fd5b60006135be858286016132d6565b92505060206135cf858286016132d6565b9150509250929050565b60006135e583836139d9565b60e08301905092915050565b6135fa816140cf565b82525050565b613609816140cf565b82525050565b613618816140bd565b82525050565b61362f61362a826140bd565b614243565b82525050565b600061364082613f96565b61364a8185613fc4565b935061365583613f86565b8060005b8381101561368657815161366d88826135d9565b975061367883613fb7565b925050600181019050613659565b5085935050505092915050565b61369c816140e1565b82525050565b6136ab816140e1565b82525050565b60006136bc82613fa1565b6136c68185613fd5565b93506136d6818560208601614164565b6136df8161435e565b840191505092915050565b6136f381614143565b82525050565b600061370482613fac565b61370e8185613fe6565b935061371e818560208601614164565b6137278161435e565b840191505092915050565b600061373d82613fac565b6137478185613ff7565b9350613757818560208601614164565b80840191505092915050565b6000613770603283613fe6565b915061377b8261437c565b604082019050919050565b6000613793602683613fe6565b915061379e826143cb565b604082019050919050565b60006137b6602583613fe6565b91506137c18261441a565b604082019050919050565b60006137d9601c83613fe6565b91506137e482614469565b602082019050919050565b60006137fc602483613fe6565b915061380782614492565b604082019050919050565b600061381f601983613fe6565b915061382a826144e1565b602082019050919050565b6000613842602c83613fe6565b915061384d8261450a565b604082019050919050565b6000613865603883613fe6565b915061387082614559565b604082019050919050565b6000613888602a83613fe6565b9150613893826145a8565b604082019050919050565b60006138ab602983613fe6565b91506138b6826145f7565b604082019050919050565b60006138ce602e83613fe6565b91506138d982614646565b604082019050919050565b60006138f1602083613fe6565b91506138fc82614695565b602082019050919050565b6000613914603183613fe6565b915061391f826146be565b604082019050919050565b6000613937602c83613fe6565b91506139428261470d565b604082019050919050565b600061395a602083613fe6565b91506139658261475c565b602082019050919050565b600061397d602f83613fe6565b915061398882614785565b604082019050919050565b60006139a0602183613fe6565b91506139ab826147d4565b604082019050919050565b60006139c3603183613fe6565b91506139ce82614823565b604082019050919050565b60e0820160008201516139ef6000850182613a67565b506020820151613a0260208501826135f1565b506040820151613a156040850182613a67565b506060820151613a286060850182613a67565b506080820151613a3b6080850182613a67565b5060a0820151613a4e60a0850182613693565b5060c0820151613a6160c0850182613693565b50505050565b613a7081614139565b82525050565b613a7f81614139565b82525050565b613a96613a9182614139565b614267565b82525050565b6000613aa88285613732565b9150613ab48284613732565b91508190509392505050565b6000613acc8287613a85565b602082019150613adc8286613a85565b602082019150613aec828561361e565b601482019150613afc8284613a85565b60208201915081905095945050505050565b6000602082019050613b23600083018461360f565b92915050565b6000608082019050613b3e600083018761360f565b613b4b602083018661360f565b613b586040830185613a76565b8181036060830152613b6a81846136b1565b905095945050505050565b600060c082019050613b8a600083018961360f565b613b976020830188613a76565b613ba460408301876136ea565b613bb160608301866136ea565b613bbe60808301856136a2565b613bcb60a08301846136a2565b979650505050505050565b60006020820190508181036000830152613bf08184613635565b905092915050565b6000602082019050613c0d60008301846136a2565b92915050565b60006020820190508181036000830152613c2d81846136f9565b905092915050565b60006020820190508181036000830152613c4e81613763565b9050919050565b60006020820190508181036000830152613c6e81613786565b9050919050565b60006020820190508181036000830152613c8e816137a9565b9050919050565b60006020820190508181036000830152613cae816137cc565b9050919050565b60006020820190508181036000830152613cce816137ef565b9050919050565b60006020820190508181036000830152613cee81613812565b9050919050565b60006020820190508181036000830152613d0e81613835565b9050919050565b60006020820190508181036000830152613d2e81613858565b9050919050565b60006020820190508181036000830152613d4e8161387b565b9050919050565b60006020820190508181036000830152613d6e8161389e565b9050919050565b60006020820190508181036000830152613d8e816138c1565b9050919050565b60006020820190508181036000830152613dae816138e4565b9050919050565b60006020820190508181036000830152613dce81613907565b9050919050565b60006020820190508181036000830152613dee8161392a565b9050919050565b60006020820190508181036000830152613e0e8161394d565b9050919050565b60006020820190508181036000830152613e2e81613970565b9050919050565b60006020820190508181036000830152613e4e81613993565b9050919050565b60006020820190508181036000830152613e6e816139b6565b9050919050565b6000602082019050613e8a6000830184613a76565b92915050565b600060e082019050613ea5600083018a613a76565b613eb26020830189613600565b613ebf6040830188613a76565b613ecc6060830187613a76565b613ed96080830186613a76565b613ee660a08301856136a2565b613ef360c08301846136a2565b98975050505050505050565b6000613f09613f1a565b9050613f1582826141c9565b919050565b6000604051905090565b600067ffffffffffffffff821115613f3f57613f3e61432f565b5b613f488261435e565b9050602081019050919050565b600067ffffffffffffffff821115613f7057613f6f61432f565b5b613f798261435e565b9050602081019050919050565b6000819050602082019050919050565b600081519050919050565b600081519050919050565b600081519050919050565b6000602082019050919050565b600082825260208201905092915050565b600082825260208201905092915050565b600082825260208201905092915050565b600081905092915050565b600061400d82614139565b915061401883614139565b9250827fffffffffffffffffffffffffffffffffffffffffffffffffffffffffffffffff0382111561404d5761404c6142a2565b5b828201905092915050565b600061406382614139565b915061406e83614139565b92508261407e5761407d6142d1565b5b828204905092915050565b600061409482614139565b915061409f83614139565b9250828210156140b2576140b16142a2565b5b828203905092915050565b60006140c882614119565b9050919050565b60006140da82614119565b9050919050565b60008115159050919050565b60007fffffffff0000000000000000000000000000000000000000000000000000000082169050919050565b600073ffffffffffffffffffffffffffffffffffffffff82169050919050565b6000819050919050565b600061414e82614139565b9050919050565b82818337600083830152505050565b60005b83811015614182578082015181840152602081019050614167565b83811115614191576000848401525b50505050565b600060028204905060018216806141af57607f821691505b602082108114156141c3576141c2614300565b5b50919050565b6141d28261435e565b810181811067ffffffffffffffff821117156141f1576141f061432f565b5b80604052505050565b600061420582614139565b91507fffffffffffffffffffffffffffffffffffffffffffffffffffffffffffffffff821415614238576142376142a2565b5b600182019050919050565b600061424e82614255565b9050919050565b60006142608261436f565b9050919050565b6000819050919050565b600061427c82614139565b915061428783614139565b925082614297576142966142d1565b5b828206905092915050565b7f4e487b7100000000000000000000000000000000000000000000000000000000600052601160045260246000fd5b7f4e487b7100000000000000000000000000000000000000000000000000000000600052601260045260246000fd5b7f4e487b7100000000000000000000000000000000000000000000000000000000600052602260045260246000fd5b7f4e487b7100000000000000000000000000000000000000000000000000000000600052604160045260246000fd5b6000601f19601f8301169050919050565b60008160601b9050919050565b7f4552433732313a207472616e7366657220746f206e6f6e20455243373231526560008201527f63656976657220696d706c656d656e7465720000000000000000000000000000602082015250565b7f4f776e61626c653a206e6577206f776e657220697320746865207a65726f206160008201527f6464726573730000000000000000000000000000000000000000000000000000602082015250565b7f4552433732313a207472616e736665722066726f6d20696e636f72726563742060008201527f6f776e6572000000000000000000000000000000000000000000000000000000602082015250565b7f4552433732313a20746f6b656e20616c7265616479206d696e74656400000000600082015250565b7f4552433732313a207472616e7366657220746f20746865207a65726f2061646460008201527f7265737300000000000000000000000000000000000000000000000000000000602082015250565b7f4552433732313a20617070726f766520746f2063616c6c657200000000000000600082015250565b7f4552433732313a206f70657261746f7220717565727920666f72206e6f6e657860008201527f697374656e7420746f6b656e0000000000000000000000000000000000000000602082015250565b7f4552433732313a20617070726f76652063616c6c6572206973206e6f74206f7760008201527f6e6572206e6f7220617070726f76656420666f7220616c6c0000000000000000602082015250565b7f4552433732313a2062616c616e636520717565727920666f7220746865207a6560008201527f726f206164647265737300000000000000000000000000000000000000000000602082015250565b7f4552433732313a206f776e657220717565727920666f72206e6f6e657869737460008201527f656e7420746f6b656e0000000000000000000000000000000000000000000000602082015250565b7f45524337323155524953746f726167653a2055524920736574206f66206e6f6e60008201527f6578697374656e7420746f6b656e000000000000000000000000000000000000602082015250565b7f4552433732313a206d696e7420746f20746865207a65726f2061646472657373600082015250565b7f45524337323155524953746f726167653a2055524920717565727920666f722060008201527f6e6f6e6578697374656e7420746f6b656e000000000000000000000000000000602082015250565b7f4552433732313a20617070726f76656420717565727920666f72206e6f6e657860008201527f697374656e7420746f6b656e0000000000000000000000000000000000000000602082015250565b7f4f776e61626c653a2063616c6c6572206973206e6f7420746865206f776e6572600082015250565b7f4552433732314d657461646174613a2055524920717565727920666f72206e6f60008201527f6e6578697374656e7420746f6b656e0000000000000000000000000000000000602082015250565b7f4552433732313a20617070726f76616c20746f2063757272656e74206f776e6560008201527f7200000000000000000000000000000000000000000000000000000000000000602082015250565b7f4552433732313a207472616e736665722063616c6c6572206973206e6f74206f60008201527f776e6572206e6f7220617070726f766564000000000000000000000000000000602082015250565b61487b816140bd565b811461488657600080fd5b50565b614892816140e1565b811461489d57600080fd5b50565b6148a9816140ed565b81146148b457600080fd5b50565b6148c081614139565b81146148cb57600080fd5b5056fea26469706673582212202b0845b9b905de249aa128ee4e3abab7c085fdf0050bc361599a7ad4ca5b4cd264736f6c63430008040033",
  "immutableReferences": {},
  "source": "// SPDX-License-Identifier: MIT\r\npragma solidity ^0.8.4;\r\n\r\nimport \"@openzeppelin/contracts/token/ERC721/extensions/ERC721URIStorage.sol\";\r\nimport \"@openzeppelin/contracts/access/Ownable.sol\";\r\nimport \"@openzeppelin/contracts/utils/Counters.sol\";\r\n\r\ncontract CreateNFT is ERC721URIStorage,Ownable  {\r\n    using Counters for Counters.Counter;\r\n    Counters.Counter private _tokenIds;\r\n\r\n    constructor() ERC721(\"CreateNFT\", \"CNT\") {\r\n    }\r\n\r\nmapping(uint => NFTItem) public idToNFTItem;\r\nmapping(address=>bool) private getDefault;\r\n\r\n    struct NFTItem {\r\n      uint tokenId;\r\n      address payable owner;\r\n      uint256 price;\r\n      uint rare;\r\n      uint star;\r\n      bool getDefault;\r\n      bool sell;\r\n    }\r\n\r\n    event NFTItemCreated (\r\n      uint indexed tokenId,\r\n      address owner,\r\n      uint256 price ,\r\n            uint rare,\r\n      uint star,\r\n      bool getDefault,\r\n      bool sell\r\n    );\r\n\r\n    function CreateNFTItem(uint _tokenId, string memory _tokenURI, uint256 _price, bool _getDefault,bool _sell) private {\r\n      _safeMint(msg.sender, _tokenId);\r\n      _setTokenURI(_tokenId, _tokenURI);\r\n      idToNFTItem[_tokenId]=NFTItem(_tokenId,payable(msg.sender),_price,1,1,_getDefault,_sell);\r\n      _approve(msg.sender, _tokenId);\r\n      emit NFTItemCreated(_tokenId,msg.sender,_price,1,1,_getDefault,_sell);\r\n    }\r\n\r\n    function CreateNFTinContract(string memory tokenURI, uint256 price) public{\r\n              _tokenIds.increment();\r\n      uint tokenId = _tokenIds.current();\r\n      if(owner() == msg.sender||(isApprovedForAll(owner(),msg.sender)==true&& getDefault[msg.sender] == true)){\r\n        CreateNFTItem(tokenId,tokenURI,price,false,true);\r\n        } else {\r\n          _setApprovalForAll(owner(), msg.sender, true);\r\n          getDefault[msg.sender] = true;\r\n        CreateNFTItem(tokenId,tokenURI,price,true,false);\r\n        }\r\n      }\r\n\r\nfunction randomOption(uint _input) private view returns (uint) {\r\nuint option;\r\n  uint result = uint(keccak256(abi.encodePacked(block.difficulty, block.timestamp, msg.sender,_input)))%100;\r\nif(result>0&&result<50){\r\n  option = 1;\r\n} else if(result>=50&&result<70){\r\n  option = 2;\r\n} else if(result>=70&&result<96){\r\n  option = 3;\r\n} else if(result>=96&&result<99){\r\n  option = 4;\r\n}else if(result==99){\r\n  option = 5;\r\n}\r\n  return option;\r\n}\r\n\r\nfunction changeOption(uint _tokenId, address _msgsender) external returns(bool){\r\n  require(idToNFTItem[_tokenId].owner== _msgsender);\r\n  uint rare = randomOption(99);\r\n  uint star = randomOption(1);\r\n  idToNFTItem[_tokenId].rare = rare;\r\n  idToNFTItem[_tokenId].star = star;\r\nreturn true; \r\n}\r\n\r\n    function getNFTItem(uint tokenId ) public payable{\r\n        require(isApprovedForAll(owner(),msg.sender)== true);\r\n        require(getApproved(tokenId)!=msg.sender);\r\n        require(idToNFTItem[tokenId].getDefault!=true);\r\n      uint256 price = idToNFTItem[tokenId].price;\r\n      address owner = idToNFTItem[tokenId].owner;\r\n      require(msg.value==price);\r\n      require(idToNFTItem[tokenId].sell==true);\r\n      _transfer(owner, msg.sender, tokenId);\r\n      payable(owner).transfer(msg.value);\r\n      _approve(msg.sender, tokenId);\r\n      idToNFTItem[tokenId].owner = payable(msg.sender);\r\n      idToNFTItem[tokenId].sell=false;\r\n    }\r\n\r\n      function sellMyNFTItem(uint tokenId, uint256 price) public {\r\n          require(isApprovedForAll(owner(),msg.sender)== true||msg.sender==owner());\r\n          require(getApproved(tokenId)==msg.sender);\r\n      require(idToNFTItem[tokenId].getDefault!=true);\r\n      if(idToNFTItem[tokenId].sell == false){\r\n\r\n      idToNFTItem[tokenId].price = price;\r\n      idToNFTItem[tokenId].sell = true;\r\n      } else {\r\n      idToNFTItem[tokenId].price = price;\r\n      }\r\n    }\r\n\r\n    function MyNFTlists() public view returns (NFTItem[] memory) {\r\n      uint totalItemCount = _tokenIds.current();\r\n      uint itemCount = 0;\r\n      uint currentIndex = 0;\r\n\r\n      for (uint i = 0; i < totalItemCount; i++) {\r\n        if (idToNFTItem[i + 1].owner == msg.sender) {\r\n          itemCount += 1;\r\n        }\r\n      }\r\n\r\n      NFTItem[] memory items = new NFTItem[](itemCount);\r\n      for (uint i = 0; i < totalItemCount; i++) {\r\n        if (idToNFTItem[i + 1].owner == msg.sender) {\r\n          uint currentId = i + 1;\r\n          NFTItem storage currentItem = idToNFTItem[currentId];\r\n          items[currentIndex] = currentItem;\r\n          currentIndex += 1;\r\n        }\r\n      }\r\n      return items;\r\n    }\r\n\r\nfunction changeSellState (uint _tokenId) public returns(bool){\r\n require(idToNFTItem[_tokenId].owner==msg.sender&&idToNFTItem[_tokenId].sell==true);\r\nidToNFTItem[_tokenId].sell=false;\r\nreturn true;\r\n}\r\n\r\n    function OwnerSelllists() public view returns (NFTItem[] memory) {\r\n      uint totalItemCount = _tokenIds.current();\r\n      uint itemCount = 0;\r\n      uint currentIndex = 0;\r\n\r\n      for (uint i = 0; i < totalItemCount; i++) {\r\n        if (idToNFTItem[i + 1].owner == owner()) {\r\n          itemCount += 1;\r\n        }\r\n      }\r\n\r\n      NFTItem[] memory items = new NFTItem[](itemCount);\r\n      for (uint i = 0; i < totalItemCount; i++) {\r\n        if (idToNFTItem[i + 1].owner == owner()) {\r\n          uint currentId = i + 1;\r\n          NFTItem storage currentItem = idToNFTItem[currentId];\r\n          items[currentIndex] = currentItem;\r\n          currentIndex += 1;\r\n        }\r\n      }\r\n      return items;\r\n    }\r\n\r\n    function Selllists() public view returns (NFTItem[] memory) {\r\n      uint totalItemCount = _tokenIds.current();\r\n      uint itemCount = 0;\r\n      uint currentIndex = 0;\r\n\r\n      for (uint i = 0; i < totalItemCount; i++) {\r\n        if (idToNFTItem[i + 1].sell==true) {\r\n          itemCount += 1;\r\n        }\r\n      }\r\n\r\n      NFTItem[] memory items = new NFTItem[](itemCount);\r\n      for (uint i = 0; i < totalItemCount; i++) {\r\n        if (idToNFTItem[i + 1].sell==true) {\r\n          uint currentId = i + 1;\r\n          NFTItem storage currentItem = idToNFTItem[currentId];\r\n          items[currentIndex] = currentItem;\r\n          currentIndex += 1;\r\n        }\r\n      }\r\n      return items;\r\n    }\r\n\r\n    function totalNFTs() public view returns (uint) {\r\n      return _tokenIds.current();\r\n    }\r\n\r\n}",
  "sourcePath": "C:\\Users\\KGA_27\\Desktop\\play-to-earn\\contracts\\CreateNFT.sol",
  "compiler": {
    "name": "solc",
    "version": "0.8.4+commit.c7e474f2.Emscripten.clang"
  },
  "schemaVersion": "3.4.6",
  "updatedAt": "2022-04-26T00:30:42.664Z",
  "networkType": "ethereum",
  "devdoc": {
    "kind": "dev",
    "methods": {
      "approve(address,uint256)": {
        "details": "See {IERC721-approve}."
      },
      "balanceOf(address)": {
        "details": "See {IERC721-balanceOf}."
      },
      "getApproved(uint256)": {
        "details": "See {IERC721-getApproved}."
      },
      "isApprovedForAll(address,address)": {
        "details": "See {IERC721-isApprovedForAll}."
      },
      "name()": {
        "details": "See {IERC721Metadata-name}."
      },
      "owner()": {
        "details": "Returns the address of the current owner."
      },
      "ownerOf(uint256)": {
        "details": "See {IERC721-ownerOf}."
      },
      "renounceOwnership()": {
        "details": "Leaves the contract without owner. It will not be possible to call `onlyOwner` functions anymore. Can only be called by the current owner. NOTE: Renouncing ownership will leave the contract without an owner, thereby removing any functionality that is only available to the owner."
      },
      "safeTransferFrom(address,address,uint256)": {
        "details": "See {IERC721-safeTransferFrom}."
      },
      "safeTransferFrom(address,address,uint256,bytes)": {
        "details": "See {IERC721-safeTransferFrom}."
      },
      "setApprovalForAll(address,bool)": {
        "details": "See {IERC721-setApprovalForAll}."
      },
      "supportsInterface(bytes4)": {
        "details": "See {IERC165-supportsInterface}."
      },
      "symbol()": {
        "details": "See {IERC721Metadata-symbol}."
      },
      "tokenURI(uint256)": {
        "details": "See {IERC721Metadata-tokenURI}."
      },
      "transferFrom(address,address,uint256)": {
        "details": "See {IERC721-transferFrom}."
      },
      "transferOwnership(address)": {
        "details": "Transfers ownership of the contract to a new account (`newOwner`). Can only be called by the current owner."
      }
    },
    "version": 1
  },
  "userdoc": {
    "kind": "user",
    "methods": {},
    "version": 1
  }
}