{
  "contractName": "StakingToken",
  "abi": [
    {
      "inputs": [
        {
          "internalType": "contract CreateNFT",
          "name": "_nftCollection",
          "type": "address"
        },
        {
          "internalType": "contract AmusementArcadeToken",
          "name": "_rewardsToken",
          "type": "address"
        }
      ],
      "stateMutability": "nonpayable",
      "type": "constructor"
    },
    {
      "anonymous": false,
      "inputs": [
        {
          "indexed": true,
          "internalType": "address",
          "name": "previousOwner",
          "type": "address"
        },
        {
          "indexed": true,
          "internalType": "address",
          "name": "newOwner",
          "type": "address"
        }
      ],
      "name": "OwnershipTransferred",
      "type": "event"
    },
    {
      "anonymous": false,
      "inputs": [
        {
          "indexed": true,
          "internalType": "uint256",
          "name": "stakerId",
          "type": "uint256"
        },
        {
          "indexed": false,
          "internalType": "address",
          "name": "stakerAddress",
          "type": "address"
        },
        {
          "indexed": false,
          "internalType": "uint256",
          "name": "amount",
          "type": "uint256"
        }
      ],
      "name": "addStaker",
      "type": "event"
    },
    {
      "anonymous": false,
      "inputs": [
        {
          "indexed": false,
          "internalType": "uint256",
          "name": "amount",
          "type": "uint256"
        }
      ],
      "name": "totalunclaimedRewards",
      "type": "event"
    },
    {
      "anonymous": false,
      "inputs": [
        {
          "indexed": true,
          "internalType": "uint256",
          "name": "stakerId",
          "type": "uint256"
        },
        {
          "indexed": false,
          "internalType": "address",
          "name": "stakerAddress",
          "type": "address"
        },
        {
          "indexed": false,
          "internalType": "uint256",
          "name": "amount",
          "type": "uint256"
        }
      ],
      "name": "withdrawAmount",
      "type": "event"
    },
    {
      "inputs": [
        {
          "internalType": "address",
          "name": "",
          "type": "address"
        }
      ],
      "name": "approve",
      "outputs": [
        {
          "internalType": "bool",
          "name": "",
          "type": "bool"
        }
      ],
      "stateMutability": "view",
      "type": "function",
      "constant": true
    },
    {
      "inputs": [],
      "name": "nftCollection",
      "outputs": [
        {
          "internalType": "contract CreateNFT",
          "name": "",
          "type": "address"
        }
      ],
      "stateMutability": "view",
      "type": "function",
      "constant": true
    },
    {
      "inputs": [],
      "name": "owner",
      "outputs": [
        {
          "internalType": "address",
          "name": "",
          "type": "address"
        }
      ],
      "stateMutability": "view",
      "type": "function",
      "constant": true
    },
    {
      "inputs": [],
      "name": "renounceOwnership",
      "outputs": [],
      "stateMutability": "nonpayable",
      "type": "function"
    },
    {
      "inputs": [],
      "name": "rewardsToken",
      "outputs": [
        {
          "internalType": "contract AmusementArcadeToken",
          "name": "",
          "type": "address"
        }
      ],
      "stateMutability": "view",
      "type": "function",
      "constant": true
    },
    {
      "inputs": [
        {
          "internalType": "uint256",
          "name": "",
          "type": "uint256"
        }
      ],
      "name": "stakers",
      "outputs": [
        {
          "internalType": "address",
          "name": "stakerAddress",
          "type": "address"
        },
        {
          "internalType": "uint256",
          "name": "amountStaked",
          "type": "uint256"
        },
        {
          "internalType": "uint256",
          "name": "timeOfLastUpdate",
          "type": "uint256"
        },
        {
          "internalType": "uint256",
          "name": "unclaimedRewards",
          "type": "uint256"
        }
      ],
      "stateMutability": "view",
      "type": "function",
      "constant": true
    },
    {
      "inputs": [
        {
          "internalType": "address",
          "name": "newOwner",
          "type": "address"
        }
      ],
      "name": "transferOwnership",
      "outputs": [],
      "stateMutability": "nonpayable",
      "type": "function"
    },
    {
      "inputs": [
        {
          "internalType": "uint256",
          "name": "_amount",
          "type": "uint256"
        }
      ],
      "name": "stake",
      "outputs": [],
      "stateMutability": "nonpayable",
      "type": "function"
    },
    {
      "inputs": [
        {
          "internalType": "uint256",
          "name": "_amount",
          "type": "uint256"
        }
      ],
      "name": "withdraw",
      "outputs": [],
      "stateMutability": "nonpayable",
      "type": "function"
    },
    {
      "inputs": [],
      "name": "claimRewards",
      "outputs": [],
      "stateMutability": "nonpayable",
      "type": "function"
    },
    {
      "inputs": [
        {
          "internalType": "address",
          "name": "_userAddress",
          "type": "address"
        }
      ],
      "name": "findStakerId",
      "outputs": [
        {
          "internalType": "uint256",
          "name": "",
          "type": "uint256"
        }
      ],
      "stateMutability": "view",
      "type": "function",
      "constant": true
    },
    {
      "inputs": [
        {
          "internalType": "uint256[]",
          "name": "_stakerIds",
          "type": "uint256[]"
        }
      ],
      "name": "resettimer",
      "outputs": [
        {
          "internalType": "bool",
          "name": "",
          "type": "bool"
        }
      ],
      "stateMutability": "nonpayable",
      "type": "function"
    },
    {
      "inputs": [
        {
          "internalType": "uint256",
          "name": "_newValue",
          "type": "uint256"
        }
      ],
      "name": "setRewardsPercent",
      "outputs": [],
      "stateMutability": "nonpayable",
      "type": "function"
    },
    {
      "inputs": [
        {
          "internalType": "address",
          "name": "_user",
          "type": "address"
        }
      ],
      "name": "userStakeInfo",
      "outputs": [
        {
          "internalType": "uint256",
          "name": "_tokensStaked",
          "type": "uint256"
        },
        {
          "internalType": "uint256",
          "name": "_availableRewards",
          "type": "uint256"
        }
      ],
      "stateMutability": "view",
      "type": "function",
      "constant": true
    }
  ],
  "bytecode": "0x60c060405260016003553480156200001657600080fd5b506040516200270b3803806200270b83398181016040528101906200003c9190620001d3565b6200005c62000050620000d960201b60201c565b620000e160201b60201c565b600180819055508173ffffffffffffffffffffffffffffffffffffffff1660a08173ffffffffffffffffffffffffffffffffffffffff1660601b815250508073ffffffffffffffffffffffffffffffffffffffff1660808173ffffffffffffffffffffffffffffffffffffffff1660601b815250505050620002a4565b600033905090565b60008060009054906101000a900473ffffffffffffffffffffffffffffffffffffffff169050816000806101000a81548173ffffffffffffffffffffffffffffffffffffffff021916908373ffffffffffffffffffffffffffffffffffffffff1602179055508173ffffffffffffffffffffffffffffffffffffffff168173ffffffffffffffffffffffffffffffffffffffff167f8be0079c531659141344cd1fd0a4f28419497f9722a3daafe3b4186f6b6457e060405160405180910390a35050565b600081519050620001b68162000270565b92915050565b600081519050620001cd816200028a565b92915050565b60008060408385031215620001e757600080fd5b6000620001f785828601620001bc565b92505060206200020a85828601620001a5565b9150509250929050565b6000620002218262000250565b9050919050565b6000620002358262000214565b9050919050565b6000620002498262000214565b9050919050565b600073ffffffffffffffffffffffffffffffffffffffff82169050919050565b6200027b8162000228565b81146200028757600080fd5b50565b62000295816200023c565b8114620002a157600080fd5b50565b60805160601c60a05160601c612418620002f360003960008181610e0e0152610faa01526000818161046f015281816108a1015281816110c3015281816112f501526115d801526124186000f3fe608060405234801561001057600080fd5b50600436106100ea5760003560e01c806387bd7a661161008c578063d1af0c7d11610066578063d1af0c7d14610224578063daea85c514610242578063f2fde38b14610272578063fd5e6dd11461028e576100ea565b806387bd7a66146101ba5780638da5cb5b146101ea578063a694fc3a14610208576100ea565b80634ead4327116100c85780634ead43271461014557806355a41ce5146101765780636588103b14610192578063715018a6146101b0576100ea565b80632e1a7d4d146100ef578063372500ab1461010b578063438e69dd14610115575b600080fd5b61010960048036038101906101049190611c34565b6102c1565b005b6101136106ba565b005b61012f600480360381019061012a9190611bc6565b6109a8565b60405161013c9190611e86565b60405180910390f35b61015f600480360381019061015a9190611b9d565b610d1b565b60405161016d929190611fd2565b60405180910390f35b610190600480360381019061018b9190611c34565b610d86565b005b61019a610e0c565b6040516101a79190611ebc565b60405180910390f35b6101b8610e30565b005b6101d460048036038101906101cf9190611b9d565b610eb8565b6040516101e19190611fb7565b60405180910390f35b6101f2610f7d565b6040516101ff9190611dc6565b60405180910390f35b610222600480360381019061021d9190611c34565b610fa6565b005b61022c6115d6565b6040516102399190611ea1565b60405180910390f35b61025c60048036038101906102579190611b9d565b6115fa565b6040516102699190611e86565b60405180910390f35b61028c60048036038101906102879190611b9d565b61161a565b005b6102a860048036038101906102a39190611c34565b611712565b6040516102b89493929190611e41565b60405180910390f35b60026001541415610307576040517f08c379a00000000000000000000000000000000000000000000000000000000081526004016102fe90611f97565b60405180910390fd5b60026001819055506000600560003373ffffffffffffffffffffffffffffffffffffffff1673ffffffffffffffffffffffffffffffffffffffff16815260200190815260200160002054141561035c57600080fd5b600060046000600560003373ffffffffffffffffffffffffffffffffffffffff1673ffffffffffffffffffffffffffffffffffffffff16815260200190815260200160002054815260200190815260200160002060010154116103f4576040517f08c379a00000000000000000000000000000000000000000000000000000000081526004016103eb90611ef7565b60405180910390fd5b60006103ff33611762565b90508060046000600560003373ffffffffffffffffffffffffffffffffffffffff1673ffffffffffffffffffffffffffffffffffffffff1681526020019081526020016000205481526020019081526020016000206003016000828254610466919061200c565b925050819055507f000000000000000000000000000000000000000000000000000000000000000073ffffffffffffffffffffffffffffffffffffffff1663a9059cbb33846040518363ffffffff1660e01b81526004016104c8929190611e18565b602060405180830381600087803b1580156104e257600080fd5b505af11580156104f6573d6000803e3d6000fd5b505050506040513d601f19601f8201168201806040525081019061051a9190611c0b565b508160046000600560003373ffffffffffffffffffffffffffffffffffffffff1673ffffffffffffffffffffffffffffffffffffffff168152602001908152602001600020548152602001908152602001600020600101600082825461058091906120ed565b925050819055504260046000600560003373ffffffffffffffffffffffffffffffffffffffff1673ffffffffffffffffffffffffffffffffffffffff16815260200190815260200160002054815260200190815260200160002060020181905550600560003373ffffffffffffffffffffffffffffffffffffffff1673ffffffffffffffffffffffffffffffffffffffff168152602001908152602001600020547fe85507432dfbfd0d9991605911a474da25e4e4311c075b4d0623677c39f619f03360046000600560003373ffffffffffffffffffffffffffffffffffffffff1673ffffffffffffffffffffffffffffffffffffffff168152602001908152602001600020548152602001908152602001600020600101546040516106a7929190611e18565b60405180910390a2506001808190555050565b600060046000600560003373ffffffffffffffffffffffffffffffffffffffff1673ffffffffffffffffffffffffffffffffffffffff16815260200190815260200160002054815260200190815260200160002060030154905060008111610757576040517f08c379a000000000000000000000000000000000000000000000000000000000815260040161074e90611f57565b60405180910390fd5b60011515600660003373ffffffffffffffffffffffffffffffffffffffff1673ffffffffffffffffffffffffffffffffffffffff16815260200190815260200160002060009054906101000a900460ff161515146107ea576040517f08c379a00000000000000000000000000000000000000000000000000000000081526004016107e190611f17565b60405180910390fd5b4260046000600560003373ffffffffffffffffffffffffffffffffffffffff1673ffffffffffffffffffffffffffffffffffffffff16815260200190815260200160002054815260200190815260200160002060020181905550600060046000600560003373ffffffffffffffffffffffffffffffffffffffff1673ffffffffffffffffffffffffffffffffffffffff168152602001908152602001600020548152602001908152602001600020600301819055507f000000000000000000000000000000000000000000000000000000000000000073ffffffffffffffffffffffffffffffffffffffff1663a9059cbb33836040518363ffffffff1660e01b81526004016108fa929190611e18565b602060405180830381600087803b15801561091457600080fd5b505af1158015610928573d6000803e3d6000fd5b505050506040513d601f19601f8201168201806040525081019061094c9190611c0b565b506000600660003373ffffffffffffffffffffffffffffffffffffffff1673ffffffffffffffffffffffffffffffffffffffff16815260200190815260200160002060006101000a81548160ff02191690831515021790555050565b60006109b2611853565b73ffffffffffffffffffffffffffffffffffffffff166109d0610f7d565b73ffffffffffffffffffffffffffffffffffffffff1614610a26576040517f08c379a0000000000000000000000000000000000000000000000000000000008152600401610a1d90611f37565b60405180910390fd5b60008383905090506000805b82811015610cd757600060046000888885818110610a79577f4e487b7100000000000000000000000000000000000000000000000000000000600052603260045260246000fd5b9050602002013581526020019081526020016000206040518060800160405290816000820160009054906101000a900473ffffffffffffffffffffffffffffffffffffffff1673ffffffffffffffffffffffffffffffffffffffff1673ffffffffffffffffffffffffffffffffffffffff16815260200160018201548152602001600282015481526020016003820154815250509050600081602001511180610b26575060008160600151115b15610cc3576000610b3a8260000151611762565b905080600460008a8a87818110610b7a577f4e487b7100000000000000000000000000000000000000000000000000000000600052603260045260246000fd5b9050602002013581526020019081526020016000206003016000828254610ba1919061200c565b9250508190555042600460008a8a87818110610be6577f4e487b7100000000000000000000000000000000000000000000000000000000600052603260045260246000fd5b90506020020135815260200190815260200160002060020181905550600160066000846000015173ffffffffffffffffffffffffffffffffffffffff1673ffffffffffffffffffffffffffffffffffffffff16815260200190815260200160002060006101000a81548160ff02191690831515021790555060046000898986818110610c9b577f4e487b7100000000000000000000000000000000000000000000000000000000600052603260045260246000fd5b9050602002013581526020019081526020016000206003015484610cbf919061200c565b9350505b508080610ccf906121b1565b915050610a32565b507fe659ad940b4c784e533d4e9da20647e37f19c7a5fccbb2dabfd302a40c099b3981604051610d079190611fb7565b60405180910390a160019250505092915050565b60008060046000600560008673ffffffffffffffffffffffffffffffffffffffff1673ffffffffffffffffffffffffffffffffffffffff16815260200190815260200160002054815260200190815260200160002060010154610d7d8461185b565b91509150915091565b610d8e611853565b73ffffffffffffffffffffffffffffffffffffffff16610dac610f7d565b73ffffffffffffffffffffffffffffffffffffffff1614610e02576040517f08c379a0000000000000000000000000000000000000000000000000000000008152600401610df990611f37565b60405180910390fd5b8060038190555050565b7f000000000000000000000000000000000000000000000000000000000000000081565b610e38611853565b73ffffffffffffffffffffffffffffffffffffffff16610e56610f7d565b73ffffffffffffffffffffffffffffffffffffffff1614610eac576040517f08c379a0000000000000000000000000000000000000000000000000000000008152600401610ea390611f37565b60405180910390fd5b610eb66000611a17565b565b6000610ec2611853565b73ffffffffffffffffffffffffffffffffffffffff16610ee0610f7d565b73ffffffffffffffffffffffffffffffffffffffff1614610f36576040517f08c379a0000000000000000000000000000000000000000000000000000000008152600401610f2d90611f37565b60405180910390fd5b600560008373ffffffffffffffffffffffffffffffffffffffff1673ffffffffffffffffffffffffffffffffffffffff168152602001908152602001600020549050919050565b60008060009054906101000a900473ffffffffffffffffffffffffffffffffffffffff16905090565b60007f000000000000000000000000000000000000000000000000000000000000000073ffffffffffffffffffffffffffffffffffffffff166370a08231336040518263ffffffff1660e01b81526004016110019190611dc6565b60206040518083038186803b15801561101957600080fd5b505afa15801561102d573d6000803e3d6000fd5b505050506040513d601f19601f820116820180604052508101906110519190611c5d565b141561105c57600080fd5b600260015414156110a2576040517f08c379a000000000000000000000000000000000000000000000000000000000815260040161109990611f97565b60405180910390fd5b6002600181905550681b1ae4d6e2ef5000008110156110c057600080fd5b807f000000000000000000000000000000000000000000000000000000000000000073ffffffffffffffffffffffffffffffffffffffff166370a08231336040518263ffffffff1660e01b815260040161111a9190611dc6565b60206040518083038186803b15801561113257600080fd5b505afa158015611146573d6000803e3d6000fd5b505050506040513d601f19601f8201168201806040525081019061116a9190611c5d565b101561117557600080fd5b61117f6002611adb565b600061118b6002611af1565b90506000600560003373ffffffffffffffffffffffffffffffffffffffff1673ffffffffffffffffffffffffffffffffffffffff16815260200190815260200160002054141561121a5780600560003373ffffffffffffffffffffffffffffffffffffffff1673ffffffffffffffffffffffffffffffffffffffff168152602001908152602001600020819055505b600060046000600560003373ffffffffffffffffffffffffffffffffffffffff1673ffffffffffffffffffffffffffffffffffffffff1681526020019081526020016000205481526020019081526020016000206001015411156112f357600061128333611762565b90508060046000600560003373ffffffffffffffffffffffffffffffffffffffff1673ffffffffffffffffffffffffffffffffffffffff16815260200190815260200160002054815260200190815260200160002060030160008282546112ea919061200c565b92505081905550505b7f000000000000000000000000000000000000000000000000000000000000000073ffffffffffffffffffffffffffffffffffffffff166323b872dd3330856040518463ffffffff1660e01b815260040161135093929190611de1565b602060405180830381600087803b15801561136a57600080fd5b505af115801561137e573d6000803e3d6000fd5b505050506040513d601f19601f820116820180604052508101906113a29190611c0b565b503360046000600560003373ffffffffffffffffffffffffffffffffffffffff1673ffffffffffffffffffffffffffffffffffffffff16815260200190815260200160002054815260200190815260200160002060000160006101000a81548173ffffffffffffffffffffffffffffffffffffffff021916908373ffffffffffffffffffffffffffffffffffffffff1602179055508160046000600560003373ffffffffffffffffffffffffffffffffffffffff1673ffffffffffffffffffffffffffffffffffffffff168152602001908152602001600020548152602001908152602001600020600101600082825461149c919061200c565b925050819055504260046000600560003373ffffffffffffffffffffffffffffffffffffffff1673ffffffffffffffffffffffffffffffffffffffff16815260200190815260200160002054815260200190815260200160002060020181905550600560003373ffffffffffffffffffffffffffffffffffffffff1673ffffffffffffffffffffffffffffffffffffffff168152602001908152602001600020547f7b14949db042e6a9f914bd8449c0944f72dfff9df88ec201a4c84c5fec2c35ba3360046000600560003373ffffffffffffffffffffffffffffffffffffffff1673ffffffffffffffffffffffffffffffffffffffff168152602001908152602001600020548152602001908152602001600020600101546040516115c3929190611e18565b60405180910390a2506001808190555050565b7f000000000000000000000000000000000000000000000000000000000000000081565b60066020528060005260406000206000915054906101000a900460ff1681565b611622611853565b73ffffffffffffffffffffffffffffffffffffffff16611640610f7d565b73ffffffffffffffffffffffffffffffffffffffff1614611696576040517f08c379a000000000000000000000000000000000000000000000000000000000815260040161168d90611f37565b60405180910390fd5b600073ffffffffffffffffffffffffffffffffffffffff168173ffffffffffffffffffffffffffffffffffffffff161415611706576040517f08c379a00000000000000000000000000000000000000000000000000000000081526004016116fd90611ed7565b60405180910390fd5b61170f81611a17565b50565b60046020528060005260406000206000915090508060000160009054906101000a900473ffffffffffffffffffffffffffffffffffffffff16908060010154908060020154908060030154905084565b600060046000600560008573ffffffffffffffffffffffffffffffffffffffff1673ffffffffffffffffffffffffffffffffffffffff16815260200190815260200160002054815260200190815260200160002060020154426117c591906120ed565b62015180606460035460046000600560008973ffffffffffffffffffffffffffffffffffffffff1673ffffffffffffffffffffffffffffffffffffffff1681526020019081526020016000205481526020019081526020016000206001015461182e9190612093565b6118389190612062565b6118429190612062565b61184c9190612093565b9050919050565b600033905090565b600080600560008473ffffffffffffffffffffffffffffffffffffffff1673ffffffffffffffffffffffffffffffffffffffff1681526020019081526020016000205414156118a957600080fd5b600060046000600560008673ffffffffffffffffffffffffffffffffffffffff1673ffffffffffffffffffffffffffffffffffffffff1681526020019081526020016000205481526020019081526020016000206001015411806119625750600060046000600560008673ffffffffffffffffffffffffffffffffffffffff1673ffffffffffffffffffffffffffffffffffffffff16815260200190815260200160002054815260200190815260200160002060030154115b6119a1576040517f08c379a000000000000000000000000000000000000000000000000000000000815260040161199890611f77565b60405180910390fd5b60006119ac83611762565b60046000600560008773ffffffffffffffffffffffffffffffffffffffff1673ffffffffffffffffffffffffffffffffffffffff16815260200190815260200160002054815260200190815260200160002060030154611a0c919061200c565b905080915050919050565b60008060009054906101000a900473ffffffffffffffffffffffffffffffffffffffff169050816000806101000a81548173ffffffffffffffffffffffffffffffffffffffff021916908373ffffffffffffffffffffffffffffffffffffffff1602179055508173ffffffffffffffffffffffffffffffffffffffff168173ffffffffffffffffffffffffffffffffffffffff167f8be0079c531659141344cd1fd0a4f28419497f9722a3daafe3b4186f6b6457e060405160405180910390a35050565b6001816000016000828254019250508190555050565b600081600001549050919050565b600081359050611b0e8161239d565b92915050565b60008083601f840112611b2657600080fd5b8235905067ffffffffffffffff811115611b3f57600080fd5b602083019150836020820283011115611b5757600080fd5b9250929050565b600081519050611b6d816123b4565b92915050565b600081359050611b82816123cb565b92915050565b600081519050611b97816123cb565b92915050565b600060208284031215611baf57600080fd5b6000611bbd84828501611aff565b91505092915050565b60008060208385031215611bd957600080fd5b600083013567ffffffffffffffff811115611bf357600080fd5b611bff85828601611b14565b92509250509250929050565b600060208284031215611c1d57600080fd5b6000611c2b84828501611b5e565b91505092915050565b600060208284031215611c4657600080fd5b6000611c5484828501611b73565b91505092915050565b600060208284031215611c6f57600080fd5b6000611c7d84828501611b88565b91505092915050565b611c8f81612121565b82525050565b611c9e81612133565b82525050565b611cad81612169565b82525050565b611cbc8161218d565b82525050565b6000611ccf602683611ffb565b9150611cda82612258565b604082019050919050565b6000611cf2601983611ffb565b9150611cfd826122a7565b602082019050919050565b6000611d15600b83611ffb565b9150611d20826122d0565b602082019050919050565b6000611d38602083611ffb565b9150611d43826122f9565b602082019050919050565b6000611d5b601c83611ffb565b9150611d6682612322565b602082019050919050565b6000611d7e601983611ffb565b9150611d898261234b565b602082019050919050565b6000611da1601f83611ffb565b9150611dac82612374565b602082019050919050565b611dc08161215f565b82525050565b6000602082019050611ddb6000830184611c86565b92915050565b6000606082019050611df66000830186611c86565b611e036020830185611c86565b611e106040830184611db7565b949350505050565b6000604082019050611e2d6000830185611c86565b611e3a6020830184611db7565b9392505050565b6000608082019050611e566000830187611c86565b611e636020830186611db7565b611e706040830185611db7565b611e7d6060830184611db7565b95945050505050565b6000602082019050611e9b6000830184611c95565b92915050565b6000602082019050611eb66000830184611ca4565b92915050565b6000602082019050611ed16000830184611cb3565b92915050565b60006020820190508181036000830152611ef081611cc2565b9050919050565b60006020820190508181036000830152611f1081611ce5565b9050919050565b60006020820190508181036000830152611f3081611d08565b9050919050565b60006020820190508181036000830152611f5081611d2b565b9050919050565b60006020820190508181036000830152611f7081611d4e565b9050919050565b60006020820190508181036000830152611f9081611d71565b9050919050565b60006020820190508181036000830152611fb081611d94565b9050919050565b6000602082019050611fcc6000830184611db7565b92915050565b6000604082019050611fe76000830185611db7565b611ff46020830184611db7565b9392505050565b600082825260208201905092915050565b60006120178261215f565b91506120228361215f565b9250827fffffffffffffffffffffffffffffffffffffffffffffffffffffffffffffffff03821115612057576120566121fa565b5b828201905092915050565b600061206d8261215f565b91506120788361215f565b92508261208857612087612229565b5b828204905092915050565b600061209e8261215f565b91506120a98361215f565b9250817fffffffffffffffffffffffffffffffffffffffffffffffffffffffffffffffff04831182151516156120e2576120e16121fa565b5b828202905092915050565b60006120f88261215f565b91506121038361215f565b925082821015612116576121156121fa565b5b828203905092915050565b600061212c8261213f565b9050919050565b60008115159050919050565b600073ffffffffffffffffffffffffffffffffffffffff82169050919050565b6000819050919050565b60006121748261217b565b9050919050565b60006121868261213f565b9050919050565b60006121988261219f565b9050919050565b60006121aa8261213f565b9050919050565b60006121bc8261215f565b91507fffffffffffffffffffffffffffffffffffffffffffffffffffffffffffffffff8214156121ef576121ee6121fa565b5b600182019050919050565b7f4e487b7100000000000000000000000000000000000000000000000000000000600052601160045260246000fd5b7f4e487b7100000000000000000000000000000000000000000000000000000000600052601260045260246000fd5b7f4f776e61626c653a206e6577206f776e657220697320746865207a65726f206160008201527f6464726573730000000000000000000000000000000000000000000000000000602082015250565b7f596f752068617665206e6f20746f6b656e73207374616b656400000000000000600082015250565b7f6e6f7420617070726f7665000000000000000000000000000000000000000000600082015250565b7f4f776e61626c653a2063616c6c6572206973206e6f7420746865206f776e6572600082015250565b7f596f752068617665206e6f207265776172647320746f20636c61696d00000000600082015250565b7f5573657220686173206e6f20746f6b656e73207374616b656400000000000000600082015250565b7f5265656e7472616e637947756172643a207265656e7472616e742063616c6c00600082015250565b6123a681612121565b81146123b157600080fd5b50565b6123bd81612133565b81146123c857600080fd5b50565b6123d48161215f565b81146123df57600080fd5b5056fea2646970667358221220fc0b6fba0494459f1eb3d2bb0a203923ce54c2f2f7bfa3e729c7b5eaf884598464736f6c63430008040033",
  "immutableReferences": {
    "3817": [
      {
        "length": 32,
        "start": 1135
      },
      {
        "length": 32,
        "start": 2209
      },
      {
        "length": 32,
        "start": 4291
      },
      {
        "length": 32,
        "start": 4853
      },
      {
        "length": 32,
        "start": 5592
      }
    ],
    "3820": [
      {
        "length": 32,
        "start": 3598
      },
      {
        "length": 32,
        "start": 4010
      }
    ]
  },
  "source": "// SPDX-License-Identifier: MIT\r\npragma solidity ^0.8.4;\r\n\r\nimport \"./AmusementArcadeToken.sol\";\r\nimport \"./CreateNFT.sol\";\r\nimport \"@openzeppelin/contracts/access/Ownable.sol\";\r\nimport \"@openzeppelin/contracts/security/ReentrancyGuard.sol\";\r\nimport \"@openzeppelin/contracts/utils/Counters.sol\";\r\n// import \"hardhat/console.sol\";\r\n\r\ncontract StakingToken is Ownable, ReentrancyGuard {\r\n        using Counters for Counters.Counter;\r\n    Counters.Counter private _StakerIds;\r\n\r\n    // using SafeERC20 for IERC20;\r\n\r\n    // Interfaces for ERC20 and ERC721\r\n    AmusementArcadeToken public immutable rewardsToken;\r\n    CreateNFT public immutable nftCollection;\r\n\r\n    // Staker info\r\n    struct Staker {\r\n        address stakerAddress;\r\n        // Amount of ERC721 Tokens staked\r\n        uint256 amountStaked;\r\n        // Last time of details update for this User\r\n        uint256 timeOfLastUpdate;\r\n        // Calculated, but unclaimed rewards for the User. The rewards are\r\n        // calculated each time the user writes to the Smart Contract\r\n        uint256 unclaimedRewards;\r\n    }\r\n\r\n        event addStaker (\r\n      uint256 indexed stakerId,\r\n      address stakerAddress,\r\n      uint256 amount\r\n    );\r\n\r\n        event withdrawAmount (\r\n      uint256 indexed stakerId,\r\n      address stakerAddress,\r\n      uint256 amount\r\n    );\r\n\r\n        event totalunclaimedRewards (\r\n      uint256 amount\r\n    );\r\n\r\n    // Rewards per hour per token deposited in wei.\r\n    // Rewards are cumulated once every hour.\r\n    uint256 private rewardsPercent = 1;\r\n\r\n    // Mapping of User Address to Staker info\r\n    mapping(uint256 => Staker) public stakers;\r\n        mapping(address => uint256) private StakerId;\r\n        mapping(address => bool) public approve;\r\n\r\n\r\n    // Constructor function\r\n    constructor(CreateNFT _nftCollection, AmusementArcadeToken _rewardsToken) {\r\n        nftCollection = _nftCollection;\r\n        rewardsToken = _rewardsToken;\r\n    }\r\n\r\n    // If address already has ERC721 Token/s staked, calculate the rewards.\r\n    // For every new Token Id in param transferFrom user to this Smart Contract,\r\n    // increment the amountStaked and map msg.sender to the Token Id of the staked\r\n    // Token to later send back on withdrawal. Finally give timeOfLastUpdate the\r\n    // value of now.\r\n\r\n\r\nmodifier checkNFT() {\r\n    require(nftCollection.balanceOf(msg.sender)!=0);\r\n    _;\r\n}\r\n\r\n\r\n    function stake(uint256 _amount) external checkNFT nonReentrant {\r\n        require(_amount>= 500*10**18);\r\n            require(rewardsToken.balanceOf(msg.sender)>=_amount);\r\n                      _StakerIds.increment();\r\n      uint256 makeStakerId = _StakerIds.current();\r\n        if(StakerId[msg.sender]==0){\r\nStakerId[msg.sender] = makeStakerId;\r\n        }\r\n        if (stakers[StakerId[msg.sender]].amountStaked > 0) {\r\n            uint256 rewards = calculateRewards(msg.sender);\r\n            stakers[StakerId[msg.sender]].unclaimedRewards += rewards;\r\n        }\r\n\r\n            rewardsToken.transferFrom(msg.sender, address(this), _amount);\r\n             stakers[StakerId[msg.sender]].stakerAddress = msg.sender;\r\nstakers[StakerId[msg.sender]].amountStaked+=_amount;\r\n            stakers[StakerId[msg.sender]].timeOfLastUpdate = block.timestamp;\r\n            emit addStaker(StakerId[msg.sender],msg.sender,stakers[StakerId[msg.sender]].amountStaked);\r\n\r\n    }\r\n\r\n    // Check if user has any ERC721 Tokens Staked and if he tried to withdraw,\r\n    // calculate the rewards and store them in the unclaimedRewards and for each\r\n    // ERC721 Token in param: check if msg.sender is the original staker, decrement\r\n    // the amountStaked of the user and transfer the ERC721 token back to them.\r\n    function withdraw(uint256 _amount) external nonReentrant {\r\n        require(StakerId[msg.sender]!=0);\r\n        require(\r\n            stakers[StakerId[msg.sender]].amountStaked > 0,\r\n            \"You have no tokens staked\"\r\n        );\r\n        uint256 rewards = calculateRewards(msg.sender);\r\n        stakers[StakerId[msg.sender]].unclaimedRewards += rewards;\r\n        rewardsToken.transfer(msg.sender , _amount);\r\n        stakers[StakerId[msg.sender]].amountStaked -= _amount;\r\n        stakers[StakerId[msg.sender]].timeOfLastUpdate = block.timestamp;\r\n        emit withdrawAmount(StakerId[msg.sender],msg.sender,stakers[StakerId[msg.sender]].amountStaked);\r\n    }\r\n\r\n    // Calculate rewards for the msg.sender, check if there are any rewards\r\n    // claim, set unclaimedRewards to 0 and transfer the ERC20 Reward token\r\n    // to the user.\r\n\r\n    function claimRewards() external {\r\n        uint256 rewards = stakers[StakerId[msg.sender]].unclaimedRewards;\r\n        // uint256 rewards = calculateRewards(msg.sender) +\r\n        //     stakers[msg.sender].unclaimedRewards;\r\n        require(rewards > 0, \"You have no rewards to claim\");\r\n        require(approve[msg.sender]==true,\"not approve\");\r\n        stakers[StakerId[msg.sender]].timeOfLastUpdate = block.timestamp;\r\n        stakers[StakerId[msg.sender]].unclaimedRewards = 0;\r\n        rewardsToken.transfer(msg.sender, rewards);\r\n        approve[msg.sender]=false;\r\n    }\r\n\r\nfunction findStakerId(address _userAddress) public view onlyOwner returns(uint256){\r\n    return StakerId[_userAddress];\r\n}\r\n\r\n    \r\nfunction resettimer (uint256[] calldata _stakerIds) public onlyOwner returns(bool){\r\nuint256 len = _stakerIds.length;\r\nuint256 unclaimedRewards = 0;\r\nfor(uint256 i=0; i < len; i++){\r\n    Staker memory checkstakers = stakers[_stakerIds[i]];\r\n    if( checkstakers.amountStaked > 0||checkstakers.unclaimedRewards>0){\r\n                    uint256 rewards = calculateRewards(checkstakers.stakerAddress);\r\n        stakers[_stakerIds[i]].unclaimedRewards += rewards;\r\n        stakers[_stakerIds[i]].timeOfLastUpdate = block.timestamp;\r\n        approve[checkstakers.stakerAddress] = true;\r\n        unclaimedRewards+=stakers[_stakerIds[i]].unclaimedRewards;\r\n    }\r\n}\r\n emit totalunclaimedRewards(unclaimedRewards);\r\n    return true;\r\n}\r\n\r\n\r\n    // Set the rewardsPerHour variable\r\n    function setRewardsPercent(uint256 _newValue) public onlyOwner {\r\n        rewardsPercent = _newValue;\r\n    }\r\n\r\n    //////////\r\n    // View //\r\n    //////////\r\n\r\n    function userStakeInfo(address _user)\r\n        public\r\n        view\r\n        returns (uint256 _tokensStaked, uint256 _availableRewards)\r\n    {\r\n        return (stakers[StakerId[_user]].amountStaked, availableRewards(_user));\r\n    }\r\n\r\n    function availableRewards(address _user) internal view returns (uint256) {\r\n                require(StakerId[_user]!=0);\r\n        require(stakers[StakerId[_user]].amountStaked > 0||stakers[StakerId[_user]].unclaimedRewards>0, \"User has no tokens staked\");\r\n        uint256 _rewards = stakers[StakerId[_user]].unclaimedRewards +\r\n            calculateRewards(_user);\r\n        return _rewards;\r\n    }\r\n\r\n    /////////////\r\n    // Internal//\r\n    /////////////\r\n\r\n    // Calculate rewards for param _staker by calculating the time passed\r\n    // since last update in hours and mulitplying it to ERC721 Tokens Staked\r\n    // and rewardsPerHour.\r\n    function calculateRewards(address _staker)\r\n        internal\r\n        view\r\n        returns (uint256 _rewards)\r\n    {\r\n        return ((((stakers[StakerId[_staker]].amountStaked*rewardsPercent)/100)/86400)*(block.timestamp - stakers[StakerId[_staker]].timeOfLastUpdate));\r\n    }\r\n}",
  "sourcePath": "C:\\Users\\KGA_27\\Desktop\\play-to-earn\\contracts\\StakingToken.sol",
  "compiler": {
    "name": "solc",
    "version": "0.8.4+commit.c7e474f2.Emscripten.clang"
  },
  "schemaVersion": "3.4.6",
  "updatedAt": "2022-04-26T00:30:42.697Z",
  "networkType": "ethereum",
  "devdoc": {
    "kind": "dev",
    "methods": {
      "owner()": {
        "details": "Returns the address of the current owner."
      },
      "renounceOwnership()": {
        "details": "Leaves the contract without owner. It will not be possible to call `onlyOwner` functions anymore. Can only be called by the current owner. NOTE: Renouncing ownership will leave the contract without an owner, thereby removing any functionality that is only available to the owner."
      },
      "transferOwnership(address)": {
        "details": "Transfers ownership of the contract to a new account (`newOwner`). Can only be called by the current owner."
      }
    },
    "version": 1
  },
  "userdoc": {
    "kind": "user",
    "methods": {},
    "version": 1
  }
}