{
  "contractName": "TokenClaim",
  "abi": [
    {
      "inputs": [
        {
          "internalType": "address",
          "name": "TokenAddress",
          "type": "address"
        },
        {
          "internalType": "address",
          "name": "NFTAddress",
          "type": "address"
        }
      ],
      "stateMutability": "nonpayable",
      "type": "constructor"
    },
    {
      "anonymous": false,
      "inputs": [
        {
          "indexed": true,
          "internalType": "address",
          "name": "previousOwner",
          "type": "address"
        },
        {
          "indexed": true,
          "internalType": "address",
          "name": "newOwner",
          "type": "address"
        }
      ],
      "name": "OwnershipTransferred",
      "type": "event"
    },
    {
      "inputs": [
        {
          "internalType": "address",
          "name": "",
          "type": "address"
        },
        {
          "internalType": "address",
          "name": "",
          "type": "address"
        }
      ],
      "name": "claim",
      "outputs": [
        {
          "internalType": "uint256",
          "name": "",
          "type": "uint256"
        }
      ],
      "stateMutability": "view",
      "type": "function",
      "constant": true
    },
    {
      "inputs": [],
      "name": "owner",
      "outputs": [
        {
          "internalType": "address",
          "name": "",
          "type": "address"
        }
      ],
      "stateMutability": "view",
      "type": "function",
      "constant": true
    },
    {
      "inputs": [],
      "name": "renounceOwnership",
      "outputs": [],
      "stateMutability": "nonpayable",
      "type": "function"
    },
    {
      "inputs": [
        {
          "internalType": "address",
          "name": "newOwner",
          "type": "address"
        }
      ],
      "name": "transferOwnership",
      "outputs": [],
      "stateMutability": "nonpayable",
      "type": "function"
    },
    {
      "inputs": [
        {
          "internalType": "address",
          "name": "user",
          "type": "address"
        },
        {
          "internalType": "uint256",
          "name": "amount",
          "type": "uint256"
        }
      ],
      "name": "setClaim",
      "outputs": [],
      "stateMutability": "nonpayable",
      "type": "function"
    },
    {
      "inputs": [],
      "name": "getClaim",
      "outputs": [
        {
          "internalType": "uint256",
          "name": "",
          "type": "uint256"
        }
      ],
      "stateMutability": "view",
      "type": "function",
      "constant": true
    },
    {
      "inputs": [],
      "name": "getmsgsender",
      "outputs": [
        {
          "internalType": "address",
          "name": "",
          "type": "address"
        }
      ],
      "stateMutability": "view",
      "type": "function",
      "constant": true
    },
    {
      "inputs": [],
      "name": "gettoken",
      "outputs": [],
      "stateMutability": "nonpayable",
      "type": "function"
    },
    {
      "inputs": [
        {
          "internalType": "uint256",
          "name": "_tokenId",
          "type": "uint256"
        }
      ],
      "name": "ChangOption",
      "outputs": [],
      "stateMutability": "nonpayable",
      "type": "function"
    },
    {
      "inputs": [],
      "name": "mybalance",
      "outputs": [
        {
          "internalType": "uint256",
          "name": "",
          "type": "uint256"
        }
      ],
      "stateMutability": "view",
      "type": "function",
      "constant": true
    },
    {
      "inputs": [],
      "name": "contractbalance",
      "outputs": [
        {
          "internalType": "uint256",
          "name": "",
          "type": "uint256"
        }
      ],
      "stateMutability": "view",
      "type": "function",
      "constant": true
    }
  ],
  "bytecode": "0x60806040523480156200001157600080fd5b5060405162001c0f38038062001c0f8339818101604052810190620000379190620001c4565b620000576200004b620000e160201b60201c565b620000e960201b60201c565b81600160006101000a81548173ffffffffffffffffffffffffffffffffffffffff021916908373ffffffffffffffffffffffffffffffffffffffff16021790555080600260006101000a81548173ffffffffffffffffffffffffffffffffffffffff021916908373ffffffffffffffffffffffffffffffffffffffff160217905550505062000253565b600033905090565b60008060009054906101000a900473ffffffffffffffffffffffffffffffffffffffff169050816000806101000a81548173ffffffffffffffffffffffffffffffffffffffff021916908373ffffffffffffffffffffffffffffffffffffffff1602179055508173ffffffffffffffffffffffffffffffffffffffff168173ffffffffffffffffffffffffffffffffffffffff167f8be0079c531659141344cd1fd0a4f28419497f9722a3daafe3b4186f6b6457e060405160405180910390a35050565b600081519050620001be8162000239565b92915050565b60008060408385031215620001d857600080fd5b6000620001e885828601620001ad565b9250506020620001fb85828601620001ad565b9150509250929050565b6000620002128262000219565b9050919050565b600073ffffffffffffffffffffffffffffffffffffffff82169050919050565b620002448162000205565b81146200025057600080fd5b50565b6119ac80620002636000396000f3fe608060405234801561001057600080fd5b50600436106100a95760003560e01c8063715018a611610071578063715018a614610140578063844a8c691461014a5780638da5cb5b14610168578063ac19a2a914610186578063c8dd0d84146101a4578063f2fde38b146101c0576100a9565b806304b2c6c6146100ae57806321c0b342146100b857806330e4f9aa146100e85780633727c0b61461010657806361aec1e014610124575b600080fd5b6100b66101dc565b005b6100d260048036038101906100cd919061143a565b6105e8565b6040516100df9190611733565b60405180910390f35b6100f061060d565b6040516100fd9190611733565b60405180910390f35b61010e6106bf565b60405161011b91906115e6565b60405180910390f35b61013e60048036038101906101399190611476565b610766565b005b610148610b60565b005b610152610be8565b60405161015f9190611733565b60405180910390f35b610170610d29565b60405161017d91906115e6565b60405180910390f35b61018e610d52565b60405161019b9190611733565b60405180910390f35b6101be60048036038101906101b991906114db565b610e04565b005b6101da60048036038101906101d591906113e8565b6111bb565b005b6000600160009054906101000a900473ffffffffffffffffffffffffffffffffffffffff1673ffffffffffffffffffffffffffffffffffffffff1663dd62ed3e30336040518363ffffffff1660e01b815260040161023b929190611601565b60206040518083038186803b15801561025357600080fd5b505afa158015610267573d6000803e3d6000fd5b505050506040513d601f19601f8201168201806040525081019061028b9190611504565b9050600360003073ffffffffffffffffffffffffffffffffffffffff1673ffffffffffffffffffffffffffffffffffffffff16815260200190815260200160002060003373ffffffffffffffffffffffffffffffffffffffff1673ffffffffffffffffffffffffffffffffffffffff16815260200190815260200160002054811461031557600080fd5b80600160009054906101000a900473ffffffffffffffffffffffffffffffffffffffff1673ffffffffffffffffffffffffffffffffffffffff166370a08231306040518263ffffffff1660e01b815260040161037191906115e6565b60206040518083038186803b15801561038957600080fd5b505afa15801561039d573d6000803e3d6000fd5b505050506040513d601f19601f820116820180604052508101906103c19190611504565b1015610402576040517f08c379a00000000000000000000000000000000000000000000000000000000081526004016103f9906116f3565b60405180910390fd5b600160009054906101000a900473ffffffffffffffffffffffffffffffffffffffff1673ffffffffffffffffffffffffffffffffffffffff1663a9059cbb33836040518363ffffffff1660e01b815260040161045f92919061168a565b602060405180830381600087803b15801561047957600080fd5b505af115801561048d573d6000803e3d6000fd5b505050506040513d601f19601f820116820180604052508101906104b191906114b2565b50600160009054906101000a900473ffffffffffffffffffffffffffffffffffffffff1673ffffffffffffffffffffffffffffffffffffffff1663095ea7b33360006040518363ffffffff1660e01b8152600401610510929190611661565b602060405180830381600087803b15801561052a57600080fd5b505af115801561053e573d6000803e3d6000fd5b505050506040513d601f19601f8201168201806040525081019061056291906114b2565b506000600360003073ffffffffffffffffffffffffffffffffffffffff1673ffffffffffffffffffffffffffffffffffffffff16815260200190815260200160002060003373ffffffffffffffffffffffffffffffffffffffff1673ffffffffffffffffffffffffffffffffffffffff1681526020019081526020016000208190555050565b6003602052816000526040600020602052806000526040600020600091509150505481565b6000600160009054906101000a900473ffffffffffffffffffffffffffffffffffffffff1673ffffffffffffffffffffffffffffffffffffffff166370a08231306040518263ffffffff1660e01b815260040161066a91906115e6565b60206040518083038186803b15801561068257600080fd5b505afa158015610696573d6000803e3d6000fd5b505050506040513d601f19601f820116820180604052508101906106ba9190611504565b905090565b6000600160009054906101000a900473ffffffffffffffffffffffffffffffffffffffff1673ffffffffffffffffffffffffffffffffffffffff16633727c0b66040518163ffffffff1660e01b815260040160206040518083038186803b15801561072957600080fd5b505afa15801561073d573d6000803e3d6000fd5b505050506040513d601f19601f820116820180604052508101906107619190611411565b905090565b61076e6112b3565b73ffffffffffffffffffffffffffffffffffffffff1661078c610d29565b73ffffffffffffffffffffffffffffffffffffffff16146107e2576040517f08c379a00000000000000000000000000000000000000000000000000000000081526004016107d990611713565b60405180910390fd5b6000600360003073ffffffffffffffffffffffffffffffffffffffff1673ffffffffffffffffffffffffffffffffffffffff16815260200190815260200160002060008473ffffffffffffffffffffffffffffffffffffffff1673ffffffffffffffffffffffffffffffffffffffff168152602001908152602001600020541115610a2a57600081600360003073ffffffffffffffffffffffffffffffffffffffff1673ffffffffffffffffffffffffffffffffffffffff16815260200190815260200160002060008573ffffffffffffffffffffffffffffffffffffffff1673ffffffffffffffffffffffffffffffffffffffff168152602001908152602001600020546108f19190611788565b905080600360003073ffffffffffffffffffffffffffffffffffffffff1673ffffffffffffffffffffffffffffffffffffffff16815260200190815260200160002060008573ffffffffffffffffffffffffffffffffffffffff1673ffffffffffffffffffffffffffffffffffffffff16815260200190815260200160002081905550600160009054906101000a900473ffffffffffffffffffffffffffffffffffffffff1673ffffffffffffffffffffffffffffffffffffffff1663095ea7b384836040518363ffffffff1660e01b81526004016109d192919061168a565b602060405180830381600087803b1580156109eb57600080fd5b505af11580156109ff573d6000803e3d6000fd5b505050506040513d601f19601f82011682018060405250810190610a2391906114b2565b5050610b5c565b80600360003073ffffffffffffffffffffffffffffffffffffffff1673ffffffffffffffffffffffffffffffffffffffff16815260200190815260200160002060008473ffffffffffffffffffffffffffffffffffffffff1673ffffffffffffffffffffffffffffffffffffffff16815260200190815260200160002081905550600160009054906101000a900473ffffffffffffffffffffffffffffffffffffffff1673ffffffffffffffffffffffffffffffffffffffff1663095ea7b383836040518363ffffffff1660e01b8152600401610b0892919061168a565b602060405180830381600087803b158015610b2257600080fd5b505af1158015610b36573d6000803e3d6000fd5b505050506040513d601f19601f82011682018060405250810190610b5a91906114b2565b505b5050565b610b686112b3565b73ffffffffffffffffffffffffffffffffffffffff16610b86610d29565b73ffffffffffffffffffffffffffffffffffffffff1614610bdc576040517f08c379a0000000000000000000000000000000000000000000000000000000008152600401610bd390611713565b60405180910390fd5b610be660006112bb565b565b600080600360003073ffffffffffffffffffffffffffffffffffffffff1673ffffffffffffffffffffffffffffffffffffffff16815260200190815260200160002060003373ffffffffffffffffffffffffffffffffffffffff1673ffffffffffffffffffffffffffffffffffffffff168152602001908152602001600020549050600160009054906101000a900473ffffffffffffffffffffffffffffffffffffffff1673ffffffffffffffffffffffffffffffffffffffff1663dd62ed3e30336040518363ffffffff1660e01b8152600401610cc7929190611601565b60206040518083038186803b158015610cdf57600080fd5b505afa158015610cf3573d6000803e3d6000fd5b505050506040513d601f19601f82011682018060405250810190610d179190611504565b8114610d2257600080fd5b8091505090565b60008060009054906101000a900473ffffffffffffffffffffffffffffffffffffffff16905090565b6000600160009054906101000a900473ffffffffffffffffffffffffffffffffffffffff1673ffffffffffffffffffffffffffffffffffffffff166370a08231336040518263ffffffff1660e01b8152600401610daf91906115e6565b60206040518083038186803b158015610dc757600080fd5b505afa158015610ddb573d6000803e3d6000fd5b505050506040513d601f19601f82011682018060405250810190610dff9190611504565b905090565b6000600260009054906101000a900473ffffffffffffffffffffffffffffffffffffffff1673ffffffffffffffffffffffffffffffffffffffff166370a08231336040518263ffffffff1660e01b8152600401610e6191906115e6565b60206040518083038186803b158015610e7957600080fd5b505afa158015610e8d573d6000803e3d6000fd5b505050506040513d601f19601f82011682018060405250810190610eb19190611504565b1415610ebc57600080fd5b60006802b5e3af16b1880000905080600160009054906101000a900473ffffffffffffffffffffffffffffffffffffffff1673ffffffffffffffffffffffffffffffffffffffff166370a08231336040518263ffffffff1660e01b8152600401610f2691906115e6565b60206040518083038186803b158015610f3e57600080fd5b505afa158015610f52573d6000803e3d6000fd5b505050506040513d601f19601f82011682018060405250810190610f769190611504565b11610fb6576040517f08c379a0000000000000000000000000000000000000000000000000000000008152600401610fad906116b3565b60405180910390fd5b600160009054906101000a900473ffffffffffffffffffffffffffffffffffffffff1673ffffffffffffffffffffffffffffffffffffffff166323b872dd33600160009054906101000a900473ffffffffffffffffffffffffffffffffffffffff1673ffffffffffffffffffffffffffffffffffffffff1663893d20e86040518163ffffffff1660e01b815260040160206040518083038186803b15801561105d57600080fd5b505afa158015611071573d6000803e3d6000fd5b505050506040513d601f19601f820116820180604052508101906110959190611411565b846040518463ffffffff1660e01b81526004016110b49392919061162a565b602060405180830381600087803b1580156110ce57600080fd5b505af11580156110e2573d6000803e3d6000fd5b505050506040513d601f19601f8201168201806040525081019061110691906114b2565b50600260009054906101000a900473ffffffffffffffffffffffffffffffffffffffff1673ffffffffffffffffffffffffffffffffffffffff1663e6023baf83336040518363ffffffff1660e01b815260040161116492919061174e565b602060405180830381600087803b15801561117e57600080fd5b505af1158015611192573d6000803e3d6000fd5b505050506040513d601f19601f820116820180604052508101906111b691906114b2565b505050565b6111c36112b3565b73ffffffffffffffffffffffffffffffffffffffff166111e1610d29565b73ffffffffffffffffffffffffffffffffffffffff1614611237576040517f08c379a000000000000000000000000000000000000000000000000000000000815260040161122e90611713565b60405180910390fd5b600073ffffffffffffffffffffffffffffffffffffffff168173ffffffffffffffffffffffffffffffffffffffff1614156112a7576040517f08c379a000000000000000000000000000000000000000000000000000000000815260040161129e906116d3565b60405180910390fd5b6112b0816112bb565b50565b600033905090565b60008060009054906101000a900473ffffffffffffffffffffffffffffffffffffffff169050816000806101000a81548173ffffffffffffffffffffffffffffffffffffffff021916908373ffffffffffffffffffffffffffffffffffffffff1602179055508173ffffffffffffffffffffffffffffffffffffffff168173ffffffffffffffffffffffffffffffffffffffff167f8be0079c531659141344cd1fd0a4f28419497f9722a3daafe3b4186f6b6457e060405160405180910390a35050565b60008135905061138e81611931565b92915050565b6000815190506113a381611931565b92915050565b6000815190506113b881611948565b92915050565b6000813590506113cd8161195f565b92915050565b6000815190506113e28161195f565b92915050565b6000602082840312156113fa57600080fd5b60006114088482850161137f565b91505092915050565b60006020828403121561142357600080fd5b600061143184828501611394565b91505092915050565b6000806040838503121561144d57600080fd5b600061145b8582860161137f565b925050602061146c8582860161137f565b9150509250929050565b6000806040838503121561148957600080fd5b60006114978582860161137f565b92505060206114a8858286016113be565b9150509250929050565b6000602082840312156114c457600080fd5b60006114d2848285016113a9565b91505092915050565b6000602082840312156114ed57600080fd5b60006114fb848285016113be565b91505092915050565b60006020828403121561151657600080fd5b6000611524848285016113d3565b91505092915050565b611536816117de565b82525050565b61154581611826565b82525050565b6000611558601683611777565b915061156382611867565b602082019050919050565b600061157b602683611777565b915061158682611890565b604082019050919050565b600061159e601f83611777565b91506115a9826118df565b602082019050919050565b60006115c1602083611777565b91506115cc82611908565b602082019050919050565b6115e08161181c565b82525050565b60006020820190506115fb600083018461152d565b92915050565b6000604082019050611616600083018561152d565b611623602083018461152d565b9392505050565b600060608201905061163f600083018661152d565b61164c602083018561152d565b61165960408301846115d7565b949350505050565b6000604082019050611676600083018561152d565b611683602083018461153c565b9392505050565b600060408201905061169f600083018561152d565b6116ac60208301846115d7565b9392505050565b600060208201905081810360008301526116cc8161154b565b9050919050565b600060208201905081810360008301526116ec8161156e565b9050919050565b6000602082019050818103600083015261170c81611591565b9050919050565b6000602082019050818103600083015261172c816115b4565b9050919050565b600060208201905061174860008301846115d7565b92915050565b600060408201905061176360008301856115d7565b611770602083018461152d565b9392505050565b600082825260208201905092915050565b60006117938261181c565b915061179e8361181c565b9250827fffffffffffffffffffffffffffffffffffffffffffffffffffffffffffffffff038211156117d3576117d2611838565b5b828201905092915050565b60006117e9826117fc565b9050919050565b60008115159050919050565b600073ffffffffffffffffffffffffffffffffffffffff82169050919050565b6000819050919050565b60006118318261181c565b9050919050565b7f4e487b7100000000000000000000000000000000000000000000000000000000600052601160045260246000fd5b7f616d6f756e7420657863656564732062616c616e636500000000000000000000600082015250565b7f4f776e61626c653a206e6577206f776e657220697320746865207a65726f206160008201527f6464726573730000000000000000000000000000000000000000000000000000602082015250565b7f7472616e7366657220616d6f756e7420657863656564732062616c616e636500600082015250565b7f4f776e61626c653a2063616c6c6572206973206e6f7420746865206f776e6572600082015250565b61193a816117de565b811461194557600080fd5b50565b611951816117f0565b811461195c57600080fd5b50565b6119688161181c565b811461197357600080fd5b5056fea264697066735822122005db3eb8fcc77e4a2951db68f086ef5d70e4d9fc9d36e69e2017c88eb67ed59864736f6c63430008040033",
  "immutableReferences": {},
  "source": "// SPDX-License-Identifier: MIT\r\npragma solidity ^0.8.4;\r\n\r\nimport \"./CreateNFT.sol\";\r\nimport \"./AmusementArcadeToken.sol\";\r\nimport \"@openzeppelin/contracts/access/Ownable.sol\";\r\n\r\ncontract TokenClaim is Ownable{\r\n\r\n\r\n    AmusementArcadeToken private ArcadeToken;\r\n    CreateNFT private NFT;\r\n\r\n    constructor(address TokenAddress, address NFTAddress) {\r\n    ArcadeToken =  AmusementArcadeToken(TokenAddress);\r\n    NFT =  CreateNFT(NFTAddress);\r\n    }\r\n\r\nmapping(address=>mapping(address=>uint)) public claim;\r\n\r\n\r\n\r\nmodifier checkNFT() {\r\n    require(NFT.balanceOf(msg.sender)!=0);\r\n    _;\r\n}\r\n\r\nfunction setClaim(address user,uint amount) public onlyOwner{\r\n    if(claim[address(this)][user]>0){\r\n        uint newAmount = claim[address(this)][user]+amount;\r\n        claim[address(this)][user] = newAmount;\r\n        ArcadeToken.approve(user,newAmount);\r\n    } else {\r\nclaim[address(this)][user] = amount;\r\nArcadeToken.approve(user,amount);\r\n    }\r\n}\r\n\r\n  function getClaim() public view returns(uint) {\r\n      uint myclaim = claim[address(this)][msg.sender];\r\n      require(myclaim==ArcadeToken.allowance(address(this),msg.sender));\r\n      return myclaim;\r\n  }\r\n\r\n  function getmsgsender() public view returns (address) {\r\n    return ArcadeToken.getmsgsender();\r\n  }\r\n\r\n  function gettoken() public {\r\n      uint tokenvalue = ArcadeToken.allowance(address(this),msg.sender);\r\n      require(tokenvalue==claim[address(this)][msg.sender]);\r\n      require(ArcadeToken.balanceOf(address(this))>=\r\n      tokenvalue,\"transfer amount exceeds balance\");\r\n      ArcadeToken.transfer(msg.sender,tokenvalue);\r\n      ArcadeToken.approve(msg.sender,0);\r\n      claim[address(this)][msg.sender] = 0;\r\n  }\r\n\r\nfunction ChangOption(uint _tokenId ) public checkNFT{\r\n    uint cost = 50 ether;\r\n    require(ArcadeToken.balanceOf(msg.sender)>cost,\"amount exceeds balance\");\r\nArcadeToken.transferFrom(msg.sender,ArcadeToken.getOwner(),cost);\r\n    NFT.changeOption(_tokenId,msg.sender);\r\n}\r\n\r\n\r\nfunction mybalance()public view returns(uint){\r\n    return ArcadeToken.balanceOf(msg.sender);\r\n}\r\n\r\nfunction contractbalance()public view returns(uint){\r\n    return ArcadeToken.balanceOf(address(this));\r\n}\r\n\r\n}",
  "sourcePath": "C:\\Users\\KGA_27\\Desktop\\play-to-earn\\contracts\\TokenClaim.sol",
  "compiler": {
    "name": "solc",
    "version": "0.8.4+commit.c7e474f2.Emscripten.clang"
  },
  "schemaVersion": "3.4.6",
  "updatedAt": "2022-04-26T00:30:42.687Z",
  "networkType": "ethereum",
  "devdoc": {
    "kind": "dev",
    "methods": {
      "owner()": {
        "details": "Returns the address of the current owner."
      },
      "renounceOwnership()": {
        "details": "Leaves the contract without owner. It will not be possible to call `onlyOwner` functions anymore. Can only be called by the current owner. NOTE: Renouncing ownership will leave the contract without an owner, thereby removing any functionality that is only available to the owner."
      },
      "transferOwnership(address)": {
        "details": "Transfers ownership of the contract to a new account (`newOwner`). Can only be called by the current owner."
      }
    },
    "version": 1
  },
  "userdoc": {
    "kind": "user",
    "methods": {},
    "version": 1
  }
}