{
  "contractName": "Bscsimpletoken",
  "abi": [
    {
      "inputs": [],
      "stateMutability": "nonpayable",
      "type": "constructor"
    },
    {
      "anonymous": false,
      "inputs": [
        {
          "indexed": true,
          "internalType": "address",
          "name": "from",
          "type": "address"
        },
        {
          "indexed": true,
          "internalType": "address",
          "name": "to",
          "type": "address"
        },
        {
          "indexed": false,
          "internalType": "uint256",
          "name": "value",
          "type": "uint256"
        }
      ],
      "name": "Transfer",
      "type": "event"
    },
    {
      "inputs": [
        {
          "internalType": "address",
          "name": "",
          "type": "address"
        }
      ],
      "name": "balances",
      "outputs": [
        {
          "internalType": "uint256",
          "name": "",
          "type": "uint256"
        }
      ],
      "stateMutability": "view",
      "type": "function",
      "constant": true
    },
    {
      "inputs": [],
      "name": "decimals",
      "outputs": [
        {
          "internalType": "uint256",
          "name": "",
          "type": "uint256"
        }
      ],
      "stateMutability": "view",
      "type": "function",
      "constant": true
    },
    {
      "inputs": [],
      "name": "name",
      "outputs": [
        {
          "internalType": "string",
          "name": "",
          "type": "string"
        }
      ],
      "stateMutability": "view",
      "type": "function",
      "constant": true
    },
    {
      "inputs": [],
      "name": "symbol",
      "outputs": [
        {
          "internalType": "string",
          "name": "",
          "type": "string"
        }
      ],
      "stateMutability": "view",
      "type": "function",
      "constant": true
    },
    {
      "inputs": [],
      "name": "totalSupply",
      "outputs": [
        {
          "internalType": "uint256",
          "name": "",
          "type": "uint256"
        }
      ],
      "stateMutability": "view",
      "type": "function",
      "constant": true
    },
    {
      "inputs": [
        {
          "internalType": "address",
          "name": "owner",
          "type": "address"
        }
      ],
      "name": "balanceOf",
      "outputs": [
        {
          "internalType": "uint256",
          "name": "",
          "type": "uint256"
        }
      ],
      "stateMutability": "view",
      "type": "function",
      "constant": true
    },
    {
      "inputs": [
        {
          "internalType": "address",
          "name": "to",
          "type": "address"
        },
        {
          "internalType": "uint256",
          "name": "value",
          "type": "uint256"
        }
      ],
      "name": "transfer",
      "outputs": [
        {
          "internalType": "bool",
          "name": "",
          "type": "bool"
        }
      ],
      "stateMutability": "nonpayable",
      "type": "function"
    }
  ],
  "bytecode": "0x608060405269021e19e0c9bab24000006001556040518060400160405280601081526020017f4273632053696d706c6520546f6b656e000000000000000000000000000000008152506002908051906020019061005d929190610106565b506040518060400160405280600381526020017f4253540000000000000000000000000000000000000000000000000000000000815250600390805190602001906100a9929190610106565b5060126004553480156100bb57600080fd5b506001546000803373ffffffffffffffffffffffffffffffffffffffff1673ffffffffffffffffffffffffffffffffffffffff1681526020019081526020016000208190555061020a565b828054610112906101d8565b90600052602060002090601f016020900481019282610134576000855561017b565b82601f1061014d57805160ff191683800117855561017b565b8280016001018555821561017b579182015b8281111561017a57825182559160200191906001019061015f565b5b509050610188919061018c565b5090565b5b808211156101a557600081600090555060010161018d565b5090565b7f4e487b7100000000000000000000000000000000000000000000000000000000600052602260045260246000fd5b600060028204905060018216806101f057607f821691505b60208210811415610204576102036101a9565b5b50919050565b610855806102196000396000f3fe608060405234801561001057600080fd5b506004361061007d5760003560e01c8063313ce5671161005b578063313ce567146100ee57806370a082311461010c57806395d89b411461013c578063a9059cbb1461015a5761007d565b806306fdde031461008257806318160ddd146100a057806327e235e3146100be575b600080fd5b61008a61018a565b6040516100979190610511565b60405180910390f35b6100a8610218565b6040516100b5919061054c565b60405180910390f35b6100d860048036038101906100d391906105ca565b61021e565b6040516100e5919061054c565b60405180910390f35b6100f6610236565b604051610103919061054c565b60405180910390f35b610126600480360381019061012191906105ca565b61023c565b604051610133919061054c565b60405180910390f35b610144610284565b6040516101519190610511565b60405180910390f35b610174600480360381019061016f9190610623565b610312565b604051610181919061067e565b60405180910390f35b60028054610197906106c8565b80601f01602080910402602001604051908101604052809291908181526020018280546101c3906106c8565b80156102105780601f106101e557610100808354040283529160200191610210565b820191906000526020600020905b8154815290600101906020018083116101f357829003601f168201915b505050505081565b60015481565b60006020528060005260406000206000915090505481565b60045481565b60008060008373ffffffffffffffffffffffffffffffffffffffff1673ffffffffffffffffffffffffffffffffffffffff168152602001908152602001600020549050919050565b60038054610291906106c8565b80601f01602080910402602001604051908101604052809291908181526020018280546102bd906106c8565b801561030a5780601f106102df5761010080835404028352916020019161030a565b820191906000526020600020905b8154815290600101906020018083116102ed57829003601f168201915b505050505081565b60008161031e3361023c565b101561035f576040517f08c379a000000000000000000000000000000000000000000000000000000000815260040161035690610746565b60405180910390fd5b816000808573ffffffffffffffffffffffffffffffffffffffff1673ffffffffffffffffffffffffffffffffffffffff16815260200190815260200160002060008282546103ad9190610795565b92505081905550816000803373ffffffffffffffffffffffffffffffffffffffff1673ffffffffffffffffffffffffffffffffffffffff168152602001908152602001600020600082825461040291906107eb565b925050819055508273ffffffffffffffffffffffffffffffffffffffff163373ffffffffffffffffffffffffffffffffffffffff167fddf252ad1be2c89b69c2b068fc378daa952ba7f163c4a11628f55a4df523b3ef84604051610466919061054c565b60405180910390a36001905092915050565b600081519050919050565b600082825260208201905092915050565b60005b838110156104b2578082015181840152602081019050610497565b838111156104c1576000848401525b50505050565b6000601f19601f8301169050919050565b60006104e382610478565b6104ed8185610483565b93506104fd818560208601610494565b610506816104c7565b840191505092915050565b6000602082019050818103600083015261052b81846104d8565b905092915050565b6000819050919050565b61054681610533565b82525050565b6000602082019050610561600083018461053d565b92915050565b600080fd5b600073ffffffffffffffffffffffffffffffffffffffff82169050919050565b60006105978261056c565b9050919050565b6105a78161058c565b81146105b257600080fd5b50565b6000813590506105c48161059e565b92915050565b6000602082840312156105e0576105df610567565b5b60006105ee848285016105b5565b91505092915050565b61060081610533565b811461060b57600080fd5b50565b60008135905061061d816105f7565b92915050565b6000806040838503121561063a57610639610567565b5b6000610648858286016105b5565b92505060206106598582860161060e565b9150509250929050565b60008115159050919050565b61067881610663565b82525050565b6000602082019050610693600083018461066f565b92915050565b7f4e487b7100000000000000000000000000000000000000000000000000000000600052602260045260246000fd5b600060028204905060018216806106e057607f821691505b602082108114156106f4576106f3610699565b5b50919050565b7f62616c616e636520746f6f206c6f770000000000000000000000000000000000600082015250565b6000610730600f83610483565b915061073b826106fa565b602082019050919050565b6000602082019050818103600083015261075f81610723565b9050919050565b7f4e487b7100000000000000000000000000000000000000000000000000000000600052601160045260246000fd5b60006107a082610533565b91506107ab83610533565b9250827fffffffffffffffffffffffffffffffffffffffffffffffffffffffffffffffff038211156107e0576107df610766565b5b828201905092915050565b60006107f682610533565b915061080183610533565b92508282101561081457610813610766565b5b82820390509291505056fea26469706673582212207f6813703abdf0b985b23983a8597e9a220e931f105c6914f856e7fad68765a964736f6c634300080b0033",
  "immutableReferences": {},
  "source": "// SPDX-License-Identifier: MIT\r\npragma solidity ^0.8.11;\r\n\r\ncontract Bscsimpletoken {\r\n    mapping(address=> uint) public balances;\r\n\r\n    uint public totalSupply = 10000 * 10 ** 18;\r\n    string public name = \"Bsc Simple Token\";\r\n    string public symbol = \"BST\";\r\n    uint public decimals = 18;\r\n\r\n    event Transfer(address indexed from, address indexed to, uint value);\r\n\r\n    constructor() {\r\n        balances[msg.sender] = totalSupply;\r\n    }\r\n    \r\n    function balanceOf(address owner) public view returns(uint) {\r\n        return balances[owner];\r\n    }\r\n\r\n    function transfer(address to, uint value) public returns(bool) {\r\n        require(balanceOf(msg.sender) >= value, 'balance too low');\r\n        balances[to] += value;\r\n        balances[msg.sender] -= value;\r\n        emit Transfer(msg.sender, to, value);\r\n        return true;\r\n    }\r\n\r\n}",
  "sourcePath": "C:\\play-to-earn\\contracts\\Bscsimpletoken.sol",
  "compiler": {
    "name": "solc",
    "version": "0.8.11+commit.d7f03943.Emscripten.clang"
  },
  "schemaVersion": "3.4.5",
  "updatedAt": "2022-03-16T00:56:15.277Z",
  "networkType": "ethereum",
  "devdoc": {
    "kind": "dev",
    "methods": {},
    "version": 1
  },
  "userdoc": {
    "kind": "user",
    "methods": {},
    "version": 1
  }
}