{
  "contractName": "CreateNameToken",
  "abi": [
    {
      "inputs": [],
      "stateMutability": "nonpayable",
      "type": "constructor"
    },
    {
      "anonymous": false,
      "inputs": [
        {
          "indexed": true,
          "internalType": "address",
          "name": "owner",
          "type": "address"
        },
        {
          "indexed": true,
          "internalType": "address",
          "name": "approved",
          "type": "address"
        },
        {
          "indexed": true,
          "internalType": "uint256",
          "name": "tokenId",
          "type": "uint256"
        }
      ],
      "name": "Approval",
      "type": "event"
    },
    {
      "anonymous": false,
      "inputs": [
        {
          "indexed": true,
          "internalType": "address",
          "name": "owner",
          "type": "address"
        },
        {
          "indexed": true,
          "internalType": "address",
          "name": "operator",
          "type": "address"
        },
        {
          "indexed": false,
          "internalType": "bool",
          "name": "approved",
          "type": "bool"
        }
      ],
      "name": "ApprovalForAll",
      "type": "event"
    },
    {
      "anonymous": false,
      "inputs": [
        {
          "indexed": true,
          "internalType": "address",
          "name": "previousOwner",
          "type": "address"
        },
        {
          "indexed": true,
          "internalType": "address",
          "name": "newOwner",
          "type": "address"
        }
      ],
      "name": "OwnershipTransferred",
      "type": "event"
    },
    {
      "anonymous": false,
      "inputs": [
        {
          "indexed": true,
          "internalType": "address",
          "name": "from",
          "type": "address"
        },
        {
          "indexed": true,
          "internalType": "address",
          "name": "to",
          "type": "address"
        },
        {
          "indexed": true,
          "internalType": "uint256",
          "name": "tokenId",
          "type": "uint256"
        }
      ],
      "name": "Transfer",
      "type": "event"
    },
    {
      "inputs": [
        {
          "internalType": "address",
          "name": "to",
          "type": "address"
        },
        {
          "internalType": "uint256",
          "name": "tokenId",
          "type": "uint256"
        }
      ],
      "name": "approve",
      "outputs": [],
      "stateMutability": "nonpayable",
      "type": "function"
    },
    {
      "inputs": [
        {
          "internalType": "address",
          "name": "owner",
          "type": "address"
        }
      ],
      "name": "balanceOf",
      "outputs": [
        {
          "internalType": "uint256",
          "name": "",
          "type": "uint256"
        }
      ],
      "stateMutability": "view",
      "type": "function",
      "constant": true
    },
    {
      "inputs": [
        {
          "internalType": "uint256",
          "name": "tokenId",
          "type": "uint256"
        }
      ],
      "name": "getApproved",
      "outputs": [
        {
          "internalType": "address",
          "name": "",
          "type": "address"
        }
      ],
      "stateMutability": "view",
      "type": "function",
      "constant": true
    },
    {
      "inputs": [
        {
          "internalType": "address",
          "name": "owner",
          "type": "address"
        },
        {
          "internalType": "address",
          "name": "operator",
          "type": "address"
        }
      ],
      "name": "isApprovedForAll",
      "outputs": [
        {
          "internalType": "bool",
          "name": "",
          "type": "bool"
        }
      ],
      "stateMutability": "view",
      "type": "function",
      "constant": true
    },
    {
      "inputs": [],
      "name": "name",
      "outputs": [
        {
          "internalType": "string",
          "name": "",
          "type": "string"
        }
      ],
      "stateMutability": "view",
      "type": "function",
      "constant": true
    },
    {
      "inputs": [],
      "name": "owner",
      "outputs": [
        {
          "internalType": "address",
          "name": "",
          "type": "address"
        }
      ],
      "stateMutability": "view",
      "type": "function",
      "constant": true
    },
    {
      "inputs": [
        {
          "internalType": "uint256",
          "name": "tokenId",
          "type": "uint256"
        }
      ],
      "name": "ownerOf",
      "outputs": [
        {
          "internalType": "address",
          "name": "",
          "type": "address"
        }
      ],
      "stateMutability": "view",
      "type": "function",
      "constant": true
    },
    {
      "inputs": [],
      "name": "renounceOwnership",
      "outputs": [],
      "stateMutability": "nonpayable",
      "type": "function"
    },
    {
      "inputs": [
        {
          "internalType": "address",
          "name": "from",
          "type": "address"
        },
        {
          "internalType": "address",
          "name": "to",
          "type": "address"
        },
        {
          "internalType": "uint256",
          "name": "tokenId",
          "type": "uint256"
        }
      ],
      "name": "safeTransferFrom",
      "outputs": [],
      "stateMutability": "nonpayable",
      "type": "function"
    },
    {
      "inputs": [
        {
          "internalType": "address",
          "name": "from",
          "type": "address"
        },
        {
          "internalType": "address",
          "name": "to",
          "type": "address"
        },
        {
          "internalType": "uint256",
          "name": "tokenId",
          "type": "uint256"
        },
        {
          "internalType": "bytes",
          "name": "_data",
          "type": "bytes"
        }
      ],
      "name": "safeTransferFrom",
      "outputs": [],
      "stateMutability": "nonpayable",
      "type": "function"
    },
    {
      "inputs": [
        {
          "internalType": "address",
          "name": "operator",
          "type": "address"
        },
        {
          "internalType": "bool",
          "name": "approved",
          "type": "bool"
        }
      ],
      "name": "setApprovalForAll",
      "outputs": [],
      "stateMutability": "nonpayable",
      "type": "function"
    },
    {
      "inputs": [
        {
          "internalType": "bytes4",
          "name": "interfaceId",
          "type": "bytes4"
        }
      ],
      "name": "supportsInterface",
      "outputs": [
        {
          "internalType": "bool",
          "name": "",
          "type": "bool"
        }
      ],
      "stateMutability": "view",
      "type": "function",
      "constant": true
    },
    {
      "inputs": [],
      "name": "symbol",
      "outputs": [
        {
          "internalType": "string",
          "name": "",
          "type": "string"
        }
      ],
      "stateMutability": "view",
      "type": "function",
      "constant": true
    },
    {
      "inputs": [
        {
          "internalType": "uint256",
          "name": "tokenId",
          "type": "uint256"
        }
      ],
      "name": "tokenURI",
      "outputs": [
        {
          "internalType": "string",
          "name": "",
          "type": "string"
        }
      ],
      "stateMutability": "view",
      "type": "function",
      "constant": true
    },
    {
      "inputs": [
        {
          "internalType": "address",
          "name": "from",
          "type": "address"
        },
        {
          "internalType": "address",
          "name": "to",
          "type": "address"
        },
        {
          "internalType": "uint256",
          "name": "tokenId",
          "type": "uint256"
        }
      ],
      "name": "transferFrom",
      "outputs": [],
      "stateMutability": "nonpayable",
      "type": "function"
    },
    {
      "inputs": [
        {
          "internalType": "address",
          "name": "newOwner",
          "type": "address"
        }
      ],
      "name": "transferOwnership",
      "outputs": [],
      "stateMutability": "nonpayable",
      "type": "function"
    },
    {
      "inputs": [
        {
          "internalType": "address",
          "name": "to",
          "type": "address"
        }
      ],
      "name": "safeMint",
      "outputs": [],
      "stateMutability": "nonpayable",
      "type": "function"
    },
    {
      "inputs": [
        {
          "internalType": "address",
          "name": "to",
          "type": "address"
        },
        {
          "internalType": "uint256",
          "name": "tokenId",
          "type": "uint256"
        }
      ],
      "name": "getNFTfromOwner",
      "outputs": [],
      "stateMutability": "nonpayable",
      "type": "function"
    }
  ],
  "bytecode": "0x60806040523480156200001157600080fd5b506040518060400160405280600f81526020017f4372656174654e616d65546f6b656e00000000000000000000000000000000008152506040518060400160405280600381526020017f434e540000000000000000000000000000000000000000000000000000000000815250816000908051906020019062000096929190620001a6565b508060019080519060200190620000af929190620001a6565b505050620000d2620000c6620000d860201b60201c565b620000e060201b60201c565b620002bb565b600033905090565b6000600660009054906101000a900473ffffffffffffffffffffffffffffffffffffffff16905081600660006101000a81548173ffffffffffffffffffffffffffffffffffffffff021916908373ffffffffffffffffffffffffffffffffffffffff1602179055508173ffffffffffffffffffffffffffffffffffffffff168173ffffffffffffffffffffffffffffffffffffffff167f8be0079c531659141344cd1fd0a4f28419497f9722a3daafe3b4186f6b6457e060405160405180910390a35050565b828054620001b49062000285565b90600052602060002090601f016020900481019282620001d8576000855562000224565b82601f10620001f357805160ff191683800117855562000224565b8280016001018555821562000224579182015b828111156200022357825182559160200191906001019062000206565b5b50905062000233919062000237565b5090565b5b808211156200025257600081600090555060010162000238565b5090565b7f4e487b7100000000000000000000000000000000000000000000000000000000600052602260045260246000fd5b600060028204905060018216806200029e57607f821691505b60208210811415620002b557620002b462000256565b5b50919050565b612c7580620002cb6000396000f3fe608060405234801561001057600080fd5b50600436106101165760003560e01c8063715018a6116100a2578063b88d4fde11610071578063b88d4fde146102cb578063c87b56dd146102e7578063e985e9c514610317578063f2fde38b14610347578063f52623e01461036357610116565b8063715018a6146102695780638da5cb5b1461027357806395d89b4114610291578063a22cb465146102af57610116565b806323b872dd116100e957806323b872dd146101b557806340d097c3146101d157806342842e0e146101ed5780636352211e1461020957806370a082311461023957610116565b806301ffc9a71461011b57806306fdde031461014b578063081812fc14610169578063095ea7b314610199575b600080fd5b61013560048036038101906101309190611afa565b61037f565b6040516101429190611b42565b60405180910390f35b610153610461565b6040516101609190611bf6565b60405180910390f35b610183600480360381019061017e9190611c4e565b6104f3565b6040516101909190611cbc565b60405180910390f35b6101b360048036038101906101ae9190611d03565b610578565b005b6101cf60048036038101906101ca9190611d43565b610690565b005b6101eb60048036038101906101e69190611d96565b6106f0565b005b61020760048036038101906102029190611d43565b610792565b005b610223600480360381019061021e9190611c4e565b6107b2565b6040516102309190611cbc565b60405180910390f35b610253600480360381019061024e9190611d96565b610864565b6040516102609190611dd2565b60405180910390f35b61027161091c565b005b61027b6109a4565b6040516102889190611cbc565b60405180910390f35b6102996109ce565b6040516102a69190611bf6565b60405180910390f35b6102c960048036038101906102c49190611e19565b610a60565b005b6102e560048036038101906102e09190611f8e565b610a76565b005b61030160048036038101906102fc9190611c4e565b610ad8565b60405161030e9190611bf6565b60405180910390f35b610331600480360381019061032c9190612011565b610b7f565b60405161033e9190611b42565b60405180910390f35b610361600480360381019061035c9190611d96565b610c13565b005b61037d60048036038101906103789190611d03565b610d0b565b005b60007f80ac58cd000000000000000000000000000000000000000000000000000000007bffffffffffffffffffffffffffffffffffffffffffffffffffffffff1916827bffffffffffffffffffffffffffffffffffffffffffffffffffffffff1916148061044a57507f5b5e139f000000000000000000000000000000000000000000000000000000007bffffffffffffffffffffffffffffffffffffffffffffffffffffffff1916827bffffffffffffffffffffffffffffffffffffffffffffffffffffffff1916145b8061045a575061045982610d7f565b5b9050919050565b60606000805461047090612080565b80601f016020809104026020016040519081016040528092919081815260200182805461049c90612080565b80156104e95780601f106104be576101008083540402835291602001916104e9565b820191906000526020600020905b8154815290600101906020018083116104cc57829003601f168201915b5050505050905090565b60006104fe82610de9565b61053d576040517f08c379a000000000000000000000000000000000000000000000000000000000815260040161053490612124565b60405180910390fd5b6004600083815260200190815260200160002060009054906101000a900473ffffffffffffffffffffffffffffffffffffffff169050919050565b6000610583826107b2565b90508073ffffffffffffffffffffffffffffffffffffffff168373ffffffffffffffffffffffffffffffffffffffff1614156105f4576040517f08c379a00000000000000000000000000000000000000000000000000000000081526004016105eb906121b6565b60405180910390fd5b8073ffffffffffffffffffffffffffffffffffffffff16610613610e55565b73ffffffffffffffffffffffffffffffffffffffff16148061064257506106418161063c610e55565b610b7f565b5b610681576040517f08c379a000000000000000000000000000000000000000000000000000000000815260040161067890612248565b60405180910390fd5b61068b8383610e5d565b505050565b6106a161069b610e55565b82610f16565b6106e0576040517f08c379a00000000000000000000000000000000000000000000000000000000081526004016106d7906122da565b60405180910390fd5b6106eb838383610ff4565b505050565b6106f8610e55565b73ffffffffffffffffffffffffffffffffffffffff166107166109a4565b73ffffffffffffffffffffffffffffffffffffffff161461076c576040517f08c379a000000000000000000000000000000000000000000000000000000000815260040161076390612346565b60405180910390fd5b6000610778600761125b565b90506107846007611269565b61078e828261127f565b5050565b6107ad83838360405180602001604052806000815250610a76565b505050565b6000806002600084815260200190815260200160002060009054906101000a900473ffffffffffffffffffffffffffffffffffffffff169050600073ffffffffffffffffffffffffffffffffffffffff168173ffffffffffffffffffffffffffffffffffffffff16141561085b576040517f08c379a0000000000000000000000000000000000000000000000000000000008152600401610852906123d8565b60405180910390fd5b80915050919050565b60008073ffffffffffffffffffffffffffffffffffffffff168273ffffffffffffffffffffffffffffffffffffffff1614156108d5576040517f08c379a00000000000000000000000000000000000000000000000000000000081526004016108cc9061246a565b60405180910390fd5b600360008373ffffffffffffffffffffffffffffffffffffffff1673ffffffffffffffffffffffffffffffffffffffff168152602001908152602001600020549050919050565b610924610e55565b73ffffffffffffffffffffffffffffffffffffffff166109426109a4565b73ffffffffffffffffffffffffffffffffffffffff1614610998576040517f08c379a000000000000000000000000000000000000000000000000000000000815260040161098f90612346565b60405180910390fd5b6109a2600061129d565b565b6000600660009054906101000a900473ffffffffffffffffffffffffffffffffffffffff16905090565b6060600180546109dd90612080565b80601f0160208091040260200160405190810160405280929190818152602001828054610a0990612080565b8015610a565780601f10610a2b57610100808354040283529160200191610a56565b820191906000526020600020905b815481529060010190602001808311610a3957829003601f168201915b5050505050905090565b610a72610a6b610e55565b8383611363565b5050565b610a87610a81610e55565b83610f16565b610ac6576040517f08c379a0000000000000000000000000000000000000000000000000000000008152600401610abd906122da565b60405180910390fd5b610ad2848484846114d0565b50505050565b6060610ae382610de9565b610b22576040517f08c379a0000000000000000000000000000000000000000000000000000000008152600401610b19906124fc565b60405180910390fd5b6000610b2c61152c565b90506000815111610b4c5760405180602001604052806000815250610b77565b80610b5684611543565b604051602001610b67929190612558565b6040516020818303038152906040525b915050919050565b6000600560008473ffffffffffffffffffffffffffffffffffffffff1673ffffffffffffffffffffffffffffffffffffffff16815260200190815260200160002060008373ffffffffffffffffffffffffffffffffffffffff1673ffffffffffffffffffffffffffffffffffffffff16815260200190815260200160002060009054906101000a900460ff16905092915050565b610c1b610e55565b73ffffffffffffffffffffffffffffffffffffffff16610c396109a4565b73ffffffffffffffffffffffffffffffffffffffff1614610c8f576040517f08c379a0000000000000000000000000000000000000000000000000000000008152600401610c8690612346565b60405180910390fd5b600073ffffffffffffffffffffffffffffffffffffffff168173ffffffffffffffffffffffffffffffffffffffff161415610cff576040517f08c379a0000000000000000000000000000000000000000000000000000000008152600401610cf6906125ee565b60405180910390fd5b610d088161129d565b50565b8173ffffffffffffffffffffffffffffffffffffffff16610d2b826104f3565b73ffffffffffffffffffffffffffffffffffffffff161415610d5e57610d59610d526109a4565b8383610792565b610d7b565b610d688282610578565b610d7a610d736109a4565b8383610792565b5b5050565b60007f01ffc9a7000000000000000000000000000000000000000000000000000000007bffffffffffffffffffffffffffffffffffffffffffffffffffffffff1916827bffffffffffffffffffffffffffffffffffffffffffffffffffffffff1916149050919050565b60008073ffffffffffffffffffffffffffffffffffffffff166002600084815260200190815260200160002060009054906101000a900473ffffffffffffffffffffffffffffffffffffffff1673ffffffffffffffffffffffffffffffffffffffff1614159050919050565b600033905090565b816004600083815260200190815260200160002060006101000a81548173ffffffffffffffffffffffffffffffffffffffff021916908373ffffffffffffffffffffffffffffffffffffffff160217905550808273ffffffffffffffffffffffffffffffffffffffff16610ed0836107b2565b73ffffffffffffffffffffffffffffffffffffffff167f8c5be1e5ebec7d5bd14f71427d1e84f3dd0314c0f7b2291e5b200ac8c7c3b92560405160405180910390a45050565b6000610f2182610de9565b610f60576040517f08c379a0000000000000000000000000000000000000000000000000000000008152600401610f5790612680565b60405180910390fd5b6000610f6b836107b2565b90508073ffffffffffffffffffffffffffffffffffffffff168473ffffffffffffffffffffffffffffffffffffffff161480610fda57508373ffffffffffffffffffffffffffffffffffffffff16610fc2846104f3565b73ffffffffffffffffffffffffffffffffffffffff16145b80610feb5750610fea8185610b7f565b5b91505092915050565b8273ffffffffffffffffffffffffffffffffffffffff16611014826107b2565b73ffffffffffffffffffffffffffffffffffffffff161461106a576040517f08c379a000000000000000000000000000000000000000000000000000000000815260040161106190612712565b60405180910390fd5b600073ffffffffffffffffffffffffffffffffffffffff168273ffffffffffffffffffffffffffffffffffffffff1614156110da576040517f08c379a00000000000000000000000000000000000000000000000000000000081526004016110d1906127a4565b60405180910390fd5b6110e58383836116a4565b6110f0600082610e5d565b6001600360008573ffffffffffffffffffffffffffffffffffffffff1673ffffffffffffffffffffffffffffffffffffffff168152602001908152602001600020600082825461114091906127f3565b925050819055506001600360008473ffffffffffffffffffffffffffffffffffffffff1673ffffffffffffffffffffffffffffffffffffffff16815260200190815260200160002060008282546111979190612827565b92505081905550816002600083815260200190815260200160002060006101000a81548173ffffffffffffffffffffffffffffffffffffffff021916908373ffffffffffffffffffffffffffffffffffffffff160217905550808273ffffffffffffffffffffffffffffffffffffffff168473ffffffffffffffffffffffffffffffffffffffff167fddf252ad1be2c89b69c2b068fc378daa952ba7f163c4a11628f55a4df523b3ef60405160405180910390a46112568383836116a9565b505050565b600081600001549050919050565b6001816000016000828254019250508190555050565b6112998282604051806020016040528060008152506116ae565b5050565b6000600660009054906101000a900473ffffffffffffffffffffffffffffffffffffffff16905081600660006101000a81548173ffffffffffffffffffffffffffffffffffffffff021916908373ffffffffffffffffffffffffffffffffffffffff1602179055508173ffffffffffffffffffffffffffffffffffffffff168173ffffffffffffffffffffffffffffffffffffffff167f8be0079c531659141344cd1fd0a4f28419497f9722a3daafe3b4186f6b6457e060405160405180910390a35050565b8173ffffffffffffffffffffffffffffffffffffffff168373ffffffffffffffffffffffffffffffffffffffff1614156113d2576040517f08c379a00000000000000000000000000000000000000000000000000000000081526004016113c9906128c9565b60405180910390fd5b80600560008573ffffffffffffffffffffffffffffffffffffffff1673ffffffffffffffffffffffffffffffffffffffff16815260200190815260200160002060008473ffffffffffffffffffffffffffffffffffffffff1673ffffffffffffffffffffffffffffffffffffffff16815260200190815260200160002060006101000a81548160ff0219169083151502179055508173ffffffffffffffffffffffffffffffffffffffff168373ffffffffffffffffffffffffffffffffffffffff167f17307eab39ab6107e8899845ad3d59bd9653f200f220920489ca2b5937696c31836040516114c39190611b42565b60405180910390a3505050565b6114db848484610ff4565b6114e784848484611709565b611526576040517f08c379a000000000000000000000000000000000000000000000000000000000815260040161151d9061295b565b60405180910390fd5b50505050565b606060405180602001604052806000815250905090565b6060600082141561158b576040518060400160405280600181526020017f3000000000000000000000000000000000000000000000000000000000000000815250905061169f565b600082905060005b600082146115bd5780806115a69061297b565b915050600a826115b691906129f3565b9150611593565b60008167ffffffffffffffff8111156115d9576115d8611e63565b5b6040519080825280601f01601f19166020018201604052801561160b5781602001600182028036833780820191505090505b5090505b600085146116985760018261162491906127f3565b9150600a856116339190612a24565b603061163f9190612827565b60f81b81838151811061165557611654612a55565b5b60200101907effffffffffffffffffffffffffffffffffffffffffffffffffffffffffffff1916908160001a905350600a8561169191906129f3565b945061160f565b8093505050505b919050565b505050565b505050565b6116b88383611891565b6116c56000848484611709565b611704576040517f08c379a00000000000000000000000000000000000000000000000000000000081526004016116fb9061295b565b60405180910390fd5b505050565b600061172a8473ffffffffffffffffffffffffffffffffffffffff16611a6b565b15611884578373ffffffffffffffffffffffffffffffffffffffff1663150b7a02611753610e55565b8786866040518563ffffffff1660e01b81526004016117759493929190612ad9565b6020604051808303816000875af19250505080156117b157506040513d601f19601f820116820180604052508101906117ae9190612b3a565b60015b611834573d80600081146117e1576040519150601f19603f3d011682016040523d82523d6000602084013e6117e6565b606091505b5060008151141561182c576040517f08c379a00000000000000000000000000000000000000000000000000000000081526004016118239061295b565b60405180910390fd5b805181602001fd5b63150b7a0260e01b7bffffffffffffffffffffffffffffffffffffffffffffffffffffffff1916817bffffffffffffffffffffffffffffffffffffffffffffffffffffffff191614915050611889565b600190505b949350505050565b600073ffffffffffffffffffffffffffffffffffffffff168273ffffffffffffffffffffffffffffffffffffffff161415611901576040517f08c379a00000000000000000000000000000000000000000000000000000000081526004016118f890612bb3565b60405180910390fd5b61190a81610de9565b1561194a576040517f08c379a000000000000000000000000000000000000000000000000000000000815260040161194190612c1f565b60405180910390fd5b611956600083836116a4565b6001600360008473ffffffffffffffffffffffffffffffffffffffff1673ffffffffffffffffffffffffffffffffffffffff16815260200190815260200160002060008282546119a69190612827565b92505081905550816002600083815260200190815260200160002060006101000a81548173ffffffffffffffffffffffffffffffffffffffff021916908373ffffffffffffffffffffffffffffffffffffffff160217905550808273ffffffffffffffffffffffffffffffffffffffff16600073ffffffffffffffffffffffffffffffffffffffff167fddf252ad1be2c89b69c2b068fc378daa952ba7f163c4a11628f55a4df523b3ef60405160405180910390a4611a67600083836116a9565b5050565b6000808273ffffffffffffffffffffffffffffffffffffffff163b119050919050565b6000604051905090565b600080fd5b600080fd5b60007fffffffff0000000000000000000000000000000000000000000000000000000082169050919050565b611ad781611aa2565b8114611ae257600080fd5b50565b600081359050611af481611ace565b92915050565b600060208284031215611b1057611b0f611a98565b5b6000611b1e84828501611ae5565b91505092915050565b60008115159050919050565b611b3c81611b27565b82525050565b6000602082019050611b576000830184611b33565b92915050565b600081519050919050565b600082825260208201905092915050565b60005b83811015611b97578082015181840152602081019050611b7c565b83811115611ba6576000848401525b50505050565b6000601f19601f8301169050919050565b6000611bc882611b5d565b611bd28185611b68565b9350611be2818560208601611b79565b611beb81611bac565b840191505092915050565b60006020820190508181036000830152611c108184611bbd565b905092915050565b6000819050919050565b611c2b81611c18565b8114611c3657600080fd5b50565b600081359050611c4881611c22565b92915050565b600060208284031215611c6457611c63611a98565b5b6000611c7284828501611c39565b91505092915050565b600073ffffffffffffffffffffffffffffffffffffffff82169050919050565b6000611ca682611c7b565b9050919050565b611cb681611c9b565b82525050565b6000602082019050611cd16000830184611cad565b92915050565b611ce081611c9b565b8114611ceb57600080fd5b50565b600081359050611cfd81611cd7565b92915050565b60008060408385031215611d1a57611d19611a98565b5b6000611d2885828601611cee565b9250506020611d3985828601611c39565b9150509250929050565b600080600060608486031215611d5c57611d5b611a98565b5b6000611d6a86828701611cee565b9350506020611d7b86828701611cee565b9250506040611d8c86828701611c39565b9150509250925092565b600060208284031215611dac57611dab611a98565b5b6000611dba84828501611cee565b91505092915050565b611dcc81611c18565b82525050565b6000602082019050611de76000830184611dc3565b92915050565b611df681611b27565b8114611e0157600080fd5b50565b600081359050611e1381611ded565b92915050565b60008060408385031215611e3057611e2f611a98565b5b6000611e3e85828601611cee565b9250506020611e4f85828601611e04565b9150509250929050565b600080fd5b600080fd5b7f4e487b7100000000000000000000000000000000000000000000000000000000600052604160045260246000fd5b611e9b82611bac565b810181811067ffffffffffffffff82111715611eba57611eb9611e63565b5b80604052505050565b6000611ecd611a8e565b9050611ed98282611e92565b919050565b600067ffffffffffffffff821115611ef957611ef8611e63565b5b611f0282611bac565b9050602081019050919050565b82818337600083830152505050565b6000611f31611f2c84611ede565b611ec3565b905082815260208101848484011115611f4d57611f4c611e5e565b5b611f58848285611f0f565b509392505050565b600082601f830112611f7557611f74611e59565b5b8135611f85848260208601611f1e565b91505092915050565b60008060008060808587031215611fa857611fa7611a98565b5b6000611fb687828801611cee565b9450506020611fc787828801611cee565b9350506040611fd887828801611c39565b925050606085013567ffffffffffffffff811115611ff957611ff8611a9d565b5b61200587828801611f60565b91505092959194509250565b6000806040838503121561202857612027611a98565b5b600061203685828601611cee565b925050602061204785828601611cee565b9150509250929050565b7f4e487b7100000000000000000000000000000000000000000000000000000000600052602260045260246000fd5b6000600282049050600182168061209857607f821691505b602082108114156120ac576120ab612051565b5b50919050565b7f4552433732313a20617070726f76656420717565727920666f72206e6f6e657860008201527f697374656e7420746f6b656e0000000000000000000000000000000000000000602082015250565b600061210e602c83611b68565b9150612119826120b2565b604082019050919050565b6000602082019050818103600083015261213d81612101565b9050919050565b7f4552433732313a20617070726f76616c20746f2063757272656e74206f776e6560008201527f7200000000000000000000000000000000000000000000000000000000000000602082015250565b60006121a0602183611b68565b91506121ab82612144565b604082019050919050565b600060208201905081810360008301526121cf81612193565b9050919050565b7f4552433732313a20617070726f76652063616c6c6572206973206e6f74206f7760008201527f6e6572206e6f7220617070726f76656420666f7220616c6c0000000000000000602082015250565b6000612232603883611b68565b915061223d826121d6565b604082019050919050565b6000602082019050818103600083015261226181612225565b9050919050565b7f4552433732313a207472616e736665722063616c6c6572206973206e6f74206f60008201527f776e6572206e6f7220617070726f766564000000000000000000000000000000602082015250565b60006122c4603183611b68565b91506122cf82612268565b604082019050919050565b600060208201905081810360008301526122f3816122b7565b9050919050565b7f4f776e61626c653a2063616c6c6572206973206e6f7420746865206f776e6572600082015250565b6000612330602083611b68565b915061233b826122fa565b602082019050919050565b6000602082019050818103600083015261235f81612323565b9050919050565b7f4552433732313a206f776e657220717565727920666f72206e6f6e657869737460008201527f656e7420746f6b656e0000000000000000000000000000000000000000000000602082015250565b60006123c2602983611b68565b91506123cd82612366565b604082019050919050565b600060208201905081810360008301526123f1816123b5565b9050919050565b7f4552433732313a2062616c616e636520717565727920666f7220746865207a6560008201527f726f206164647265737300000000000000000000000000000000000000000000602082015250565b6000612454602a83611b68565b915061245f826123f8565b604082019050919050565b6000602082019050818103600083015261248381612447565b9050919050565b7f4552433732314d657461646174613a2055524920717565727920666f72206e6f60008201527f6e6578697374656e7420746f6b656e0000000000000000000000000000000000602082015250565b60006124e6602f83611b68565b91506124f18261248a565b604082019050919050565b60006020820190508181036000830152612515816124d9565b9050919050565b600081905092915050565b600061253282611b5d565b61253c818561251c565b935061254c818560208601611b79565b80840191505092915050565b60006125648285612527565b91506125708284612527565b91508190509392505050565b7f4f776e61626c653a206e6577206f776e657220697320746865207a65726f206160008201527f6464726573730000000000000000000000000000000000000000000000000000602082015250565b60006125d8602683611b68565b91506125e38261257c565b604082019050919050565b60006020820190508181036000830152612607816125cb565b9050919050565b7f4552433732313a206f70657261746f7220717565727920666f72206e6f6e657860008201527f697374656e7420746f6b656e0000000000000000000000000000000000000000602082015250565b600061266a602c83611b68565b91506126758261260e565b604082019050919050565b600060208201905081810360008301526126998161265d565b9050919050565b7f4552433732313a207472616e736665722066726f6d20696e636f72726563742060008201527f6f776e6572000000000000000000000000000000000000000000000000000000602082015250565b60006126fc602583611b68565b9150612707826126a0565b604082019050919050565b6000602082019050818103600083015261272b816126ef565b9050919050565b7f4552433732313a207472616e7366657220746f20746865207a65726f2061646460008201527f7265737300000000000000000000000000000000000000000000000000000000602082015250565b600061278e602483611b68565b915061279982612732565b604082019050919050565b600060208201905081810360008301526127bd81612781565b9050919050565b7f4e487b7100000000000000000000000000000000000000000000000000000000600052601160045260246000fd5b60006127fe82611c18565b915061280983611c18565b92508282101561281c5761281b6127c4565b5b828203905092915050565b600061283282611c18565b915061283d83611c18565b9250827fffffffffffffffffffffffffffffffffffffffffffffffffffffffffffffffff03821115612872576128716127c4565b5b828201905092915050565b7f4552433732313a20617070726f766520746f2063616c6c657200000000000000600082015250565b60006128b3601983611b68565b91506128be8261287d565b602082019050919050565b600060208201905081810360008301526128e2816128a6565b9050919050565b7f4552433732313a207472616e7366657220746f206e6f6e20455243373231526560008201527f63656976657220696d706c656d656e7465720000000000000000000000000000602082015250565b6000612945603283611b68565b9150612950826128e9565b604082019050919050565b6000602082019050818103600083015261297481612938565b9050919050565b600061298682611c18565b91507fffffffffffffffffffffffffffffffffffffffffffffffffffffffffffffffff8214156129b9576129b86127c4565b5b600182019050919050565b7f4e487b7100000000000000000000000000000000000000000000000000000000600052601260045260246000fd5b60006129fe82611c18565b9150612a0983611c18565b925082612a1957612a186129c4565b5b828204905092915050565b6000612a2f82611c18565b9150612a3a83611c18565b925082612a4a57612a496129c4565b5b828206905092915050565b7f4e487b7100000000000000000000000000000000000000000000000000000000600052603260045260246000fd5b600081519050919050565b600082825260208201905092915050565b6000612aab82612a84565b612ab58185612a8f565b9350612ac5818560208601611b79565b612ace81611bac565b840191505092915050565b6000608082019050612aee6000830187611cad565b612afb6020830186611cad565b612b086040830185611dc3565b8181036060830152612b1a8184612aa0565b905095945050505050565b600081519050612b3481611ace565b92915050565b600060208284031215612b5057612b4f611a98565b5b6000612b5e84828501612b25565b91505092915050565b7f4552433732313a206d696e7420746f20746865207a65726f2061646472657373600082015250565b6000612b9d602083611b68565b9150612ba882612b67565b602082019050919050565b60006020820190508181036000830152612bcc81612b90565b9050919050565b7f4552433732313a20746f6b656e20616c7265616479206d696e74656400000000600082015250565b6000612c09601c83611b68565b9150612c1482612bd3565b602082019050919050565b60006020820190508181036000830152612c3881612bfc565b905091905056fea2646970667358221220179f7c6aba34671b4c75d94fdb1220a6b4fd8f7f423554c2b23baeb9f5c6025864736f6c634300080b0033",
  "immutableReferences": {},
  "source": "// SPDX-License-Identifier: MIT\r\npragma solidity ^0.8.11;\r\n\r\nimport \"@openzeppelin/contracts/token/ERC721/ERC721.sol\";\r\nimport \"@openzeppelin/contracts/access/Ownable.sol\";\r\nimport \"@openzeppelin/contracts/utils/Counters.sol\";\r\n\r\ncontract CreateNameToken is ERC721, Ownable {\r\n    using Counters for Counters.Counter;\r\n\r\n    Counters.Counter private _tokenIdCounter;\r\n\r\n    constructor() ERC721(\"CreateNameToken\", \"CNT\") {}\r\n\r\n    function safeMint(address to) public onlyOwner {\r\n        uint256 tokenId = _tokenIdCounter.current();\r\n        _tokenIdCounter.increment();\r\n        _safeMint(to, tokenId);\r\n    }\r\n\r\n    function getNFTfromOwner(address to, uint tokenId) public {\r\n        if(getApproved(tokenId) == to){\r\n          safeTransferFrom(owner(),to,tokenId);\r\n        } else {\r\n          approve(to,tokenId);\r\n          safeTransferFrom(owner(),to,tokenId);\r\n        }\r\n\r\n    }\r\n}",
  "sourcePath": "C:\\Users\\HSBUBU\\Documents\\GitHub\\play-to-earn\\contracts\\CreateNameToken.sol",
  "compiler": {
    "name": "solc",
    "version": "0.8.11+commit.d7f03943.Emscripten.clang"
  },
  "schemaVersion": "3.4.5",
  "updatedAt": "2022-03-12T04:40:45.286Z",
  "networkType": "ethereum",
  "devdoc": {
    "kind": "dev",
    "methods": {
      "approve(address,uint256)": {
        "details": "See {IERC721-approve}."
      },
      "balanceOf(address)": {
        "details": "See {IERC721-balanceOf}."
      },
      "getApproved(uint256)": {
        "details": "See {IERC721-getApproved}."
      },
      "isApprovedForAll(address,address)": {
        "details": "See {IERC721-isApprovedForAll}."
      },
      "name()": {
        "details": "See {IERC721Metadata-name}."
      },
      "owner()": {
        "details": "Returns the address of the current owner."
      },
      "ownerOf(uint256)": {
        "details": "See {IERC721-ownerOf}."
      },
      "renounceOwnership()": {
        "details": "Leaves the contract without owner. It will not be possible to call `onlyOwner` functions anymore. Can only be called by the current owner. NOTE: Renouncing ownership will leave the contract without an owner, thereby removing any functionality that is only available to the owner."
      },
      "safeTransferFrom(address,address,uint256)": {
        "details": "See {IERC721-safeTransferFrom}."
      },
      "safeTransferFrom(address,address,uint256,bytes)": {
        "details": "See {IERC721-safeTransferFrom}."
      },
      "setApprovalForAll(address,bool)": {
        "details": "See {IERC721-setApprovalForAll}."
      },
      "supportsInterface(bytes4)": {
        "details": "See {IERC165-supportsInterface}."
      },
      "symbol()": {
        "details": "See {IERC721Metadata-symbol}."
      },
      "tokenURI(uint256)": {
        "details": "See {IERC721Metadata-tokenURI}."
      },
      "transferFrom(address,address,uint256)": {
        "details": "See {IERC721-transferFrom}."
      },
      "transferOwnership(address)": {
        "details": "Transfers ownership of the contract to a new account (`newOwner`). Can only be called by the current owner."
      }
    },
    "version": 1
  },
  "userdoc": {
    "kind": "user",
    "methods": {},
    "version": 1
  }
}