{
  "contractName": "CreateNFT",
  "abi": [
    {
      "inputs": [],
      "stateMutability": "nonpayable",
      "type": "constructor"
    },
    {
      "anonymous": false,
      "inputs": [
        {
          "indexed": true,
          "internalType": "address",
          "name": "owner",
          "type": "address"
        },
        {
          "indexed": true,
          "internalType": "address",
          "name": "approved",
          "type": "address"
        },
        {
          "indexed": true,
          "internalType": "uint256",
          "name": "tokenId",
          "type": "uint256"
        }
      ],
      "name": "Approval",
      "type": "event"
    },
    {
      "anonymous": false,
      "inputs": [
        {
          "indexed": true,
          "internalType": "address",
          "name": "owner",
          "type": "address"
        },
        {
          "indexed": true,
          "internalType": "address",
          "name": "operator",
          "type": "address"
        },
        {
          "indexed": false,
          "internalType": "bool",
          "name": "approved",
          "type": "bool"
        }
      ],
      "name": "ApprovalForAll",
      "type": "event"
    },
    {
      "anonymous": false,
      "inputs": [
        {
          "indexed": true,
          "internalType": "uint256",
          "name": "tokenId",
          "type": "uint256"
        },
        {
          "indexed": false,
          "internalType": "address",
          "name": "owner",
          "type": "address"
        },
        {
          "indexed": false,
          "internalType": "uint256",
          "name": "price",
          "type": "uint256"
        },
        {
          "indexed": false,
          "internalType": "bool",
          "name": "sell",
          "type": "bool"
        }
      ],
      "name": "NFTItemCreated",
      "type": "event"
    },
    {
      "anonymous": false,
      "inputs": [
        {
          "indexed": true,
          "internalType": "address",
          "name": "previousOwner",
          "type": "address"
        },
        {
          "indexed": true,
          "internalType": "address",
          "name": "newOwner",
          "type": "address"
        }
      ],
      "name": "OwnershipTransferred",
      "type": "event"
    },
    {
      "anonymous": false,
      "inputs": [
        {
          "indexed": true,
          "internalType": "address",
          "name": "from",
          "type": "address"
        },
        {
          "indexed": true,
          "internalType": "address",
          "name": "to",
          "type": "address"
        },
        {
          "indexed": true,
          "internalType": "uint256",
          "name": "tokenId",
          "type": "uint256"
        }
      ],
      "name": "Transfer",
      "type": "event"
    },
    {
      "inputs": [
        {
          "internalType": "address",
          "name": "to",
          "type": "address"
        },
        {
          "internalType": "uint256",
          "name": "tokenId",
          "type": "uint256"
        }
      ],
      "name": "approve",
      "outputs": [],
      "stateMutability": "nonpayable",
      "type": "function"
    },
    {
      "inputs": [
        {
          "internalType": "address",
          "name": "owner",
          "type": "address"
        }
      ],
      "name": "balanceOf",
      "outputs": [
        {
          "internalType": "uint256",
          "name": "",
          "type": "uint256"
        }
      ],
      "stateMutability": "view",
      "type": "function",
      "constant": true
    },
    {
      "inputs": [
        {
          "internalType": "uint256",
          "name": "tokenId",
          "type": "uint256"
        }
      ],
      "name": "getApproved",
      "outputs": [
        {
          "internalType": "address",
          "name": "",
          "type": "address"
        }
      ],
      "stateMutability": "view",
      "type": "function",
      "constant": true
    },
    {
      "inputs": [
        {
          "internalType": "address",
          "name": "owner",
          "type": "address"
        },
        {
          "internalType": "address",
          "name": "operator",
          "type": "address"
        }
      ],
      "name": "isApprovedForAll",
      "outputs": [
        {
          "internalType": "bool",
          "name": "",
          "type": "bool"
        }
      ],
      "stateMutability": "view",
      "type": "function",
      "constant": true
    },
    {
      "inputs": [],
      "name": "name",
      "outputs": [
        {
          "internalType": "string",
          "name": "",
          "type": "string"
        }
      ],
      "stateMutability": "view",
      "type": "function",
      "constant": true
    },
    {
      "inputs": [],
      "name": "owner",
      "outputs": [
        {
          "internalType": "address",
          "name": "",
          "type": "address"
        }
      ],
      "stateMutability": "view",
      "type": "function",
      "constant": true
    },
    {
      "inputs": [
        {
          "internalType": "uint256",
          "name": "tokenId",
          "type": "uint256"
        }
      ],
      "name": "ownerOf",
      "outputs": [
        {
          "internalType": "address",
          "name": "",
          "type": "address"
        }
      ],
      "stateMutability": "view",
      "type": "function",
      "constant": true
    },
    {
      "inputs": [],
      "name": "renounceOwnership",
      "outputs": [],
      "stateMutability": "nonpayable",
      "type": "function"
    },
    {
      "inputs": [
        {
          "internalType": "address",
          "name": "from",
          "type": "address"
        },
        {
          "internalType": "address",
          "name": "to",
          "type": "address"
        },
        {
          "internalType": "uint256",
          "name": "tokenId",
          "type": "uint256"
        }
      ],
      "name": "safeTransferFrom",
      "outputs": [],
      "stateMutability": "nonpayable",
      "type": "function"
    },
    {
      "inputs": [
        {
          "internalType": "address",
          "name": "from",
          "type": "address"
        },
        {
          "internalType": "address",
          "name": "to",
          "type": "address"
        },
        {
          "internalType": "uint256",
          "name": "tokenId",
          "type": "uint256"
        },
        {
          "internalType": "bytes",
          "name": "_data",
          "type": "bytes"
        }
      ],
      "name": "safeTransferFrom",
      "outputs": [],
      "stateMutability": "nonpayable",
      "type": "function"
    },
    {
      "inputs": [
        {
          "internalType": "address",
          "name": "operator",
          "type": "address"
        },
        {
          "internalType": "bool",
          "name": "approved",
          "type": "bool"
        }
      ],
      "name": "setApprovalForAll",
      "outputs": [],
      "stateMutability": "nonpayable",
      "type": "function"
    },
    {
      "inputs": [
        {
          "internalType": "bytes4",
          "name": "interfaceId",
          "type": "bytes4"
        }
      ],
      "name": "supportsInterface",
      "outputs": [
        {
          "internalType": "bool",
          "name": "",
          "type": "bool"
        }
      ],
      "stateMutability": "view",
      "type": "function",
      "constant": true
    },
    {
      "inputs": [],
      "name": "symbol",
      "outputs": [
        {
          "internalType": "string",
          "name": "",
          "type": "string"
        }
      ],
      "stateMutability": "view",
      "type": "function",
      "constant": true
    },
    {
      "inputs": [
        {
          "internalType": "uint256",
          "name": "tokenId",
          "type": "uint256"
        }
      ],
      "name": "tokenURI",
      "outputs": [
        {
          "internalType": "string",
          "name": "",
          "type": "string"
        }
      ],
      "stateMutability": "view",
      "type": "function",
      "constant": true
    },
    {
      "inputs": [
        {
          "internalType": "address",
          "name": "from",
          "type": "address"
        },
        {
          "internalType": "address",
          "name": "to",
          "type": "address"
        },
        {
          "internalType": "uint256",
          "name": "tokenId",
          "type": "uint256"
        }
      ],
      "name": "transferFrom",
      "outputs": [],
      "stateMutability": "nonpayable",
      "type": "function"
    },
    {
      "inputs": [
        {
          "internalType": "address",
          "name": "newOwner",
          "type": "address"
        }
      ],
      "name": "transferOwnership",
      "outputs": [],
      "stateMutability": "nonpayable",
      "type": "function"
    },
    {
      "inputs": [
        {
          "internalType": "string",
          "name": "tokenURI",
          "type": "string"
        },
        {
          "internalType": "uint256",
          "name": "price",
          "type": "uint256"
        }
      ],
      "name": "CreateNFTItem",
      "outputs": [],
      "stateMutability": "nonpayable",
      "type": "function"
    },
    {
      "inputs": [
        {
          "internalType": "uint256",
          "name": "tokenId",
          "type": "uint256"
        }
      ],
      "name": "getNFTItem",
      "outputs": [],
      "stateMutability": "payable",
      "type": "function",
      "payable": true
    },
    {
      "inputs": [
        {
          "internalType": "uint256",
          "name": "tokenId",
          "type": "uint256"
        },
        {
          "internalType": "uint256",
          "name": "price",
          "type": "uint256"
        }
      ],
      "name": "sellMyNFTItem",
      "outputs": [],
      "stateMutability": "nonpayable",
      "type": "function"
    },
    {
      "inputs": [],
      "name": "MyNFTlists",
      "outputs": [
        {
          "components": [
            {
              "internalType": "uint256",
              "name": "tokenId",
              "type": "uint256"
            },
            {
              "internalType": "address payable",
              "name": "owner",
              "type": "address"
            },
            {
              "internalType": "uint256",
              "name": "price",
              "type": "uint256"
            },
            {
              "internalType": "bool",
              "name": "sell",
              "type": "bool"
            }
          ],
          "internalType": "struct CreateNFT.NFTItem[]",
          "name": "",
          "type": "tuple[]"
        }
      ],
      "stateMutability": "view",
      "type": "function",
      "constant": true
    },
    {
      "inputs": [],
      "name": "OwnerSelllists",
      "outputs": [
        {
          "components": [
            {
              "internalType": "uint256",
              "name": "tokenId",
              "type": "uint256"
            },
            {
              "internalType": "address payable",
              "name": "owner",
              "type": "address"
            },
            {
              "internalType": "uint256",
              "name": "price",
              "type": "uint256"
            },
            {
              "internalType": "bool",
              "name": "sell",
              "type": "bool"
            }
          ],
          "internalType": "struct CreateNFT.NFTItem[]",
          "name": "",
          "type": "tuple[]"
        }
      ],
      "stateMutability": "view",
      "type": "function",
      "constant": true
    },
    {
      "inputs": [],
      "name": "UserSelllists",
      "outputs": [
        {
          "components": [
            {
              "internalType": "uint256",
              "name": "tokenId",
              "type": "uint256"
            },
            {
              "internalType": "address payable",
              "name": "owner",
              "type": "address"
            },
            {
              "internalType": "uint256",
              "name": "price",
              "type": "uint256"
            },
            {
              "internalType": "bool",
              "name": "sell",
              "type": "bool"
            }
          ],
          "internalType": "struct CreateNFT.NFTItem[]",
          "name": "",
          "type": "tuple[]"
        }
      ],
      "stateMutability": "view",
      "type": "function",
      "constant": true
    }
  ],
  "bytecode": "0x60806040523480156200001157600080fd5b506040518060400160405280600981526020017f4372656174654e465400000000000000000000000000000000000000000000008152506040518060400160405280600381526020017f434e540000000000000000000000000000000000000000000000000000000000815250816000908051906020019062000096929190620001a6565b508060019080519060200190620000af929190620001a6565b505050620000d2620000c6620000d860201b60201c565b620000e060201b60201c565b620002bb565b600033905090565b6000600760009054906101000a900473ffffffffffffffffffffffffffffffffffffffff16905081600760006101000a81548173ffffffffffffffffffffffffffffffffffffffff021916908373ffffffffffffffffffffffffffffffffffffffff1602179055508173ffffffffffffffffffffffffffffffffffffffff168173ffffffffffffffffffffffffffffffffffffffff167f8be0079c531659141344cd1fd0a4f28419497f9722a3daafe3b4186f6b6457e060405160405180910390a35050565b828054620001b49062000285565b90600052602060002090601f016020900481019282620001d8576000855562000224565b82601f10620001f357805160ff191683800117855562000224565b8280016001018555821562000224579182015b828111156200022357825182559160200191906001019062000206565b5b50905062000233919062000237565b5090565b5b808211156200025257600081600090555060010162000238565b5090565b7f4e487b7100000000000000000000000000000000000000000000000000000000600052602260045260246000fd5b600060028204905060018216806200029e57607f821691505b60208210811415620002b557620002b462000256565b5b50919050565b61412680620002cb6000396000f3fe6080604052600436106101355760003560e01c8063715018a6116100ab578063a22cb4651161006f578063a22cb46514610405578063b88d4fde1461042e578063c87b56dd14610457578063e397833214610494578063e985e9c5146104bf578063f2fde38b146104fc57610135565b8063715018a6146103445780637196f2231461035b57806384045b31146103865780638da5cb5b146103af57806395d89b41146103da57610135565b80632cf2de01116100fd5780632cf2de011461023157806342842e0e1461025a57806346c0fc3b146102835780636352211e146102ae5780636a3ceff9146102eb57806370a082311461030757610135565b806301ffc9a71461013a57806306fdde0314610177578063081812fc146101a2578063095ea7b3146101df57806323b872dd14610208575b600080fd5b34801561014657600080fd5b50610161600480360381019061015c9190612b1c565b610525565b60405161016e9190612b64565b60405180910390f35b34801561018357600080fd5b5061018c610607565b6040516101999190612c18565b60405180910390f35b3480156101ae57600080fd5b506101c960048036038101906101c49190612c70565b610699565b6040516101d69190612cde565b60405180910390f35b3480156101eb57600080fd5b5061020660048036038101906102019190612d25565b61071e565b005b34801561021457600080fd5b5061022f600480360381019061022a9190612d65565b610836565b005b34801561023d57600080fd5b5061025860048036038101906102539190612db8565b610896565b005b34801561026657600080fd5b50610281600480360381019061027c9190612d65565b6109bc565b005b34801561028f57600080fd5b506102986109dc565b6040516102a59190612f3b565b60405180910390f35b3480156102ba57600080fd5b506102d560048036038101906102d09190612c70565b610d02565b6040516102e29190612cde565b60405180910390f35b61030560048036038101906103009190612c70565b610db4565b005b34801561031357600080fd5b5061032e60048036038101906103299190612f5d565b610f5e565b60405161033b9190612f99565b60405180910390f35b34801561035057600080fd5b50610359611016565b005b34801561036757600080fd5b5061037061109e565b60405161037d9190612f3b565b60405180910390f35b34801561039257600080fd5b506103ad60048036038101906103a891906130e9565b611336565b005b3480156103bb57600080fd5b506103c46114eb565b6040516103d19190612cde565b60405180910390f35b3480156103e657600080fd5b506103ef611515565b6040516103fc9190612c18565b60405180910390f35b34801561041157600080fd5b5061042c60048036038101906104279190613171565b6115a7565b005b34801561043a57600080fd5b5061045560048036038101906104509190613252565b6115bd565b005b34801561046357600080fd5b5061047e60048036038101906104799190612c70565b61161f565b60405161048b9190612c18565b60405180910390f35b3480156104a057600080fd5b506104a9611771565b6040516104b69190612f3b565b60405180910390f35b3480156104cb57600080fd5b506104e660048036038101906104e191906132d5565b611a17565b6040516104f39190612b64565b60405180910390f35b34801561050857600080fd5b50610523600480360381019061051e9190612f5d565b611aab565b005b60007f80ac58cd000000000000000000000000000000000000000000000000000000007bffffffffffffffffffffffffffffffffffffffffffffffffffffffff1916827bffffffffffffffffffffffffffffffffffffffffffffffffffffffff191614806105f057507f5b5e139f000000000000000000000000000000000000000000000000000000007bffffffffffffffffffffffffffffffffffffffffffffffffffffffff1916827bffffffffffffffffffffffffffffffffffffffffffffffffffffffff1916145b8061060057506105ff82611ba3565b5b9050919050565b60606000805461061690613344565b80601f016020809104026020016040519081016040528092919081815260200182805461064290613344565b801561068f5780601f106106645761010080835404028352916020019161068f565b820191906000526020600020905b81548152906001019060200180831161067257829003601f168201915b5050505050905090565b60006106a482611c0d565b6106e3576040517f08c379a00000000000000000000000000000000000000000000000000000000081526004016106da906133e8565b60405180910390fd5b6004600083815260200190815260200160002060009054906101000a900473ffffffffffffffffffffffffffffffffffffffff169050919050565b600061072982610d02565b90508073ffffffffffffffffffffffffffffffffffffffff168373ffffffffffffffffffffffffffffffffffffffff16141561079a576040517f08c379a00000000000000000000000000000000000000000000000000000000081526004016107919061347a565b60405180910390fd5b8073ffffffffffffffffffffffffffffffffffffffff166107b9611c79565b73ffffffffffffffffffffffffffffffffffffffff1614806107e857506107e7816107e2611c79565b611a17565b5b610827576040517f08c379a000000000000000000000000000000000000000000000000000000000815260040161081e9061350c565b60405180910390fd5b6108318383611c81565b505050565b610847610841611c79565b82611d3a565b610886576040517f08c379a000000000000000000000000000000000000000000000000000000000815260040161087d9061359e565b60405180910390fd5b610891838383611e18565b505050565b3373ffffffffffffffffffffffffffffffffffffffff166009600084815260200190815260200160002060010160009054906101000a900473ffffffffffffffffffffffffffffffffffffffff1673ffffffffffffffffffffffffffffffffffffffff161461093a576040517f08c379a000000000000000000000000000000000000000000000000000000000815260040161093190613630565b60405180910390fd5b600015156009600084815260200190815260200160002060030160009054906101000a900460ff1615151461096e57600080fd5b80600960008481526020019081526020016000206002018190555060016009600084815260200190815260200160002060030160006101000a81548160ff0219169083151502179055505050565b6109d7838383604051806020016040528060008152506115bd565b505050565b606060006109ea600861207f565b905060008060005b83811015610ada57610a026114eb565b73ffffffffffffffffffffffffffffffffffffffff1660096000600184610a29919061367f565b815260200190815260200160002060010160009054906101000a900473ffffffffffffffffffffffffffffffffffffffff1673ffffffffffffffffffffffffffffffffffffffff1614158015610ab257506001151560096000600184610a8f919061367f565b815260200190815260200160002060030160009054906101000a900460ff161515145b15610ac757600183610ac4919061367f565b92505b8080610ad2906136d5565b9150506109f2565b5060008267ffffffffffffffff811115610af757610af6612fbe565b5b604051908082528060200260200182016040528015610b3057816020015b610b1d6129cd565b815260200190600190039081610b155790505b50905060005b84811015610cf757610b466114eb565b73ffffffffffffffffffffffffffffffffffffffff1660096000600184610b6d919061367f565b815260200190815260200160002060010160009054906101000a900473ffffffffffffffffffffffffffffffffffffffff1673ffffffffffffffffffffffffffffffffffffffff1614158015610bf657506001151560096000600184610bd3919061367f565b815260200190815260200160002060030160009054906101000a900460ff161515145b15610ce4576000600182610c0a919061367f565b9050600060096000838152602001908152602001600020905080604051806080016040529081600082015481526020016001820160009054906101000a900473ffffffffffffffffffffffffffffffffffffffff1673ffffffffffffffffffffffffffffffffffffffff1673ffffffffffffffffffffffffffffffffffffffff168152602001600282015481526020016003820160009054906101000a900460ff161515151581525050848681518110610cc757610cc661371e565b5b6020026020010181905250600185610cdf919061367f565b945050505b8080610cef906136d5565b915050610b36565b508094505050505090565b6000806002600084815260200190815260200160002060009054906101000a900473ffffffffffffffffffffffffffffffffffffffff169050600073ffffffffffffffffffffffffffffffffffffffff168173ffffffffffffffffffffffffffffffffffffffff161415610dab576040517f08c379a0000000000000000000000000000000000000000000000000000000008152600401610da2906137bf565b60405180910390fd5b80915050919050565b60006009600083815260200190815260200160002060020154905060006009600084815260200190815260200160002060010160009054906101000a900473ffffffffffffffffffffffffffffffffffffffff169050813414610e1657600080fd5b8073ffffffffffffffffffffffffffffffffffffffff163373ffffffffffffffffffffffffffffffffffffffff161415610e4f57600080fd5b600115156009600085815260200190815260200160002060030160009054906101000a900460ff16151514610e8357600080fd5b336009600085815260200190815260200160002060010160006101000a81548173ffffffffffffffffffffffffffffffffffffffff021916908373ffffffffffffffffffffffffffffffffffffffff160217905550610ee3813385611e18565b8073ffffffffffffffffffffffffffffffffffffffff166108fc349081150290604051600060405180830381858888f19350505050158015610f29573d6000803e3d6000fd5b5060006009600085815260200190815260200160002060030160006101000a81548160ff021916908315150217905550505050565b60008073ffffffffffffffffffffffffffffffffffffffff168273ffffffffffffffffffffffffffffffffffffffff161415610fcf576040517f08c379a0000000000000000000000000000000000000000000000000000000008152600401610fc690613851565b60405180910390fd5b600360008373ffffffffffffffffffffffffffffffffffffffff1673ffffffffffffffffffffffffffffffffffffffff168152602001908152602001600020549050919050565b61101e611c79565b73ffffffffffffffffffffffffffffffffffffffff1661103c6114eb565b73ffffffffffffffffffffffffffffffffffffffff1614611092576040517f08c379a0000000000000000000000000000000000000000000000000000000008152600401611089906138bd565b60405180910390fd5b61109c600061208d565b565b606060006110ac600861207f565b905060008060005b83811015611155573373ffffffffffffffffffffffffffffffffffffffff16600960006001846110e4919061367f565b815260200190815260200160002060010160009054906101000a900473ffffffffffffffffffffffffffffffffffffffff1673ffffffffffffffffffffffffffffffffffffffff1614156111425760018361113f919061367f565b92505b808061114d906136d5565b9150506110b4565b5060008267ffffffffffffffff81111561117257611171612fbe565b5b6040519080825280602002602001820160405280156111ab57816020015b6111986129cd565b8152602001906001900390816111905790505b50905060005b8481101561132b573373ffffffffffffffffffffffffffffffffffffffff16600960006001846111e1919061367f565b815260200190815260200160002060010160009054906101000a900473ffffffffffffffffffffffffffffffffffffffff1673ffffffffffffffffffffffffffffffffffffffff16141561131857600060018261123e919061367f565b9050600060096000838152602001908152602001600020905080604051806080016040529081600082015481526020016001820160009054906101000a900473ffffffffffffffffffffffffffffffffffffffff1673ffffffffffffffffffffffffffffffffffffffff1673ffffffffffffffffffffffffffffffffffffffff168152602001600282015481526020016003820160009054906101000a900460ff1615151515815250508486815181106112fb576112fa61371e565b5b6020026020010181905250600185611313919061367f565b945050505b8080611323906136d5565b9150506111b1565b508094505050505090565b61133e611c79565b73ffffffffffffffffffffffffffffffffffffffff1661135c6114eb565b73ffffffffffffffffffffffffffffffffffffffff16146113b2576040517f08c379a00000000000000000000000000000000000000000000000000000000081526004016113a9906138bd565b60405180910390fd5b6113bc6008612153565b60006113c8600861207f565b90506113d43382612169565b6113de8184612187565b60405180608001604052808281526020013373ffffffffffffffffffffffffffffffffffffffff16815260200183815260200160011515815250600960008381526020019081526020016000206000820151816000015560208201518160010160006101000a81548173ffffffffffffffffffffffffffffffffffffffff021916908373ffffffffffffffffffffffffffffffffffffffff1602179055506040820151816002015560608201518160030160006101000a81548160ff021916908315150217905550905050807fd32337e28849a4040f4e803f9aa511e4d0f609b9bd475bf9b9a9b578441ec3af338460016040516114de939291906138dd565b60405180910390a2505050565b6000600760009054906101000a900473ffffffffffffffffffffffffffffffffffffffff16905090565b60606001805461152490613344565b80601f016020809104026020016040519081016040528092919081815260200182805461155090613344565b801561159d5780601f106115725761010080835404028352916020019161159d565b820191906000526020600020905b81548152906001019060200180831161158057829003601f168201915b5050505050905090565b6115b96115b2611c79565b83836121fb565b5050565b6115ce6115c8611c79565b83611d3a565b61160d576040517f08c379a00000000000000000000000000000000000000000000000000000000081526004016116049061359e565b60405180910390fd5b61161984848484612368565b50505050565b606061162a82611c0d565b611669576040517f08c379a000000000000000000000000000000000000000000000000000000000815260040161166090613986565b60405180910390fd5b600060066000848152602001908152602001600020805461168990613344565b80601f01602080910402602001604051908101604052809291908181526020018280546116b590613344565b80156117025780601f106116d757610100808354040283529160200191611702565b820191906000526020600020905b8154815290600101906020018083116116e557829003601f168201915b5050505050905060006117136123c4565b905060008151141561172957819250505061176c565b60008251111561175e5780826040516020016117469291906139e2565b6040516020818303038152906040529250505061176c565b611767846123db565b925050505b919050565b6060600061177f600861207f565b905060008060005b8381101561182f576117976114eb565b73ffffffffffffffffffffffffffffffffffffffff16600960006001846117be919061367f565b815260200190815260200160002060010160009054906101000a900473ffffffffffffffffffffffffffffffffffffffff1673ffffffffffffffffffffffffffffffffffffffff16141561181c57600183611819919061367f565b92505b8080611827906136d5565b915050611787565b5060008267ffffffffffffffff81111561184c5761184b612fbe565b5b60405190808252806020026020018201604052801561188557816020015b6118726129cd565b81526020019060019003908161186a5790505b50905060005b84811015611a0c5761189b6114eb565b73ffffffffffffffffffffffffffffffffffffffff16600960006001846118c2919061367f565b815260200190815260200160002060010160009054906101000a900473ffffffffffffffffffffffffffffffffffffffff1673ffffffffffffffffffffffffffffffffffffffff1614156119f957600060018261191f919061367f565b9050600060096000838152602001908152602001600020905080604051806080016040529081600082015481526020016001820160009054906101000a900473ffffffffffffffffffffffffffffffffffffffff1673ffffffffffffffffffffffffffffffffffffffff1673ffffffffffffffffffffffffffffffffffffffff168152602001600282015481526020016003820160009054906101000a900460ff1615151515815250508486815181106119dc576119db61371e565b5b60200260200101819052506001856119f4919061367f565b945050505b8080611a04906136d5565b91505061188b565b508094505050505090565b6000600560008473ffffffffffffffffffffffffffffffffffffffff1673ffffffffffffffffffffffffffffffffffffffff16815260200190815260200160002060008373ffffffffffffffffffffffffffffffffffffffff1673ffffffffffffffffffffffffffffffffffffffff16815260200190815260200160002060009054906101000a900460ff16905092915050565b611ab3611c79565b73ffffffffffffffffffffffffffffffffffffffff16611ad16114eb565b73ffffffffffffffffffffffffffffffffffffffff1614611b27576040517f08c379a0000000000000000000000000000000000000000000000000000000008152600401611b1e906138bd565b60405180910390fd5b600073ffffffffffffffffffffffffffffffffffffffff168173ffffffffffffffffffffffffffffffffffffffff161415611b97576040517f08c379a0000000000000000000000000000000000000000000000000000000008152600401611b8e90613a78565b60405180910390fd5b611ba08161208d565b50565b60007f01ffc9a7000000000000000000000000000000000000000000000000000000007bffffffffffffffffffffffffffffffffffffffffffffffffffffffff1916827bffffffffffffffffffffffffffffffffffffffffffffffffffffffff1916149050919050565b60008073ffffffffffffffffffffffffffffffffffffffff166002600084815260200190815260200160002060009054906101000a900473ffffffffffffffffffffffffffffffffffffffff1673ffffffffffffffffffffffffffffffffffffffff1614159050919050565b600033905090565b816004600083815260200190815260200160002060006101000a81548173ffffffffffffffffffffffffffffffffffffffff021916908373ffffffffffffffffffffffffffffffffffffffff160217905550808273ffffffffffffffffffffffffffffffffffffffff16611cf483610d02565b73ffffffffffffffffffffffffffffffffffffffff167f8c5be1e5ebec7d5bd14f71427d1e84f3dd0314c0f7b2291e5b200ac8c7c3b92560405160405180910390a45050565b6000611d4582611c0d565b611d84576040517f08c379a0000000000000000000000000000000000000000000000000000000008152600401611d7b90613b0a565b60405180910390fd5b6000611d8f83610d02565b90508073ffffffffffffffffffffffffffffffffffffffff168473ffffffffffffffffffffffffffffffffffffffff161480611dfe57508373ffffffffffffffffffffffffffffffffffffffff16611de684610699565b73ffffffffffffffffffffffffffffffffffffffff16145b80611e0f5750611e0e8185611a17565b5b91505092915050565b8273ffffffffffffffffffffffffffffffffffffffff16611e3882610d02565b73ffffffffffffffffffffffffffffffffffffffff1614611e8e576040517f08c379a0000000000000000000000000000000000000000000000000000000008152600401611e8590613b9c565b60405180910390fd5b600073ffffffffffffffffffffffffffffffffffffffff168273ffffffffffffffffffffffffffffffffffffffff161415611efe576040517f08c379a0000000000000000000000000000000000000000000000000000000008152600401611ef590613c2e565b60405180910390fd5b611f09838383612482565b611f14600082611c81565b6001600360008573ffffffffffffffffffffffffffffffffffffffff1673ffffffffffffffffffffffffffffffffffffffff1681526020019081526020016000206000828254611f649190613c4e565b925050819055506001600360008473ffffffffffffffffffffffffffffffffffffffff1673ffffffffffffffffffffffffffffffffffffffff1681526020019081526020016000206000828254611fbb919061367f565b92505081905550816002600083815260200190815260200160002060006101000a81548173ffffffffffffffffffffffffffffffffffffffff021916908373ffffffffffffffffffffffffffffffffffffffff160217905550808273ffffffffffffffffffffffffffffffffffffffff168473ffffffffffffffffffffffffffffffffffffffff167fddf252ad1be2c89b69c2b068fc378daa952ba7f163c4a11628f55a4df523b3ef60405160405180910390a461207a838383612487565b505050565b600081600001549050919050565b6000600760009054906101000a900473ffffffffffffffffffffffffffffffffffffffff16905081600760006101000a81548173ffffffffffffffffffffffffffffffffffffffff021916908373ffffffffffffffffffffffffffffffffffffffff1602179055508173ffffffffffffffffffffffffffffffffffffffff168173ffffffffffffffffffffffffffffffffffffffff167f8be0079c531659141344cd1fd0a4f28419497f9722a3daafe3b4186f6b6457e060405160405180910390a35050565b6001816000016000828254019250508190555050565b61218382826040518060200160405280600081525061248c565b5050565b61219082611c0d565b6121cf576040517f08c379a00000000000000000000000000000000000000000000000000000000081526004016121c690613cf4565b60405180910390fd5b806006600084815260200190815260200160002090805190602001906121f6929190612a0d565b505050565b8173ffffffffffffffffffffffffffffffffffffffff168373ffffffffffffffffffffffffffffffffffffffff16141561226a576040517f08c379a000000000000000000000000000000000000000000000000000000000815260040161226190613d60565b60405180910390fd5b80600560008573ffffffffffffffffffffffffffffffffffffffff1673ffffffffffffffffffffffffffffffffffffffff16815260200190815260200160002060008473ffffffffffffffffffffffffffffffffffffffff1673ffffffffffffffffffffffffffffffffffffffff16815260200190815260200160002060006101000a81548160ff0219169083151502179055508173ffffffffffffffffffffffffffffffffffffffff168373ffffffffffffffffffffffffffffffffffffffff167f17307eab39ab6107e8899845ad3d59bd9653f200f220920489ca2b5937696c318360405161235b9190612b64565b60405180910390a3505050565b612373848484611e18565b61237f848484846124e7565b6123be576040517f08c379a00000000000000000000000000000000000000000000000000000000081526004016123b590613df2565b60405180910390fd5b50505050565b606060405180602001604052806000815250905090565b60606123e682611c0d565b612425576040517f08c379a000000000000000000000000000000000000000000000000000000000815260040161241c90613e84565b60405180910390fd5b600061242f6123c4565b9050600081511161244f576040518060200160405280600081525061247a565b806124598461266f565b60405160200161246a9291906139e2565b6040516020818303038152906040525b915050919050565b505050565b505050565b61249683836127d0565b6124a360008484846124e7565b6124e2576040517f08c379a00000000000000000000000000000000000000000000000000000000081526004016124d990613df2565b60405180910390fd5b505050565b60006125088473ffffffffffffffffffffffffffffffffffffffff166129aa565b15612662578373ffffffffffffffffffffffffffffffffffffffff1663150b7a02612531611c79565b8786866040518563ffffffff1660e01b81526004016125539493929190613ef9565b6020604051808303816000875af192505050801561258f57506040513d601f19601f8201168201806040525081019061258c9190613f5a565b60015b612612573d80600081146125bf576040519150601f19603f3d011682016040523d82523d6000602084013e6125c4565b606091505b5060008151141561260a576040517f08c379a000000000000000000000000000000000000000000000000000000000815260040161260190613df2565b60405180910390fd5b805181602001fd5b63150b7a0260e01b7bffffffffffffffffffffffffffffffffffffffffffffffffffffffff1916817bffffffffffffffffffffffffffffffffffffffffffffffffffffffff191614915050612667565b600190505b949350505050565b606060008214156126b7576040518060400160405280600181526020017f300000000000000000000000000000000000000000000000000000000000000081525090506127cb565b600082905060005b600082146126e95780806126d2906136d5565b915050600a826126e29190613fb6565b91506126bf565b60008167ffffffffffffffff81111561270557612704612fbe565b5b6040519080825280601f01601f1916602001820160405280156127375781602001600182028036833780820191505090505b5090505b600085146127c4576001826127509190613c4e565b9150600a8561275f9190613fe7565b603061276b919061367f565b60f81b8183815181106127815761278061371e565b5b60200101907effffffffffffffffffffffffffffffffffffffffffffffffffffffffffffff1916908160001a905350600a856127bd9190613fb6565b945061273b565b8093505050505b919050565b600073ffffffffffffffffffffffffffffffffffffffff168273ffffffffffffffffffffffffffffffffffffffff161415612840576040517f08c379a000000000000000000000000000000000000000000000000000000000815260040161283790614064565b60405180910390fd5b61284981611c0d565b15612889576040517f08c379a0000000000000000000000000000000000000000000000000000000008152600401612880906140d0565b60405180910390fd5b61289560008383612482565b6001600360008473ffffffffffffffffffffffffffffffffffffffff1673ffffffffffffffffffffffffffffffffffffffff16815260200190815260200160002060008282546128e5919061367f565b92505081905550816002600083815260200190815260200160002060006101000a81548173ffffffffffffffffffffffffffffffffffffffff021916908373ffffffffffffffffffffffffffffffffffffffff160217905550808273ffffffffffffffffffffffffffffffffffffffff16600073ffffffffffffffffffffffffffffffffffffffff167fddf252ad1be2c89b69c2b068fc378daa952ba7f163c4a11628f55a4df523b3ef60405160405180910390a46129a660008383612487565b5050565b6000808273ffffffffffffffffffffffffffffffffffffffff163b119050919050565b604051806080016040528060008152602001600073ffffffffffffffffffffffffffffffffffffffff168152602001600081526020016000151581525090565b828054612a1990613344565b90600052602060002090601f016020900481019282612a3b5760008555612a82565b82601f10612a5457805160ff1916838001178555612a82565b82800160010185558215612a82579182015b82811115612a81578251825591602001919060010190612a66565b5b509050612a8f9190612a93565b5090565b5b80821115612aac576000816000905550600101612a94565b5090565b6000604051905090565b600080fd5b600080fd5b60007fffffffff0000000000000000000000000000000000000000000000000000000082169050919050565b612af981612ac4565b8114612b0457600080fd5b50565b600081359050612b1681612af0565b92915050565b600060208284031215612b3257612b31612aba565b5b6000612b4084828501612b07565b91505092915050565b60008115159050919050565b612b5e81612b49565b82525050565b6000602082019050612b796000830184612b55565b92915050565b600081519050919050565b600082825260208201905092915050565b60005b83811015612bb9578082015181840152602081019050612b9e565b83811115612bc8576000848401525b50505050565b6000601f19601f8301169050919050565b6000612bea82612b7f565b612bf48185612b8a565b9350612c04818560208601612b9b565b612c0d81612bce565b840191505092915050565b60006020820190508181036000830152612c328184612bdf565b905092915050565b6000819050919050565b612c4d81612c3a565b8114612c5857600080fd5b50565b600081359050612c6a81612c44565b92915050565b600060208284031215612c8657612c85612aba565b5b6000612c9484828501612c5b565b91505092915050565b600073ffffffffffffffffffffffffffffffffffffffff82169050919050565b6000612cc882612c9d565b9050919050565b612cd881612cbd565b82525050565b6000602082019050612cf36000830184612ccf565b92915050565b612d0281612cbd565b8114612d0d57600080fd5b50565b600081359050612d1f81612cf9565b92915050565b60008060408385031215612d3c57612d3b612aba565b5b6000612d4a85828601612d10565b9250506020612d5b85828601612c5b565b9150509250929050565b600080600060608486031215612d7e57612d7d612aba565b5b6000612d8c86828701612d10565b9350506020612d9d86828701612d10565b9250506040612dae86828701612c5b565b9150509250925092565b60008060408385031215612dcf57612dce612aba565b5b6000612ddd85828601612c5b565b9250506020612dee85828601612c5b565b9150509250929050565b600081519050919050565b600082825260208201905092915050565b6000819050602082019050919050565b612e2d81612c3a565b82525050565b6000612e3e82612c9d565b9050919050565b612e4e81612e33565b82525050565b612e5d81612b49565b82525050565b608082016000820151612e796000850182612e24565b506020820151612e8c6020850182612e45565b506040820151612e9f6040850182612e24565b506060820151612eb26060850182612e54565b50505050565b6000612ec48383612e63565b60808301905092915050565b6000602082019050919050565b6000612ee882612df8565b612ef28185612e03565b9350612efd83612e14565b8060005b83811015612f2e578151612f158882612eb8565b9750612f2083612ed0565b925050600181019050612f01565b5085935050505092915050565b60006020820190508181036000830152612f558184612edd565b905092915050565b600060208284031215612f7357612f72612aba565b5b6000612f8184828501612d10565b91505092915050565b612f9381612c3a565b82525050565b6000602082019050612fae6000830184612f8a565b92915050565b600080fd5b600080fd5b7f4e487b7100000000000000000000000000000000000000000000000000000000600052604160045260246000fd5b612ff682612bce565b810181811067ffffffffffffffff8211171561301557613014612fbe565b5b80604052505050565b6000613028612ab0565b90506130348282612fed565b919050565b600067ffffffffffffffff82111561305457613053612fbe565b5b61305d82612bce565b9050602081019050919050565b82818337600083830152505050565b600061308c61308784613039565b61301e565b9050828152602081018484840111156130a8576130a7612fb9565b5b6130b384828561306a565b509392505050565b600082601f8301126130d0576130cf612fb4565b5b81356130e0848260208601613079565b91505092915050565b60008060408385031215613100576130ff612aba565b5b600083013567ffffffffffffffff81111561311e5761311d612abf565b5b61312a858286016130bb565b925050602061313b85828601612c5b565b9150509250929050565b61314e81612b49565b811461315957600080fd5b50565b60008135905061316b81613145565b92915050565b6000806040838503121561318857613187612aba565b5b600061319685828601612d10565b92505060206131a78582860161315c565b9150509250929050565b600067ffffffffffffffff8211156131cc576131cb612fbe565b5b6131d582612bce565b9050602081019050919050565b60006131f56131f0846131b1565b61301e565b90508281526020810184848401111561321157613210612fb9565b5b61321c84828561306a565b509392505050565b600082601f83011261323957613238612fb4565b5b81356132498482602086016131e2565b91505092915050565b6000806000806080858703121561326c5761326b612aba565b5b600061327a87828801612d10565b945050602061328b87828801612d10565b935050604061329c87828801612c5b565b925050606085013567ffffffffffffffff8111156132bd576132bc612abf565b5b6132c987828801613224565b91505092959194509250565b600080604083850312156132ec576132eb612aba565b5b60006132fa85828601612d10565b925050602061330b85828601612d10565b9150509250929050565b7f4e487b7100000000000000000000000000000000000000000000000000000000600052602260045260246000fd5b6000600282049050600182168061335c57607f821691505b602082108114156133705761336f613315565b5b50919050565b7f4552433732313a20617070726f76656420717565727920666f72206e6f6e657860008201527f697374656e7420746f6b656e0000000000000000000000000000000000000000602082015250565b60006133d2602c83612b8a565b91506133dd82613376565b604082019050919050565b60006020820190508181036000830152613401816133c5565b9050919050565b7f4552433732313a20617070726f76616c20746f2063757272656e74206f776e6560008201527f7200000000000000000000000000000000000000000000000000000000000000602082015250565b6000613464602183612b8a565b915061346f82613408565b604082019050919050565b6000602082019050818103600083015261349381613457565b9050919050565b7f4552433732313a20617070726f76652063616c6c6572206973206e6f74206f7760008201527f6e6572206e6f7220617070726f76656420666f7220616c6c0000000000000000602082015250565b60006134f6603883612b8a565b91506135018261349a565b604082019050919050565b60006020820190508181036000830152613525816134e9565b9050919050565b7f4552433732313a207472616e736665722063616c6c6572206973206e6f74206f60008201527f776e6572206e6f7220617070726f766564000000000000000000000000000000602082015250565b6000613588603183612b8a565b91506135938261352c565b604082019050919050565b600060208201905081810360008301526135b78161357b565b9050919050565b7f4f6e6c79206974656d206f776e65722063616e20706572666f726d207468697360008201527f206f7065726174696f6e00000000000000000000000000000000000000000000602082015250565b600061361a602a83612b8a565b9150613625826135be565b604082019050919050565b600060208201905081810360008301526136498161360d565b9050919050565b7f4e487b7100000000000000000000000000000000000000000000000000000000600052601160045260246000fd5b600061368a82612c3a565b915061369583612c3a565b9250827fffffffffffffffffffffffffffffffffffffffffffffffffffffffffffffffff038211156136ca576136c9613650565b5b828201905092915050565b60006136e082612c3a565b91507fffffffffffffffffffffffffffffffffffffffffffffffffffffffffffffffff82141561371357613712613650565b5b600182019050919050565b7f4e487b7100000000000000000000000000000000000000000000000000000000600052603260045260246000fd5b7f4552433732313a206f776e657220717565727920666f72206e6f6e657869737460008201527f656e7420746f6b656e0000000000000000000000000000000000000000000000602082015250565b60006137a9602983612b8a565b91506137b48261374d565b604082019050919050565b600060208201905081810360008301526137d88161379c565b9050919050565b7f4552433732313a2062616c616e636520717565727920666f7220746865207a6560008201527f726f206164647265737300000000000000000000000000000000000000000000602082015250565b600061383b602a83612b8a565b9150613846826137df565b604082019050919050565b6000602082019050818103600083015261386a8161382e565b9050919050565b7f4f776e61626c653a2063616c6c6572206973206e6f7420746865206f776e6572600082015250565b60006138a7602083612b8a565b91506138b282613871565b602082019050919050565b600060208201905081810360008301526138d68161389a565b9050919050565b60006060820190506138f26000830186612ccf565b6138ff6020830185612f8a565b61390c6040830184612b55565b949350505050565b7f45524337323155524953746f726167653a2055524920717565727920666f722060008201527f6e6f6e6578697374656e7420746f6b656e000000000000000000000000000000602082015250565b6000613970603183612b8a565b915061397b82613914565b604082019050919050565b6000602082019050818103600083015261399f81613963565b9050919050565b600081905092915050565b60006139bc82612b7f565b6139c681856139a6565b93506139d6818560208601612b9b565b80840191505092915050565b60006139ee82856139b1565b91506139fa82846139b1565b91508190509392505050565b7f4f776e61626c653a206e6577206f776e657220697320746865207a65726f206160008201527f6464726573730000000000000000000000000000000000000000000000000000602082015250565b6000613a62602683612b8a565b9150613a6d82613a06565b604082019050919050565b60006020820190508181036000830152613a9181613a55565b9050919050565b7f4552433732313a206f70657261746f7220717565727920666f72206e6f6e657860008201527f697374656e7420746f6b656e0000000000000000000000000000000000000000602082015250565b6000613af4602c83612b8a565b9150613aff82613a98565b604082019050919050565b60006020820190508181036000830152613b2381613ae7565b9050919050565b7f4552433732313a207472616e736665722066726f6d20696e636f72726563742060008201527f6f776e6572000000000000000000000000000000000000000000000000000000602082015250565b6000613b86602583612b8a565b9150613b9182613b2a565b604082019050919050565b60006020820190508181036000830152613bb581613b79565b9050919050565b7f4552433732313a207472616e7366657220746f20746865207a65726f2061646460008201527f7265737300000000000000000000000000000000000000000000000000000000602082015250565b6000613c18602483612b8a565b9150613c2382613bbc565b604082019050919050565b60006020820190508181036000830152613c4781613c0b565b9050919050565b6000613c5982612c3a565b9150613c6483612c3a565b925082821015613c7757613c76613650565b5b828203905092915050565b7f45524337323155524953746f726167653a2055524920736574206f66206e6f6e60008201527f6578697374656e7420746f6b656e000000000000000000000000000000000000602082015250565b6000613cde602e83612b8a565b9150613ce982613c82565b604082019050919050565b60006020820190508181036000830152613d0d81613cd1565b9050919050565b7f4552433732313a20617070726f766520746f2063616c6c657200000000000000600082015250565b6000613d4a601983612b8a565b9150613d5582613d14565b602082019050919050565b60006020820190508181036000830152613d7981613d3d565b9050919050565b7f4552433732313a207472616e7366657220746f206e6f6e20455243373231526560008201527f63656976657220696d706c656d656e7465720000000000000000000000000000602082015250565b6000613ddc603283612b8a565b9150613de782613d80565b604082019050919050565b60006020820190508181036000830152613e0b81613dcf565b9050919050565b7f4552433732314d657461646174613a2055524920717565727920666f72206e6f60008201527f6e6578697374656e7420746f6b656e0000000000000000000000000000000000602082015250565b6000613e6e602f83612b8a565b9150613e7982613e12565b604082019050919050565b60006020820190508181036000830152613e9d81613e61565b9050919050565b600081519050919050565b600082825260208201905092915050565b6000613ecb82613ea4565b613ed58185613eaf565b9350613ee5818560208601612b9b565b613eee81612bce565b840191505092915050565b6000608082019050613f0e6000830187612ccf565b613f1b6020830186612ccf565b613f286040830185612f8a565b8181036060830152613f3a8184613ec0565b905095945050505050565b600081519050613f5481612af0565b92915050565b600060208284031215613f7057613f6f612aba565b5b6000613f7e84828501613f45565b91505092915050565b7f4e487b7100000000000000000000000000000000000000000000000000000000600052601260045260246000fd5b6000613fc182612c3a565b9150613fcc83612c3a565b925082613fdc57613fdb613f87565b5b828204905092915050565b6000613ff282612c3a565b9150613ffd83612c3a565b92508261400d5761400c613f87565b5b828206905092915050565b7f4552433732313a206d696e7420746f20746865207a65726f2061646472657373600082015250565b600061404e602083612b8a565b915061405982614018565b602082019050919050565b6000602082019050818103600083015261407d81614041565b9050919050565b7f4552433732313a20746f6b656e20616c7265616479206d696e74656400000000600082015250565b60006140ba601c83612b8a565b91506140c582614084565b602082019050919050565b600060208201905081810360008301526140e9816140ad565b905091905056fea26469706673582212208a504fd4fe703f7ae6966ed2c23920b6bd50f05a5e902b6a1ed00595e555ac7d64736f6c634300080b0033",
  "immutableReferences": {},
  "source": "// SPDX-License-Identifier: MIT\npragma solidity ^0.8.4;\n\nimport \"@openzeppelin/contracts/token/ERC721/extensions/ERC721URIStorage.sol\";\nimport \"@openzeppelin/contracts/access/Ownable.sol\";\nimport \"@openzeppelin/contracts/utils/Counters.sol\";\n\ncontract CreateNFT is ERC721URIStorage,Ownable  {\n    using Counters for Counters.Counter;\n    Counters.Counter private _tokenIds;\n\n    constructor() ERC721(\"CreateNFT\", \"CNT\") { \n    }\n\nmapping(uint => NFTItem) private idToNFTItem;\n\n    struct NFTItem {\n      uint tokenId;\n      address payable owner;\n      uint price;\n      bool sell;\n    }\n\n    event NFTItemCreated (\n      uint indexed tokenId,\n      address owner,\n      uint price,\n      bool sell\n    );\n\n    function CreateNFTItem(string memory tokenURI, uint price) public onlyOwner {\n      _tokenIds.increment();\n      uint tokenId = _tokenIds.current();\n      _safeMint(msg.sender, tokenId);\n      _setTokenURI(tokenId, tokenURI);\n      idToNFTItem[tokenId]=NFTItem(tokenId,payable(msg.sender),price,true);\n      emit NFTItemCreated(tokenId,msg.sender,price,true);\n    }\n\n    function getNFTItem(uint tokenId) public payable{\n      uint price = idToNFTItem[tokenId].price;\n      address owner = idToNFTItem[tokenId].owner;\n      require(msg.value==price);\n      require(msg.sender!=owner);\n      require(idToNFTItem[tokenId].sell==true);\n      idToNFTItem[tokenId].owner = payable(msg.sender);\n      _transfer(owner, msg.sender, tokenId);\n      payable(owner).transfer(msg.value);\n      idToNFTItem[tokenId].sell=false;\n    }\n\n      function sellMyNFTItem(uint256 tokenId, uint256 price) public {\n      require(idToNFTItem[tokenId].owner == msg.sender, \"Only item owner can perform this operation\");\n      require(idToNFTItem[tokenId].sell == false);\n      idToNFTItem[tokenId].price = price;\n      idToNFTItem[tokenId].sell = true;\n    }\n\n    function MyNFTlists() public view returns (NFTItem[] memory) {\n      uint totalItemCount = _tokenIds.current();\n      uint itemCount = 0;\n      uint currentIndex = 0;\n\n      for (uint i = 0; i < totalItemCount; i++) {\n        if (idToNFTItem[i + 1].owner == msg.sender) {\n          itemCount += 1;\n        }\n      }\n\n      NFTItem[] memory items = new NFTItem[](itemCount);\n      for (uint i = 0; i < totalItemCount; i++) {\n        if (idToNFTItem[i + 1].owner == msg.sender) {\n          uint currentId = i + 1;\n          NFTItem storage currentItem = idToNFTItem[currentId];\n          items[currentIndex] = currentItem;\n          currentIndex += 1;\n        }\n      }\n      return items;\n    }\n\n    function OwnerSelllists() public view returns (NFTItem[] memory) {\n      uint totalItemCount = _tokenIds.current();\n      uint itemCount = 0;\n      uint currentIndex = 0;\n\n      for (uint i = 0; i < totalItemCount; i++) {\n        if (idToNFTItem[i + 1].owner == owner()) {\n          itemCount += 1;\n        }\n      }\n\n      NFTItem[] memory items = new NFTItem[](itemCount);\n      for (uint i = 0; i < totalItemCount; i++) {\n        if (idToNFTItem[i + 1].owner == owner()) {\n          uint currentId = i + 1;\n          NFTItem storage currentItem = idToNFTItem[currentId];\n          items[currentIndex] = currentItem;\n          currentIndex += 1;\n        }\n      }\n      return items;\n    }\n\n    function UserSelllists() public view returns (NFTItem[] memory) {\n      uint totalItemCount = _tokenIds.current();\n      uint itemCount = 0;\n      uint currentIndex = 0;\n\n      for (uint i = 0; i < totalItemCount; i++) {\n        if (idToNFTItem[i + 1].owner != owner() && idToNFTItem[i + 1].sell==true) {\n          itemCount += 1;\n        }\n      }\n\n      NFTItem[] memory items = new NFTItem[](itemCount);\n      for (uint i = 0; i < totalItemCount; i++) {\n        if (idToNFTItem[i + 1].owner != owner()&& idToNFTItem[i + 1].sell==true) {\n          uint currentId = i + 1;\n          NFTItem storage currentItem = idToNFTItem[currentId];\n          items[currentIndex] = currentItem;\n          currentIndex += 1;\n        }\n      }\n      return items;\n    }\n\n}",
  "sourcePath": "C:\\play-to-earn\\contracts\\CreateNFT.sol",
  "compiler": {
    "name": "solc",
    "version": "0.8.11+commit.d7f03943.Emscripten.clang"
  },
  "schemaVersion": "3.4.5",
  "updatedAt": "2022-03-17T06:07:52.750Z",
  "networkType": "ethereum",
  "devdoc": {
    "kind": "dev",
    "methods": {
      "approve(address,uint256)": {
        "details": "See {IERC721-approve}."
      },
      "balanceOf(address)": {
        "details": "See {IERC721-balanceOf}."
      },
      "getApproved(uint256)": {
        "details": "See {IERC721-getApproved}."
      },
      "isApprovedForAll(address,address)": {
        "details": "See {IERC721-isApprovedForAll}."
      },
      "name()": {
        "details": "See {IERC721Metadata-name}."
      },
      "owner()": {
        "details": "Returns the address of the current owner."
      },
      "ownerOf(uint256)": {
        "details": "See {IERC721-ownerOf}."
      },
      "renounceOwnership()": {
        "details": "Leaves the contract without owner. It will not be possible to call `onlyOwner` functions anymore. Can only be called by the current owner. NOTE: Renouncing ownership will leave the contract without an owner, thereby removing any functionality that is only available to the owner."
      },
      "safeTransferFrom(address,address,uint256)": {
        "details": "See {IERC721-safeTransferFrom}."
      },
      "safeTransferFrom(address,address,uint256,bytes)": {
        "details": "See {IERC721-safeTransferFrom}."
      },
      "setApprovalForAll(address,bool)": {
        "details": "See {IERC721-setApprovalForAll}."
      },
      "supportsInterface(bytes4)": {
        "details": "See {IERC165-supportsInterface}."
      },
      "symbol()": {
        "details": "See {IERC721Metadata-symbol}."
      },
      "tokenURI(uint256)": {
        "details": "See {IERC721Metadata-tokenURI}."
      },
      "transferFrom(address,address,uint256)": {
        "details": "See {IERC721-transferFrom}."
      },
      "transferOwnership(address)": {
        "details": "Transfers ownership of the contract to a new account (`newOwner`). Can only be called by the current owner."
      }
    },
    "version": 1
  },
  "userdoc": {
    "kind": "user",
    "methods": {},
    "version": 1
  }
}